:020000040800F2
:1000000000000520591E0008750E00087B0E000830
:10001000810E0008870E00088D0E00080000000009
:10002000000000000000000000000000930E000827
:10003000A10E000800000000AF0E0008BD0E000871
:10004000A91E0008A91E0008A91E0008A91E000874
:10005000A91E0008A91E0008A91E0008A91E000864
:10006000A91E0008A91E0008A91E0008A91E000854
:10007000A91E0008A91E0008A91E0008A91E000844
:10008000A91E0008A91E0008A91E0008A91E000834
:10009000A91E0008A91E0008A91E0008A91E000824
:1000A000A91E0008A91E0008A91E0008A91E000814
:1000B000A91E0008A91E0008A91E0008A91E000804
:1000C000A91E0008A91E0008A91E0008A91E0008F4
:1000D000A91E0008A91E0008A91E0008A91E0008E4
:1000E000A91E0008A91E0008A91E0008A91E0008D4
:1000F000A91E0008A91E0008A91E0008A91E0008C4
:10010000A91E0008A91E0008A91E0008A91E0008B3
:10011000A91E0008A91E0008A91E0008A91E0008A3
:10012000A91E0008A91E0008A91E0008A91E000893
:10013000A91E0008A91E0008A91E0008A91E000883
:10014000A91E0008A91E0008A91E0008A91E000873
:10015000A91E0008A91E0008A91E0008A91E000863
:10016000A91E0008A91E0008A91E0008A91E000853
:10017000A91E0008A91E0008A91E0008A91E000843
:10018000A91E0008A91E0008A91E0008A91E000833
:10019000A91E0008A91E0008A91E0008A91E000823
:1001A000A91E0008A91E0008A91E0008A91E000813
:1001B000A91E0008A91E0008A91E0008A91E000803
:0801C000A91E0008A91E000899
:1001D00010B5054C237833B9044B13B10448AFF381
:1001E00000800123237010BDC0000020000000002B
:1001F0004C27000808B5034B1BB103490348AFF374
:10020000008008BD00000000C40000204C2700084A
:1002100001F0FF01102A2BDB10F0070F08D010F8B7
:10022000013B013A8B422DD010F0070F42B3F6D1BB
:10023000F0B441EA012141EA014122F007047FF0D4
:1002400000070023F0E80256083C85EA010586EA2B
:10025000010685FA47F5A3FA87F586FA47F6A5FA67
:1002600087F68EB9EED1F0BC01F0FF0102F0070273
:1002700032B110F8013B013A83EA010313B1F8D11E
:100280000020704701387047002D06BF35460338FF
:10029000073815F0010F07D1013015F4807F02BF38
:1002A000013015F4C03F0130F0BC0138704700BF89
:1002B00053B94AB9002908BF00281CBF4FF0FF31CD
:1002C0004FF0FF3000F07AB9ADF1080C6DE904CEC3
:1002D00000F006F8DDF804E0DDE9022304B0704721
:1002E0002DE9F0478C460D460446089E002B51D15F
:1002F0008A4217466DD9B2FA82FEBEF1000F0BD0CA
:10030000CEF1200C01FA0EF520FA0CFC02FA0EF7E1
:100310004CEA050C00FA0EF44FEA174A250CBCFB18
:10032000FAF81FFA87F90AFB18CC45EA0C4508FBD6
:1003300009F3AB420AD9ED1908F1FF3280F02381AD
:10034000AB4240F22081A8F102083D44ED1AA4B26C
:10035000B5FBFAF00AFB105544EA054400FB09F925
:10036000A14509D9E41900F1FF3380F00A81A145C4
:1003700040F2078102383C44A4EB090440EA0840FB
:100380000021002E61D024FA0EF400233460736043
:10039000BDE8F0878B4207D9002E54D0002186E8B3
:1003A00021000846BDE8F087B3FA83F1002940F048
:1003B0008E80AB4202D3824200F2FA80841A65EB4F
:1003C00003050120AC46002E3FD086E81010BDE8A2
:1003D000F08712B90127B7FBF2F7B7FA87FEBEF133
:1003E000000F34D1EB1B3A0C1FFA87FC0121B3FB41
:1003F000F2F8250C02FB183345EA03450CFB08F321
:10040000AB4207D9ED1908F1FF3002D2AB4200F23E
:10041000D1808046ED1AA3B2B5FBF2F002FB105575
:1004200043EA05440CFB00FCA44507D9E41900F19C
:10043000FF3302D2A44500F2B8801846A4EB0C04A6
:1004400040EA08409DE731463046BDE8F087CEF1EE
:10045000200405FA0EF307FA0EF720FA04F83A0C16
:1004600025FA04F448EA0308B4FBF2F14FEA184510
:1004700002FB11441FFA87FC45EA044501FB0CF31B
:10048000AB4200FA0EF409D9ED1901F1FF3080F00A
:100490008A80AB4240F2878002393D44EB1A1FFA52
:1004A00088F5B3FBF2F002FB103345EA034500FB8D
:1004B0000CF3AB4207D9ED1900F1FF386FD2AB4214
:1004C0006DD902383D44EB1A40EA01418FE7C1F192
:1004D000200722FA07F88B4005FA01F448EA0303E3
:1004E00020FA07FE4FEA134CFD404EEA040EB5FB1E
:1004F000FCF94FEA1E440CFB19551FFA83F844EA35
:10050000054509FB08F4AC4202FA01F200FA01FACF
:1005100008D9ED1809F1FF3043D2AC4241D9A9F115
:1005200002091D442D1B1FFA8EFEB5FBFCF00CFBCF
:1005300010554EEA054400FB08F8A04507D9E41819
:1005400000F1FF3529D2A04527D902381C4440EAE2
:100550000940A4EB0804A0FB02894C45C6464D4661
:1005600015D312D056B1BAEB0E0364EB050404FAAE
:1005700007F7CB401F43CC40376074600021BDE8D3
:10058000F0871846F8E69046E0E6C245EAD2B8EBB6
:10059000020E69EB03050138E4E72846D7E7404639
:1005A00091E78146BEE7014678E702383C4445E7DB
:1005B000084608E7A8F102083D442BE7704700BF52
:1005C00098B500AF0A4B1B78032B0ED8084B1B784D
:1005D0001C4600F01FFC0346DAB2064B1A55044BCA
:1005E0001B780133DAB2024B1A7000BF98BD00BF0E
:1005F000DD000020F400002080B582B000AF0023B1
:10060000FB710CE0FB79144AD25CFB791349CB5C9B
:100610009A4201D001231BE0FB790133FB71FB7986
:10062000032BEFD90E4B1B78002B07D003210120A1
:1006300000F0D8F90B4800F0C0F908E000224FF4B0
:100640008041094800F0A8FF054B01221A700023E1
:1006500018460837BD4680BDF40000200000002089
:10066000DC000020642700080004024080B582B04E
:1006700000AF0023FB710CE0FB79144AD25CFB79DC
:100680001349CB5C9A4201D001231BE0FB79013373
:10069000FB71FB79032BEFD90E4B1B78002B07D195
:1006A0000321042000F09EF90B4800F086F908E0D1
:1006B00001224FF48041094800F06EFF054B0022F3
:1006C0001A70002318460837BD4680BDF40000208C
:1006D00004000020DC000020742700080004024011
:1006E00080B582B000AF012000F034F90121042070
:1006F00000F078F90023FB7105E00B4800F05DF98C
:10070000FB790133FB71FA79084B1B78013B9A4264
:10071000F3DB064B1B78013BDAB2044B1A7000BFC7
:100720000837BD4680BD00BF80270008DD000020DF
:1007300080B582B000AF012000F00CF90121042047
:1007400000F050F90023FB7105E0084800F035F98E
:10075000FB790133FB71FA79054B1B78013B9A4217
:10076000F3DD00BF0837BD4680BD00BF802700080D
:10077000DD00002080B582B000AF00F0FFFA00F08D
:1007800049FB78607B68092B13DC204B1B78042B1A
:1007900035D0FFF715FF7A681D491E4801F0B8FBF8
:1007A0001C4800F00AF94FF4FA7000F02DFCFFF736
:1007B000BFFF7B680A2B1CD1144B1B78042B20D164
:1007C000FFF71AFF0346002B0BD0FFF74FFF03463E
:1007D000002B06D00221042000F004F90E4800F09E
:1007E000ECF80A4B1B780433DBB20121184600F009
:1007F000F9F87B680B2B05D1FFF772FF02E000BF11
:1008000000E000BF0837BD4680BD00BFDD0000200E
:1008100084270008F80000208827000880B500AF72
:10082000062000F0F1FB01224FF48061084800F03F
:10083000B3FE052000F0E8FB00224FF4806104487D
:1008400000F0AAFE012000F0DFFB00BF80BD00BF6A
:100850000010024080B582B000AF0346FB71FB7907
:10086000DB09DBB21A464FF480612E4800F094FE9B
:10087000FB799B09DBB203F00103DBB21A464FF4AC
:100880000041294800F088FEFB795B09DBB203F0E8
:100890000103DBB21A464FF48041234800F07CFE8E
:1008A000FB791B09DBB203F00103DBB21A464FF4FC
:1008B00080511D4800F070FEFFF7B0FFFB79DB08A8
:1008C000DBB203F00103DBB21A464FF48061154836
:1008D00000F062FEFB799B08DBB203F00103DBB2A0
:1008E0001A464FF40041104800F056FEFB795B08B1
:1008F000DBB203F00103DBB21A464FF480410A4831
:1009000000F04AFEFB7903F00103DBB21A464FF414
:100910008051054800F040FEFFF780FF00BF083718
:10092000BD4680BD000402400010024080B582B088
:1009300000AF0346FB7101228021054800F02CFE28
:10094000FB791846FFF786FF00BF0837BD4680BD1C
:100950000010024080B582B000AF0346FB71002258
:100960008021054800F018FEFB791846FFF772FF5A
:1009700000BF0837BD4680BD0010024080B500AF03
:100980002020FFF7E7FFFFF749FFFFF747FFFFF7DB
:1009900045FF2820FFF7DEFF2820FFF7DBFF282098
:1009A000FFF7D8FF0220FFF7D5FF0120FFF7D2FFA6
:1009B0000C20FFF7CFFF00BF80BD80B582B000AF35
:1009C000786006E07B685A1C7A601B781846FFF74F
:1009D000ADFF7B681B78002BF4D100BF0837BD4604
:1009E00080BD000080B584B000AF03460A46FB71AD
:1009F0001346BB71BB79013B032B20D801A252F8EF
:100A000023F000BF150A00081D0A0008250A000887
:100A10002D0A0008FB79803BFB730BE0FB79403B20
:100A2000FB7307E0FB79703BFB7303E0FB79303B22
:100A3000FB7300BFFB7B1846FFF78CFF00E000BF95
:100A40001037BD4680BD00BF80B582B000AF00F05A
:100A50007DFA00F01BF800F075F8FFF78FFF01201A
:100A6000FFF778FF8020FFF775FF01210420FFF7D3
:100A7000B9FF0023FB7101224FF48041024800F0CE
:100A80008BFDFFF777FEFCE70004024080B594B0D1
:100A900000AF07F1200330220021184601F030FAA0
:100AA00007F10C0300221A605A609A60DA601A613A
:100AB000224A224B1B6C43F0805313641F4B1B6C68
:100AC00003F08053BB60BB681D4A1D4B1B6823F4B9
:100AD000404343F480431360194B1B6803F44043C5
:100AE0007B607B6802233B620123FB6210233B6334
:100AF0000023BB6307F12003184600F067FD03469F
:100B0000002B01D000F0D6F80F23FB6000233B61DF
:100B100000237B610023BB610023FB6107F10C0311
:100B20000021184600F0F6FF0346002B01D000F02C
:100B3000C1F800BF5037BD4680BD00BF003802403D
:100B40000070004080B58AB000AF07F114030022A6
:100B50001A605A609A60DA601A61514A504B1B6BF6
:100B600043F0200313634E4B1B6B03F020033B61E8
:100B70003B694B4A4A4B1B6B43F010031363484BD2
:100B80001B6B03F01003FB60FB68454A444B1B6B77
:100B900043F002031363424B1B6B03F00203BB6081
:100BA000BB683F4A3E4B1B6B43F0400313633C4B17
:100BB0001B6B03F040037B607B6800224FF44041D5
:100BC000384800F0E9FC00224FF28041364800F03E
:100BD000E3FC00224FF48941344800F0DDFC0022A0
:100BE0004FF48041324800F0D7FC4FF400537B6152
:100BF0000023BB610023FB6107F114031946294858
:100C000000F008FB4FF440437B610123BB610023EC
:100C1000FB6100233B6207F114031946214800F0F1
:100C2000F9FA4FF280437B610123BB610023FB6132
:100C300000233B6207F1140319461B4800F0EAFA4F
:100C40004FF420637B610023BB610023FB6107F14C
:100C500014031946144800F0DDFA4FF489437B6110
:100C60000123BB610023FB6100233B6207F11403F6
:100C700019460E4800F0CEFA4FF480437B61012301
:100C8000BB610023FB6100233B6207F1140319469B
:100C9000074800F0BFFA00BF2837BD4680BD00BF3F
:100CA00000380240001402400010024000040240DC
:100CB0000018024080B400AF72B6FEE780B584B081
:100CC00000AF0346FB710023FB7320E0FA7BFB7946
:100CD000013B9A420CD1FB7B104A52F82300FB7B6C
:100CE0000F4A32F813300122194600F055FC0BE090
:100CF000FB7B0A4A52F82300FB7B094A32F8133087
:100D00000022194600F048FCFB7B0133FB73FB7BA0
:100D1000032BDBD900BF1037BD4680BD2400002067
:100D20000C00002080B582B000AF0023FB710023CF
:100D30007B710023BB7115E0BB790E4A52F823008A
:100D4000BB790D4A32F81330194600F00DFC03460A
:100D50007B71FB795B00DAB27B791344FB71BB7961
:100D60000133BB71BB79062BE6D9FB7918460837EE
:100D7000BD4680BD340000201400002080B582B044
:100D800000AF0023FB710023BB711F4B1B7818467B
:100D9000FFF794FF052000F037F9FFF7C3FF034684
:100DA000BB711AE0FB79194AD35CBA799A420ED129
:100DB000174AFB79137000BFFFF7B4FF03461946CB
:100DC000FB79124AD35C9942F6D0002317E0104B0E
:100DD0000C221A70FB790133FB71FB790B2BE1D9E3
:100DE000094B1B78032B06D8074B1B780133DAB26B
:100DF000054B1A7002E0044B01221A7001231846B9
:100E00000837BD4680BD00BF080000208C270008C1
:100E10000900002080B400AF034B1B781846BD4684
:100E20005DF8047B704700BF0900002080B483B0E8
:100E300000AF0F4A0E4B1B6C43F0805313640C4BF6
:100E40001B6C03F080537B607B68094A084B5B6C2A
:100E500043F480435364064B5B6C03F480433B6074
:100E60003B6800BF0C37BD465DF8047B704700BF90
:100E70000038024080B400AFFEE780B400AFFEE768
:100E800080B400AFFEE780B400AFFEE780B400AFEF
:100E9000FEE780B400AF00BFBD465DF8047B70473D
:100EA00080B400AF00BFBD465DF8047B704780B4DE
:100EB00000AF00BFBD465DF8047B704780B500AF52
:100EC00000F082F800BF80BD80B584B000AF7860CC
:100ED000114B1B68002B02D10F4B104A1A600E4BAE
:100EE0001B68FB600C4B1A687B6813446A4693428C
:100EF00007D900F0DBFF02460C2313604FF0FF33ED
:100F000006E0054B1A687B681344034A1360FB68CC
:100F100018461037BD4680BDE000002004010020C7
:100F200080B400AF084A084BD3F8883043F470030C
:100F3000C2F88830044B4FF000629A6000BFBD4693
:100F40005DF8047B704700BF00ED00E080B500AFA6
:100F5000032000F02BF9002000F006F8FFF766FFF1
:100F60000023184680BD000080B582B000AF7860D5
:100F7000124B1A68124B1B7819464FF47A73B3FB65
:100F8000F1F3B2FBF3F3184600F037F90346002BF8
:100F900001D001230EE07B680F2B0AD8002279686C
:100FA0004FF0FF3000F00DF9064A7B681360002314
:100FB00000E0012318460837BD4680BD50000020E0
:100FC000580000205400002080B400AF064B1B786E
:100FD0001A46064B1B681344044A136000BFBD4603
:100FE0005DF8047B704700BF58000020FC00002023
:100FF00080B400AF034B1B681846BD465DF8047B08
:10100000704700BFFC00002080B584B000AF78605E
:10101000FFF7EEFFB8607B68FB60FB68B3F1FF3F52
:1010200005D0094B1B781A46FB681344FB6000BFD0
:10103000FFF7DEFF0246BB68D21AFB689A42F7D37D
:1010400000BF1037BD4680BD5800002080B485B079
:1010500000AF78607B6803F00703FB600B4BDB6835
:10106000BB60BA684FF6FF031340BB60FB681A020F
:10107000BB681A43064B1343BB60044ABB68D3608A
:1010800000BF1437BD465DF8047B704700ED00E0FB
:101090000000FA0580B400AF044BDB681B0A03F0C4
:1010A00007031846BD465DF8047B704700ED00E07D
:1010B00080B483B000AF03463960FB7197F9073005
:1010C000002B0ADB0D4997F907303A68D2B21201BA
:1010D000D2B20B4483F800230AE00949FB7903F0FC
:1010E0000F03043B3A68D2B21201D2B20B441A7613
:1010F00000BF0C37BD465DF8047B704700E100E09F
:1011000000ED00E080B489B000AFF860B9607A60AB
:10111000FB6803F00703FB61FB69C3F10703042BC2
:1011200028BF0423BB61FB690433062B02D9FB698A
:10113000033B00E000237B610122BB6902FA03F359
:101140005A1EBB681A407B699A4001217B6901FAEB
:1011500003F3591E7B680B40134318462437BD46E2
:101160005DF8047B7047000080B582B000AF786006
:101170007B68013BB3F1807F01D301230FE00A4A72
:101180007B68013B53600F214FF0FF30FFF790FF6A
:10119000054B00229A60044B07221A600023184670
:1011A0000837BD4680BD00BF10E000E080B582B0CA
:1011B00000AF78607868FFF749FF00BF0837BD4689
:1011C00080BD80B586B000AF0346B9607A60FB731E
:1011D00000237B61FFF75EFF78617A68B968786900
:1011E000FFF790FF024697F90F3011461846FFF7B8
:1011F0005FFF00BF1837BD4680BD80B582B000AF2D
:1012000078607868FFF7B0FF034618460837BD4698
:1012100080BD000080B489B000AF786039600023E1
:10122000FB6100237B6100233B610023BB61002342
:10123000FB6175E10122FB6902FA03F37B613B6804
:101240001A687B6913403B613A697B699A4240F0B6
:1012500064813B685B68012B0BD03B685B68022BA9
:1012600007D03B685B68112B03D03B685B68122B8F
:1012700030D17B689B68BB61FB695B00032202FA8B
:1012800003F3DB43BA691340BB613B68DA68FB696F
:101290005B0002FA03F3BA691343BB617B68BA6966
:1012A0009A607B685B68BB610122FB6902FA03F309
:1012B000DB43BA691340BB613B685B681B0903F001
:1012C0000102FB6902FA03F3BA691343BB617B684D
:1012D000BA695A607B68DB68BB61FB695B0003220B
:1012E00002FA03F3DB43BA691340BB613B689A68B7
:1012F000FB695B0002FA03F3BA691343BB617B68C5
:10130000BA69DA603B685B68022B03D03B685B68B4
:10131000122B23D1FB69DA087B68083253F822309C
:10132000BB61FB6903F007039B000F2202FA03F382
:10133000DB43BA691340BB613B681A69FB6903F080
:1013400007039B0002FA03F3BA691343BB61FB690D
:10135000DA087B680832B96943F822107B681B6899
:10136000BB61FB695B00032202FA03F3DB43BA694A
:101370001340BB613B685B6803F00302FB695B00E1
:1013800002FA03F3BA691343BB617B68BA691A6056
:101390003B685B6803F08053002B00F0BE80654A19
:1013A000644B5B6C43F480435364624B5B6C03F4AB
:1013B0008043FB60FB68604AFB699B08023352F87C
:1013C0002330BB61FB6903F003039B000F2202FA89
:1013D00003F3DB43BA691340BB617B68574A93420E
:1013E00037D07B68564A934231D07B68554A934246
:1013F0002BD07B68544A934225D07B68534A934252
:101400001FD07B68524A934219D07B68514A93425D
:1014100013D07B68504A93420DD07B684F4A934269
:1014200007D07B684E4A934201D1092312E00A2378
:1014300010E008230EE007230CE006230AE0052352
:1014400008E0042306E0032304E0022302E0012372
:1014500000E00023FA6902F0030292009340BA69A7
:101460001343BB613449FB699B080233BA6941F8F5
:1014700023203C4B1B68BB613B69DB43BA691340CB
:10148000BB613B685B6803F48033002B03D0BA690F
:101490003B691343BB61334ABB691360314B5B68E3
:1014A000BB613B69DB43BA691340BB613B685B6866
:1014B00003F40033002B03D0BA693B691343BB61CB
:1014C000284ABB695360274B9B68BB613B69DB4380
:1014D000BA691340BB613B685B6803F48013002B5F
:1014E00003D0BA693B691343BB611E4ABB69936071
:1014F0001C4BDB68BB613B69DB43BA691340BB61D2
:101500003B685B6803F40013002B03D0BA693B69A6
:101510001343BB61134ABB69D360FB690133FB61B1
:10152000FB690F2B7FF686AE00BF2437BD465DF802
:10153000047B704700380240003801400000024040
:101540000004024000080240000C0240001002406B
:101550000014024000180240001C0240002002401B
:1015600000240240003C014080B485B000AF7860A8
:101570000B467B807B681A697B881340002B02D066
:101580000123FB7301E00023FB73FB7B1846143738
:10159000BD465DF8047B704780B483B000AF7860CF
:1015A0000B467B8013467B707B78002B03D07A88B8
:1015B0007B689A6103E07B881A047B689A6100BFAC
:1015C0000C37BD465DF8047B7047000080B586B0DF
:1015D00000AF78600023FB757B68002B01D10123ED
:1015E00091E27B681B6803F00103002B00F0878009
:1015F000964B9B6803F00C03042B0CD0934B9B6819
:1016000003F00C03082B12D1904B5B6803F48003AA
:10161000B3F5800F0BD18D4B1B6803F40033002B07
:101620006CD07B685B68002B68D101236BE27B6820
:101630005B68B3F5803F06D1844A844B1B6843F452
:10164000803313602EE07B685B68002B0CD17F4AEF
:101650007E4B1B6823F4803313607C4A7B4B1B68F2
:1016600023F4802313601DE07B685B68B3F5A02F33
:101670000CD1764A754B1B6843F480231360734A80
:10168000724B1B6843F4803313600BE06F4A6F4B5F
:101690001B6823F4803313606C4A6C4B1B6823F483
:1016A000802313607B685B68002B13D0FFF7A0FCDE
:1016B000386108E0FFF79CFC02463B69D31A642BB3
:1016C00001D903231FE2614B1B6803F40033002B95
:1016D000F0D014E0FFF78CFC386108E0FFF788FCDD
:1016E00002463B69D31A642B01D903230BE2574B03
:1016F0001B6803F40033002BF0D100E000BF7B68CF
:101700001B6803F00203002B69D0504B9B6803F069
:101710000C03002B0BD04D4B9B6803F00C03082BE4
:101720001CD14A4B5B6803F48003002B16D1474B56
:101730001B6803F00203002B05D07B68DB68012BDC
:1017400001D00123DFE14149404B1B6823F0F8023F
:101750007B681B69DB0013430B6040E07B68DB6840
:10176000002B23D0394A394B1B6843F00103136027
:10177000FFF73EFC386108E0FFF73AFC02463B69A0
:10178000D31A022B01D90323BDE1304B1B6803F0B0
:101790000203002BF0D02D492C4B1B6823F0F802DC
:1017A0007B681B69DB0013430B6018E0274A274B5B
:1017B0001B6823F001031360FFF71AFC386108E08F
:1017C000FFF716FC02463B69D31A022B01D903230B
:1017D00099E11E4B1B6803F00203002BF0D17B68DC
:1017E0001B6803F00803002B38D07B685B69002B73
:1017F00019D0164A154B5B6F43F001035367FFF78F
:10180000F7FB386108E0FFF7F3FB02463B69D31AA8
:10181000022B01D9032376E10C4B5B6F03F002032B
:10182000002BF0D01AE0094A084B5B6F23F001034C
:101830005367FFF7DDFB38610AE0FFF7D9FB02468B
:101840003B69D31A022B03D903235CE10038024021
:10185000914B5B6F03F00203002BEED17B681B689A
:1018600003F00403002B00F0A4808B4B1B6C03F0EF
:101870008053002B0DD1884A874B1B6C43F080535B
:101880001364854B1B6C03F08053BB60BB68012362
:10189000FB75824B1B6803F48073002B18D17F4AC1
:1018A0007E4B1B6843F480731360FFF7A1FB386124
:1018B00008E0FFF79DFB02463B69D31A642B01D970
:1018C000032320E1754B1B6803F48073002BF0D0D9
:1018D0007B689B68012B06D16F4A6F4B1B6F43F0EF
:1018E000010313672DE07B689B68002B0CD16A4ACB
:1018F000694B1B6F23F001031367674A664B1B6F2D
:1019000023F0040313671CE07B689B68052B0CD154
:10191000614A614B1B6F43F0040313675E4A5E4BE1
:101920001B6F43F0010313670BE05B4A5A4B1B6FBD
:1019300023F001031367584A574B1B6F23F004032E
:1019400013677B689B68002B15D0FFF751FB38614C
:101950000AE0FFF74DFB02463B69D31A41F2883299
:10196000934201D90323CEE04B4B1B6F03F00203DC
:10197000002BEED014E0FFF73BFB38610AE0FFF7E5
:1019800037FB02463B69D31A41F28832934201D9B0
:101990000323B8E0404B1B6F03F00203002BEED192
:1019A000FB7D012B05D13C4A3B4B1B6C23F0805344
:1019B00013647B689B69002B00F0A480364B9B6806
:1019C00003F00C03082B6BD07B689B69022B49D179
:1019D000314A314B1B6823F080731360FFF708FB1B
:1019E000386108E0FFF704FB02463B69D31A022B7B
:1019F00001D9032387E0284B1B6803F00073002BF9
:101A0000F0D125497B68DA697B681B6A1A437B68D9
:101A10005B6A9B011A437B689B6A5B08013B1B0462
:101A20001A437B68DB6A1B06134343F000534B6089
:101A3000194A194B1B6843F080731360FFF7D8FAFB
:101A4000386108E0FFF7D4FA02463B69D31A022B4B
:101A500001D9032357E0104B1B6803F00073002BE0
:101A6000F0D04FE00C4A0C4B1B6823F080731360DE
:101A7000FFF7BEFA386108E0FFF7BAFA02463B69A1
:101A8000D31A022B01D903233DE0034B1B6803F05B
:101A90000073002BF0D135E00038024000700040A8
:101AA0001B4B5B68FB607B689B69012B28D0FB6844
:101AB00003F480027B68DB699A4221D1FB6803F062
:101AC0003F027B681B6A9A421AD1FA6847F6C073D4
:101AD00013407A68526A9201934211D1FB6803F471
:101AE00040327B689B6A5B08013B1B049A4207D12A
:101AF000FB6803F070627B68DB6A1B069A4201D0C8
:101B0000012300E0002318461837BD4680BD00BF02
:101B10000038024080B584B000AF7860396000239F
:101B2000FB607B68002B01D10123D0E06A4B1B686E
:101B300003F00F023B689A4210D26749664B1B685C
:101B400023F00F023B6813430B60634B1B6803F0E9
:101B50000F023B689A4201D00123B8E07B681B6802
:101B600003F00203002B20D07B681B6803F0040302
:101B7000002B05D0594A594B9B6843F4E0539360BE
:101B80007B681B6803F00803002B05D0534A534BB6
:101B90009B6843F4604393605049504B9B6823F02B
:101BA000F0027B689B6813438B607B681B6803F0C3
:101BB0000103002B40D07B685B68012B07D1474BAA
:101BC0001B6803F40033002B15D101237FE07B68F1
:101BD0005B68022B07D1414B1B6803F00073002B9D
:101BE00009D1012373E03D4B1B6803F00203002B76
:101BF00001D101236BE03949384B9B6823F0030284
:101C00007B685B6813438B60FFF7F2F9F8600AE0CA
:101C1000FFF7EEF90246FB68D31A41F2883293428D
:101C200001D9032353E02D4B9B6803F00C027B6822
:101C30005B689B009A42EBD1274B1B6803F00F02B5
:101C40003B689A4210D92449234B1B6823F00F02AA
:101C50003B6813430B60204B1B6803F00F023B688B
:101C60009A4201D0012332E07B681B6803F0040331
:101C7000002B08D01949194B9B6823F4E0527B686C
:101C8000DB6813438B607B681B6803F00803002B41
:101C900009D01249114B9B6823F460427B681B6991
:101CA000DB0013438B6000F021F801460B4B9B686F
:101CB0001B0903F00F030A4AD35C21FA03F3094A14
:101CC0001360094B1B681846FFF74EF900231846AE
:101CD0001037BD4680BD00BF003C024000380240C6
:101CE0009827000850000020540000202DE9F04FF4
:101CF00087B000AF0022FA6000227A610022BA6049
:101D000000223A61514A926802F00C02042A07D07C
:101D1000082A08D0002A40F090804D4B3B618FE0AC
:101D20004C4B3B618CE0494A526802F03F02FA603A
:101D3000464A526802F48002002A23D0434B5B6873
:101D40009B094FF0000440F2FF114FF0000203EA3C
:101D5000010304EA02043F4A02FB04F1002202FBF1
:101D600003F20A443B49A3FB010153181946FB68DF
:101D70004FF000041A462346FEF79AFA03460C4633
:101D80007B614CE0314A5268920911464FF00002E3
:101D900040F2FF154FF0000605EA010506EA0206CB
:101DA000294632464FEA421B4BEAD16B4FEA411AB1
:101DB00051465A46AA46B34655465E464D1B62EB0F
:101DC000060629463246940144EA91648B015B1A67
:101DD00064EB02044FEAC40949EA53794FEAC308A5
:101DE00043464C4655465E46ED1846EB04062B46E8
:101DF0003446A2027A607A6842EA93527A609B0281
:101E00003B6097E8180018462146FB684FF0000435
:101E10001A462346FEF74CFA03460C467B610B4BF1
:101E20005B681B0C03F0030301335B00BB607A6942
:101E3000BB68B2FBF3F33B6102E0054B3B6100BFC3
:101E40003B6918461C37BD46BDE8F08F003802409C
:101E50000024F40040787D01DFF834D0002103E055
:101E60000C4B5B58435004310B480C4B42189A42C0
:101E7000F6D30B4A02E0002342F8043B094B9A4296
:101E8000F9D3FFF74DF800F017F8FEF7DDFD7047C6
:101E900000000520EC27000800000020C000002002
:101EA000C000002004010020FEE70000014B18687C
:101EB000704700BF5C00002070B50D4E0D4CA41B98
:101EC000A4100025A54209D10B4E0C4C00F03EFC9D
:101ED000A41BA4100025A54205D170BD56F82530DD
:101EE00098470135EEE756F8253098470135F2E777
:101EF000E4270008E4270008E4270008E827000892
:101F000002440346934200D1704703F8011BF9E7EE
:101F10000EB400B59CB04FF402711DABADF81410B7
:101F2000029006906FF000410A48049107914FF625
:101F3000FF7153F8042BADF816100068019302A945
:101F400000F066F8029B00221A701CB05DF804EBEA
:101F500003B070475C0000202DE9F0478E689E4278
:101F600082460C469146984635D88A8912F4906F7D
:101F700031D0256809696F1A6569022305EB4505AB
:101F800095FBF3F508F101033B449D4238BF1D4624
:101F9000530531D5294600F039FB064650B90C23CC
:101FA000CAF80030A38943F04003A3814FF0FF300B
:101FB000BDE8F0873A46216900F0B4FAA38923F41A
:101FC000906343F08003A381266165613E44ED1B6D
:101FD0002660A5604646464528BF464632464946E5
:101FE000206800F0AAFAA3689B1BA36023681E4424
:101FF00026600020BDE8F0872A4600F065FB064613
:102000000028E1D12169504600F0B2FAC7E700008C
:102010002DE9F04F9DB0804603938B891C060D4639
:1020200016460FD50B696BB9402100F0EFFA286016
:10203000286128B90C23C8F800304FF0FF30C5E004
:1020400040236B610023099320238DF8293030232E
:102050008DF82A304FF0010B37463C4614F8013B0F
:10206000002B3CD1B7EB060A0BD05346324629462B
:102070004046FFF771FF013000F0A380099B5344F5
:1020800009933B78002B00F09C8000234FF0FF3237
:1020900004930793059206938DF853301A93052203
:1020A00021785048FEF7B4F8671C049BD8B9D906CC
:1020B00044BF20228DF853201A0744BF2B228DF8ED
:1020C000532022782A2A16D0079A00210A20274670
:1020D00001343B78303B092B51D9C9B111E0252B94
:1020E000C0D02746B9E73F4A801A0BFA00F01843E0
:1020F00004903C46D3E7039A111D12680391002A0D
:1021000001DB079204E0524243F00203079204937A
:102110003B782E2B0ED17B782A2B07F1010132D18F
:10212000039B1A1D1B680392002BB8BF4FF0FF33AF
:10213000023705932C4C397803222046FEF768F8C5
:1021400038B14023001B03FA00F0049B03430493BF
:102150000137397825488DF8281006227E1CFEF7B5
:1021600057F8002835D0224BFBB9039B073323F0E7
:10217000070308330393099B4B4409936CE700FB67
:1021800002320121A3E70023059318460A240F46D3
:1021900001313A78303A092A03D9002BCAD0059088
:1021A000C8E704FB00200123F1E703AB00932A46B4
:1021B000104B04A94046AFF30080B0F1FF3F8146C9
:1021C000D9D1AB895B063FF538AF09981DB0BDE8A2
:1021D000F08F03AB00932A46064B04A9404600F05B
:1021E00081F8EAE7A8270008AE270008B227000810
:1021F00000000000591F00082DE9F04791461F46D6
:102200008A680B69DDF820809342B8BF1346C9F88D
:10221000003091F8432006460C4612B10133C9F84C
:1022200000302368990642BFD9F800300233C9F85C
:102230000030256815F0060507D104F1190AE36896
:10224000D9F800209B1A9D4229DB94F8433022687C
:10225000003318BF012392062ED404F143023946FD
:102260003046C047013021D02368E568D9F8002006
:1022700003F00603042B08BFAD1AA36822690CBF44
:1022800025EAE57500259342C4BF9B1AED184FF06F
:1022900000091A344D451BD10020BDE8F087012309
:1022A000524639463046C047013003D14FF0FF3027
:1022B000BDE8F0870135C2E7E1185A1C302081F8EB
:1022C0004300224494F8451082F843100233C4E7D7
:1022D0000123224639463046C0470130E6D009F195
:1022E0000109D7E72DE9F04317460A7E85B06E2A2B
:1022F000984606460C460C9B01F1430E00F0BC804C
:102300001AD8632A2ED00AD8002A00F0C880582A8A
:1023100000F08A8004F1420584F842202AE0642A11
:1023200001D0692AF6D121681A6811F0800F23D0F4
:10233000111D1960136827E0732A00F0B48008D8D3
:102340006F2A2AD0702AE5D10A6842F020020A607A
:1023500003E0752A21D0782ADCD1782284F8452040
:102360006E4964E01A6801F14205111D1960136895
:1023700084F842300123A3E011F0400F02F1040180
:102380001960D7D0B2F90030002B03DA2D225B425E
:1023900084F8432062490A2217E02068196810F087
:1023A000800F03D0081D18600B6806E010F0400F86
:1023B00001F104001860F7D00B8859496F2A14BF47
:1023C0000A220822002084F843006568A560002DD9
:1023D000C0F29C80206820F004002060002B3FD1D8
:1023E000002D40F095807546082A0BD12368DA0746
:1023F00008D5236962689A42DEBF302305F8013CA4
:1024000005F1FF35AEEB05032361CDF800803B46B7
:1024100003AA21463046FFF7EFFE013055D14FF0B9
:10242000FF3005B0BDE8F08381F845203C492268C3
:10243000186812F0800F00F104051D6001D00368D8
:1024400002E05506FBD50388D00744BF42F02002C6
:1024500022601BB9226822F0200222601022B1E71C
:102460007546B3FBF2F002FB1033CB5C05F8013D7F
:1024700003460028F5D1B7E708681A68496910F0E3
:10248000800F04D0101D18601368196007E010F069
:10249000400F02F1040018601368F6D01980002381
:1024A00023617546B1E71A68111D196015686268E5
:1024B00000212846FDF7ACFE08B1401B6060636850
:1024C0002361002384F843309FE723692A46394675
:1024D0003046C0470130A2D023689B0707D50025AE
:1024E00004F11909E368039A9B1A9D4205DBE06831
:1024F000039B9842B8BF184693E701234A463946E2
:102500003046C04701308AD00135EBE7002BA7D118
:102510000B7884F8423004F1420565E7CA270008C9
:10252000B927000810B5431E0A44914200D110BDDE
:1025300011F8014B03F8014FF7E7884210B501EBA2
:10254000020303D8421E99420CD110BD9842F9D221
:102550008118D21AD34200D110BD13F8014D01F8F1
:10256000014DF7E711F8014B02F8014FEBE70000CE
:1025700038B50546002945D051F8043C0C1F002B06
:10258000B8BFE41800F0D6F81F4A1368104633B9F4
:10259000636014602846BDE8384000F0CCB8A34220
:1025A0000CD921686218934204BF1A685B686360A3
:1025B00004BF521822600460ECE713465A680AB15F
:1025C000A242FAD919685818A0420BD120680144D8
:1025D000581882421960DDD1106852685A6001446F
:1025E0001960D7E702D90C232B60D3E720682118A4
:1025F0008A4204BF11685268626004BF09182160F2
:102600005C60C7E738BD00BFE400002070B5CD1C9A
:1026100025F0030508350C2D38BF0C25002D064686
:1026200001DBA94203D90C233360002070BD00F008
:1026300081F8234A1468214691B9224C23681BB9BA
:10264000304600F067F820602946304600F062F816
:10265000431C26D10C233360304600F06CF8E4E7CD
:102660000B685B1B1AD40B2B0FD90B60CD50CC1809
:10267000304600F060F804F10B00231D20F0070045
:10268000C31A1BD05A42E25070BD8C420DBF636822
:102690004B686360136018BF0C46E9E70C46496855
:1026A000CAE7C41C24F00304A04205D0211A304616
:1026B00000F030F80130CDD02560D9E770BD00BF03
:1026C000E4000020E8000020F8B5074614460E4656
:1026D00021B91146BDE8F840FFF798BF22B9FFF7CE
:1026E00047FF25462846F8BD00F026F884420FD95A
:1026F00021463846FFF78AFF05460028F2D03146CA
:102700002246FFF70FFF31463846FFF731FFE9E772
:102710003546E7E738B5064C0023054608462360F2
:10272000FEF7D2FB431C02D1236803B12B6038BDF6
:10273000000100207047704751F8040C0028A0F1F8
:102740000400BCBF0B58C01870470000F8B500BFAC
:10275000F8BC08BC9E467047F8B500BFF8BC08BC82
:042760009E467047DA
:10276400686174617374616C616E69747661000090
:10277400656C657369747665000000002A000000CA
:102784002564000021212100450E0D0B161513268A
:10279400252346430000000000000000010203045A
:1027A40006070809232D302B2000686C4C00656651
:1027B400674546470030313233343536373839418E
:1027C40042434445460030313233343536373839A4
:0827D4006162636465660000A8
:0827DC0004DBFF7F0100000097
:0427E400F5010008F3
:0427E800D101000813
:1027EC000506070801020304010C0000004000204C
:1027FC0000800040004000800020004000080002E3
:10280C00002000000014024000100240001402409E
:10281C000018024000180240001402400010024050
:10282C00001402400010024000100240001402404C
:10283C000024F400100000000100000060000020E3
:10284C00000000000000000000000000000000007C
:10285C00000000000000000000000000000000006C
:10286C00000000000000000000000000000000005C
:10287C00000000000000000000000000000000004C
:10288C00000000000000000000000000000000003C
:10289C00000000000000000000000000000000002C
:0400000508001E5978
:00000001FF
