:020000040800F2
:1000000000000520F926000811110008171100084A
:100010001D1100082311000829110008000000002C
:100020000000000000000000000000002F11000888
:100030003D110008000000004B1100085911000894
:1000400049270008492700084927000849270008D0
:1000500049270008492700084927000849270008C0
:1000600049270008492700084927000849270008B0
:1000700049270008492700084927000849270008A0
:100080004927000849270008492700084927000890
:100090004927000849270008492700084927000880
:1000A0004927000849270008492700084927000870
:1000B0004927000849270008492700084927000860
:1000C0004927000849270008492700084927000850
:1000D0004927000849270008492700084927000840
:1000E0004927000849270008492700084927000830
:1000F0004927000849270008492700084927000820
:10010000492700084927000849270008492700080F
:1001100049270008492700084927000849270008FF
:1001200049270008492700084927000849270008EF
:1001300049270008492700084927000849270008DF
:1001400049270008492700084927000849270008CF
:1001500049270008492700084927000849270008BF
:1001600049270008492700084927000849270008AF
:10017000492700084927000849270008492700089F
:10018000492700084927000849270008492700088F
:10019000492700084927000849270008492700087F
:1001A000492700084927000849270008492700086F
:1001B000492700084927000849270008492700085F
:0801C000492700084927000847
:1001C80010B5054C237833B9044B13B10448AFF389
:1001D80000800123237010BD1000002000000000E3
:1001E800A427000808B5034B1BB103490348AFF324
:1001F800008008BD0000000014000020A4270008AB
:1002080081F0004102E000BF83F0004330B54FEABF
:1002180041044FEA430594EA050F08BF90EA020F2C
:100228001FBF54EA000C55EA020C7FEA645C7FEABF
:10023800655C00F0E2804FEA5454D4EB5555B8BFE2
:100248006D420CDD2C4480EA020281EA030382EA53
:10025800000083EA010180EA020281EA0303362DE5
:1002680088BF30BD11F0004F4FEA01314FF4801CB8
:100278004CEA113102D0404261EB410113F0004FCA
:100288004FEA03334CEA133302D0524263EB430381
:1002980094EA050F00F0A780A4F10104D5F1200E1F
:1002A8000DDB02FA0EFC22FA05F2801841F100017A
:1002B80003FA0EF2801843FA05F359410EE0A5F14E
:1002C80020050EF1200E012A03FA0EFC28BF4CF07F
:1002D800020C43FA05F3C01851EBE37101F0004535
:1002E80007D54FF0000EDCF1000C7EEB00006EEB42
:1002F8000101B1F5801F1BD3B1F5001F0CD34908CC
:100308005FEA30004FEA3C0C04F101044FEA445222
:1003180012F5800F80F09A80BCF1004F08BF5FEAA9
:10032800500C50F1000041EB045141EA050130BD89
:100338005FEA4C0C404141EB010111F4801FA4F12C
:100348000104E9D191F0000F04BF01460020B1FA81
:1003580081F308BF2033A3F10B03B3F120020CDAB9
:100368000C3208DD02F1140CC2F10C0201FA0CF097
:1003780021FA02F10CE002F11402D8BFC2F1200CFC
:1003880001FA02F120FA0CFCDCBF41EA0C019040B2
:10039800E41AA2BF01EB0451294330BD6FEA0404FB
:1003A8001F3C1CDA0C340EDC04F11404C4F12002E6
:1003B80020FA04F001FA02F340EA030021FA04F3F8
:1003C80045EA030130BDC4F10C04C4F1200220FA4F
:1003D80002F001FA04F340EA0300294630BD21FA8D
:1003E80004F0294630BD94F0000F83F4801306BF53
:1003F80081F480110134013D4EE77FEA645C18BF47
:100408007FEA655C29D094EA050F08BF90EA020FDD
:1004180005D054EA000C04BF1946104630BD91EAD5
:10042800030F1EBF0021002030BD5FEA545C05D1D8
:100438004000494128BF41F0004130BD14F5800417
:100448003CBF01F5801130BD01F0004545F0FE418B
:1004580041F470014FF0000030BD7FEA645C1ABFC0
:10046800194610467FEA655C1CBF0B46024650EAF7
:10047800013406BF52EA033591EA030F41F4002123
:1004880030BD00BF90F0000F04BF0021704730B5A9
:100498004FF4806404F132044FF000054FF000017E
:1004A80050E700BF90F0000F04BF0021704730B53F
:1004B8004FF4806404F1320410F0004548BF404214
:1004C8004FF000013EE700BF42004FEAE2014FEA69
:1004D80031014FEA02701FBF12F07F4393F07F4F44
:1004E80081F06051704792F0000F14BF93F07F4F76
:1004F800704730B54FF4607401F0004521F00041B9
:1005080020E700BF50EA010208BF704730B54FF03E
:1005180000050AE050EA010208BF704730B511F043
:10052800004502D5404261EB41014FF4806404F17B
:1005380032045FEA915C3FF4DCAE4FF003025FEAFD
:10054800DC0C18BF03325FEADC0C18BF033202EB85
:10055800DC02C2F1200300FA03FC20FA02F001FADF
:1005680003FE40EA0E0021FA02F11444C1E600BF7E
:1005780070B54FF0FF0C4CF4E06C1CEA11541DBF31
:100588001CEA135594EA0C0F95EA0C0F00F0DEF8FC
:100598002C4481EA030621EA4C5123EA4C5350EAE1
:1005A800013518BF52EA033541F4801143F4801332
:1005B80038D0A0FB02CE4FF00005E1FB02E506F0C3
:1005C8000042E0FB03E54FF00006E1FB03569CF018
:1005D800000F18BF4EF0010EA4F1FF04B6F5007F1E
:1005E80064F5407404D25FEA4E0E6D4146EB060690
:1005F80042EAC62141EA55514FEAC52040EA5E5019
:100608004FEACE2EB4F1FD0C88BFBCF5E06F1ED8C2
:10061800BEF1004F08BF5FEA500E50F1000041EBF9
:10062800045170BD06F0004646EA010140EA0200A6
:1006380081EA0301B4EB5C04C2BFD4EB0C0541EAC8
:10064800045170BD41F480114FF0000E013C00F3DD
:10065800AB8014F1360FDEBF002001F0004170BD01
:10066800C4F10004203C35DA0C341BDC04F114041A
:10067800C4F1200500FA05F320FA04F001FA05F2A6
:1006880040EA020001F0004221F0004110EBD37073
:1006980021FA04F642EB06015EEA430E08BF20EA9F
:1006A800D37070BDC4F10C04C4F1200500FA04F342
:1006B80020FA05F001FA04F240EA020001F00041D4
:1006C80010EBD37041F100015EEA430E08BF20EA47
:1006D800D37070BDC4F1200500FA05F24EEA020E8F
:1006E80020FA04F301FA05F243EA020321FA04F0BE
:1006F80001F0004121FA04F220EA020000EBD37075
:100708005EEA430E08BF20EAD37070BD94F0000F74
:100718000FD101F00046400041EB010111F4801FA8
:1007280008BF013CF7D041EA060195F0000F18BF59
:10073800704703F00046520043EB030313F4801F95
:1007480008BF013DF7D043EA0603704794EA0C0F4F
:100758000CEA135518BF95EA0C0F0CD050EA410665
:1007680018BF52EA4306D1D181EA030101F00041E2
:100778004FF0000070BD50EA410606BF104619460A
:1007880052EA430619D094EA0C0F02D150EA013616
:1007980013D195EA0C0F05D152EA03361CBF104657
:1007A80019460AD181EA030101F0004141F0FE41F6
:1007B80041F470014FF0000070BD41F0FE4141F47A
:1007C800780170BD70B54FF0FF0C4CF4E06C1CEA7A
:1007D80011541DBF1CEA135594EA0C0F95EA0C0F2F
:1007E80000F0A7F8A4EB050481EA030E52EA0335EA
:1007F8004FEA013100F088804FEA03334FF080550B
:1008080045EA131343EA12634FEA022245EA111537
:1008180045EA10654FEA00260EF000419D4208BFE8
:10082800964244F1FD0404F5407402D25B084FEA95
:100838003202B61A65EB03055B084FEA32024FF441
:1008480080104FF4002CB6EB020E75EB030E22BF9E
:10085800B61A754640EA0C005B084FEA3202B6EB5E
:10086800020E75EB030E22BFB61A754640EA5C000D
:100878005B084FEA3202B6EB020E75EB030E22BF9D
:10088800B61A754640EA9C005B084FEA3202B6EB9E
:10089800020E75EB030E22BFB61A754640EADC005D
:1008A80055EA060E18D04FEA051545EA16754FEABF
:1008B80006164FEAC30343EA52734FEAC2025FEADD
:1008C8001C1CC0D111F4801F0BD141EA00014FF06C
:1008D80000004FF0004CB6E711F4801F04BF01433D
:1008E8000020B4F1FD0C88BFBCF5E06F3FF6AFAE59
:1008F800B5EB030C04BFB6EB020C5FEA500C50F1E9
:10090800000041EB045170BD0EF0004E4EEA11316B
:1009180014EB5C04C2BFD4EB0C0541EA045170BD72
:1009280041F480114FF0000E013C90E645EA060EB6
:100938008DE60CEA135594EA0C0F08BF95EA0C0FE4
:100948003FF43BAF94EA0C0F0AD150EA01347FF42C
:1009580034AF95EA0C0F7FF425AF104619462CE703
:1009680095EA0C0F06D152EA03353FF4FDAE104666
:10097800194622E750EA410618BF52EA43067FF4B7
:10098800C5AE50EA41047FF40DAF52EA43057FF447
:10099800EBAE12E753B94AB9002908BF00281CBFBB
:1009A8004FF0FF314FF0FF3000F07AB9ADF1080C8D
:1009B8006DE904CE00F006F8DDF804E0DDE9022375
:1009C80004B070472DE9F0478C460D460446089E52
:1009D800002B51D18A4217466DD9B2FA82FEBEF178
:1009E800000F0BD0CEF1200C01FA0EF520FA0CFC0A
:1009F80002FA0EF74CEA050C00FA0EF44FEA174A11
:100A0800250CBCFBFAF81FFA87F90AFB18CC45EA53
:100A18000C4508FB09F3AB420AD9ED1908F1FF327E
:100A280080F02381AB4240F22081A8F102083D44C6
:100A3800ED1AA4B2B5FBFAF00AFB105544EA0544D6
:100A480000FB09F9A14509D9E41900F1FF3380F049
:100A58000A81A14540F2078102383C44A4EB09040D
:100A680040EA08400021002E61D024FA0EF4002349
:100A780034607360BDE8F0878B4207D9002E54D0EC
:100A8800002186E821000846BDE8F087B3FA83F123
:100A9800002940F08E80AB4202D3824200F2FA80F5
:100AA800841A65EB03050120AC46002E3FD086E88A
:100AB8001010BDE8F08712B90127B7FBF2F7B7FAB3
:100AC80087FEBEF1000F34D1EB1B3A0C1FFA87FCEE
:100AD8000121B3FBF2F8250C02FB183345EA034564
:100AE8000CFB08F3AB4207D9ED1908F1FF3002D22D
:100AF800AB4200F2D1808046ED1AA3B2B5FBF2F00A
:100B080002FB105543EA05440CFB00FCA44507D939
:100B1800E41900F1FF3302D2A44500F2B880184668
:100B2800A4EB0C0440EA08409DE731463046BDE896
:100B3800F087CEF1200405FA0EF307FA0EF720FA33
:100B480004F83A0C25FA04F448EA0308B4FBF2F175
:100B58004FEA184502FB11441FFA87FC45EA044591
:100B680001FB0CF3AB4200FA0EF409D9ED1901F1BF
:100B7800FF3080F08A80AB4240F2878002393D44E2
:100B8800EB1A1FFA88F5B3FBF2F002FB103345EAC3
:100B9800034500FB0CF3AB4207D9ED1900F1FF3810
:100BA8006FD2AB426DD902383D44EB1A40EA01419D
:100BB8008FE7C1F1200722FA07F88B4005FA01F404
:100BC80048EA030320FA07FE4FEA134CFD404EEAB9
:100BD800040EB5FBFCF94FEA1E440CFB19551FFA2D
:100BE80083F844EA054509FB08F4AC4202FA01F22D
:100BF80000FA01FA08D9ED1809F1FF3043D2AC42E6
:100C080041D9A9F102091D442D1B1FFA8EFEB5FB1F
:100C1800FCF00CFB10554EEA054400FB08F8A04513
:100C280007D9E41800F1FF3529D2A04527D90238A1
:100C38001C4440EA0940A4EB0804A0FB02894C4587
:100C4800C6464D4615D312D056B1BAEB0E0364EB27
:100C5800050404FA07F7CB401F43CC4037607460A3
:100C68000021BDE8F0871846F8E69046E0E6C24560
:100C7800EAD2B8EB020E69EB03050138E4E728462F
:100C8800D7E7404691E78146BEE7014678E7023854
:100C98003C4445E7084608E7A8F102083D442BE72D
:100CA800704700BF0000000090B583B000AF00F0AF
:100CB80067FA00F081F800F081F900F02DF900F0F2
:100CC800D7F8354800F020FB322000F0B7FA324858
:100CD80000F0E8FB78607B6840F6E44202FB03F32F
:100CE8001B0B2E4A13602E4800F00EFB2C4800F018
:100CF800D9FB02462B4B1A602A4B1B6807EE903A29
:100D0800F8EE677A17EE900AFFF7DEFB1CA3D3E92B
:100D18000023FFF72DFC03460C46184621461AA36C
:100D2800D3E90023FFF74EFD03460C46184621463B
:100D380017A3D3E90023FFF767FA03460C461846C2
:100D480021464FF00002184BFFF73CFD03460C46C6
:100D5800184621464FF00002144BFFF733FD0346B7
:100D68000C46184621464FF00002114BFFF74EFA89
:100D780003460C460F4A82E81800A2E7AFF300804A
:100D88006666666666660A400000000000CAAF40F4
:100D980052B81E85EB51E83F3C0000202C00002093
:100DA80084000020380000200000044000408F40EC
:100DB800000039403000002080B594B000AF07F142
:100DC800200330220021184601F0E0FC07F10C0353
:100DD80000221A605A609A60DA601A61224A224B2D
:100DE8001B6C43F0805313641F4B1B6C03F0805340
:100DF800BB60BB681D4A1D4B1B6823F4404343F48A
:100E080080431360194B1B6803F440437B607B6885
:100E180002233B620123FB6210233B630023BB6375
:100E280007F12003184601F01DF80346002B01D0F6
:100E380000F0EEF80F23FB6000233B6100237B6189
:100E48000023BB610023FB6107F10C030021184656
:100E580001F0ACFA0346002B01D000F0D9F800BF2E
:100E68005037BD4680BD00BF0038024000700040CA
:100E780080B584B000AF3B4600221A605A609A6081
:100E8800DA60214B214A1A601F4B00225A601E4B20
:100E980000229A601C4B00221A611B4B00229A61A7
:100EA800194B002283F82020174B0022DA62164BD8
:100EB800174A9A62144B0022DA60134B0122DA6156
:100EC800114B002283F830200F4B01225A610E4843
:100ED80000F0D6F90346002B01D000F099F80D4B2D
:100EE8003B6001237B600023BB603B4619460648F4
:100EF80000F0E6FA0346002B01D000F089F800BFA5
:100F08001037BD4680BD00BF84000020002001408E
:100F18000100000F1200001080B584B000AF3B46FE
:100F280000221A605A609A60DA60214B214A1A60DE
:100F38001F4B00225A601E4B00229A601C4B002255
:100F48001A611B4B00229A61194B002283F820205A
:100F5800174B0022DA62164B174A9A62144B00228A
:100F6800DA60134B0122DA61114B002283F830203A
:100F78000F4B01225A610E4800F082F90346002BFC
:100F880001D000F045F803233B6001237B60002378
:100F9800BB603B461946064800F092FA0346002B10
:100FA80001D000F035F800BF1037BD4680BD00BF46
:100FB8003C000020002101400100000F80B586B0F0
:100FC80000AF3B1D00221A605A609A60DA601A610D
:100FD8000D4A0D4B1B6B43F0010313630A4B1B6B4C
:100FE80003F001033B603B6808237B600323BB607D
:100FF8000023FB603B1D1946044800F089FD00BF33
:101008001837BD4680BD00BF0038024000000240CE
:1010180080B400AF72B6FEE780B483B000AF0F4A69
:101028000E4B1B6C43F0805313640C4B1B6C03F08A
:1010380080537B607B68094A084B5B6C43F48043B0
:101048005364064B5B6C03F480433B603B6800BF12
:101058000C37BD465DF8047B704700BF003802407E
:1010680080B58AB000AF786007F1140300221A60D7
:101078005A609A60DA601A617B681B681E4A93425C
:101088000CD11E4A1D4B5B6C43F4807353641B4B9D
:101098005B6C03F480733B613B6928E07B681B68E9
:1010A800174A934223D1154A144B5B6C43F40073DF
:1010B8005364124B5B6C03F40073FB60FB680F4ACC
:1010C8000E4B1B6B43F0010313630C4B1B6B03F0BC
:1010D8000103BB60BB6808237B610323BB6100235A
:1010E800FB6107F114031946064800F011FD00BF23
:1010F8002837BD4680BD00BF0020014000380240AF
:10110800002101400000024080B400AFFEE780B437
:1011180000AFFEE780B400AFFEE780B400AFFEE7A3
:1011280080B400AFFEE780B400AF00BFBD465DF8F5
:10113800047B704780B400AF00BFBD465DF8047BF8
:10114800704780B400AF00BFBD465DF8047B7047B0
:1011580080B500AF00F052F800BF80BD80B400AF8A
:10116800064A064BD3F8883043F47003C2F8883037
:1011780000BFBD465DF8047B704700BF00ED00E08E
:1011880080B500AF032000F08FFC002000F006F8C7
:10119800FFF742FF0023184680BD000080B582B0EB
:1011A80000AF7860124B1A68124B1B7819464FF43F
:1011B8007A73B3FBF1F3B2FBF3F3184600F09BFC30
:1011C8000346002B01D001230EE07B680F2B0AD8C1
:1011D800002279684FF0FF3000F071FC064A7B6806
:1011E8001360002300E0012318460837BD4680BD80
:1011F80000000020080000200400002080B400AF98
:10120800064B1B781A46064B1B681344044A1360A6
:1012180000BFBD465DF8047B704700BF0800002092
:10122800CC00002080B400AF034B1B681846BD46B5
:101238005DF8047B704700BFCC00002080B584B007
:1012480000AF7860FFF7EEFFB8607B68FB60FB6873
:10125800B3F1FF3F05D0094B1B781A46FB681344CE
:10126800FB6000BFFFF7DEFF0246BB68D21AFB68CF
:101278009A42F7D300BF1037BD4680BD0800002052
:1012880080B584B000AF78600023FB737B68002BC7
:1012980001D1012331E07B681B6C002B09D17868F0
:1012A800FFF7DEFE7B6800225A647B68002283F821
:1012B8003C207B681B6C03F01003002B16D17B6865
:1012C8001A6C104B134043F002027B681A6478686A
:1012D80000F040FA7B6800225A647B681B6C23F09C
:1012E800030343F001027B681A6401E00123FB73E6
:1012F8007B68002283F83C20FB7B18461037BD46EC
:1013080080BD00BFFDEEFFFF80B485B000AF786000
:101318000023FB607B6893F83C30012B01D102234A
:10132800ADE07B68012283F83C207B681B689B68E2
:1013380003F00103012B18D07B681B687A681268D8
:10134800926842F001029A60504B1B68504AA2FB17
:1013580003239A0C13465B001344FB6002E0FB680E
:10136800013BFB60FB68002BF9D17B681B689B681D
:1013780003F00103012B75D17B681A6C454B1340B0
:1013880043F480727B681A647B681B685B6803F4AB
:101398008063002B07D07B681B6C23F4405343F415
:1013A80080527B681A647B681B6C03F48053B3F526
:1013B800805F06D17B685B6C23F006027B685A6409
:1013C80002E07B6800225A647B68002283F83C2094
:1013D8007B681B686FF022021A602F4B5B6803F072
:1013E8001F03002B0FD17B681B689B6803F04053D9
:1013F800002B43D17B681B687A681268926842F0B8
:1014080080429A603AE07B681B68244A93420ED176
:101418007B681B689B6803F04053002B07D17B68EF
:101428001B687A681268926842F080429A601A4B88
:101438005B6803F01003002B20D17B681B68184AF7
:1014480093421BD17B681B689B6803F04053002BB9
:1014580014D17B681B687A681268926842F08042EF
:101468009A600BE07B681B6C43F010027B681A647F
:101478007B685B6C43F001027B685A640023184662
:101488001437BD465DF8047B704700BF000000209C
:1014980083DE1B43FEF8FFFF0023014000200140CC
:1014A8000022014080B483B000AF78607B681B687D
:1014B800DB6C18460C37BD465DF8047B70470000AE
:1014C80090B484B000AF786039600023FB607B681B
:1014D80093F83C30012B01D102232CE17B680122D7
:1014E80083F83C203B681B68092B3BD93B681B6889
:1014F800B3F1004F36D07B681A687B681B68D968DF
:101508003B681B689BB2184603465B0003441E3BBE
:10151800072000FA03F3DB430B40D3603B681B68EA
:10152800874A93420AD17B681B687A681268D16837
:101538003A68926812060A43DA6037E07B681A68EC
:101548007B681B68D9683B6898683B681B689BB2D6
:101558001C4623465B0023441E3B00FA03F30B435F
:10156800D36023E07B681A687B681B6819693B684D
:101578001B689BB2184603465B000344072000FA29
:1015880003F3DB430B4013617B681A687B681B68B5
:1015980019693B6898683B681B689BB21C462346E0
:1015A8005B00234400FA03F30B4313613B685B6859
:1015B800062B24D87B6819687B681B68586B3B68C6
:1015C8005A6813469B001344053B1F2202FA03F393
:1015D800DB4303404B637B6819687B681B68586B67
:1015E8003B681B689BB21C463B685A6813469B00C5
:1015F8001344053B04FA03F303434B634CE03B6895
:101608005B680C2B24D87B6819687B681B68186B8F
:101618003B685A6813469B001344233B1F2202FA77
:1016280003F3DB4303400B637B6819687B681B6823
:10163800186B3B681B689BB21C463B685A6813468C
:101648009B001344233B04FA03F303430B6323E097
:101658007B6819687B681B68D86A3B685A681346B8
:101668009B001344413B1F2202FA03F3DB43034070
:10167800CB627B6819687B681B68D86A3B681B6803
:101688009BB21C463B685A6813469B001344413B77
:1016980004FA03F30343CB627B681B68294A93422D
:1016A8000AD13B681B68B3F1004F05D1264A264B87
:1016B8005B6823F4400353607B681B68214A9342AC
:1016C80009D13B681B68122B05D11F4A1E4B5B686A
:1016D80043F4800353607B681B681A4A934225D100
:1016E8003B681B68164A934203D03B681B68112B62
:1016F8001CD1154A144B5B6843F4000353603B68E4
:101708001B680F4A934211D1104B1B68104AA2FB69
:1017180003239A0C13469B0013445B00FB6002E012
:10172800FB68013BFB60FB68002BF9D17B6800225A
:1017380083F83C20002318461037BD4690BC7047FC
:10174800120000100020014000230140000000208A
:1017580083DE1B4380B483B000AF7860784A784B4F
:101768005B6823F4403353607549754B5A687B684E
:101778005B6813434B607B681B687A681268526821
:1017880022F480725A607B681B687A681268516814
:101798007A68126912020A435A607B681B687A6881
:1017A8001268526822F040725A607B681B687A6837
:1017B800126851687A6892680A435A607B681B68A5
:1017C8007A681268926822F400629A607B681B68E3
:1017D8007A68126891687A68D2680A439A607B6866
:1017E8009B6A584A934222D07B681B687A681268C1
:1017F800926822F070629A607B681B687A68126847
:1018080091687A68926A0A439A607B681B687A686A
:101818001268926822F040529A607B681B687A6866
:10182800126891687A68D26A0A439A600FE07B6806
:101838001B687A681268926822F070629A607B6806
:101848001B687A681268926822F040529A607B6836
:101858001B687A681268926822F002029A607B68B4
:101868001B687A68126891687A68926952000A431C
:101878009A607B6893F82030002B1BD07B681B682C
:101888007A681268526842F400625A607B681B6882
:101898007A681268526822F460425A607B681B6852
:1018A8007A68126851687A68526A013A52030A43A0
:1018B8005A6007E07B681B687A681268526822F4ED
:1018C80000625A607B681B687A681268D26A22F4E0
:1018D8007002DA627B681B687A681268D16A7A6873
:1018E800D269013A12050A43DA627B681B687A6892
:1018F8001268926822F400729A607B681B687A68A2
:10190800126891687A6892F8302052020A439A6005
:101918007B681B687A681268926822F480629A6011
:101928007B681B687A68126891687A6852699202C3
:101938000A439A6000BF0C37BD465DF8047B7047C8
:10194800002301400100000F80B485B000AF78602B
:101958007B6803F00703FB600B4BDB68BB60BA686E
:101968004FF6FF031340BB60FB681A02BB681A43BB
:10197800064B1343BB60044ABB68D36000BF1437EF
:10198800BD465DF8047B704700ED00E00000FA05F5
:1019980080B400AF044BDB681B0A03F0070318464A
:1019A800BD465DF8047B704700ED00E080B483B06D
:1019B80000AF03463960FB7197F90730002B0ADB4B
:1019C8000D4997F907303A68D2B21201D2B20B44E6
:1019D80083F800230AE00949FB7903F00F03043B6D
:1019E8003A68D2B21201D2B20B441A7600BF0C3751
:1019F800BD465DF8047B704700E100E000ED00E0C3
:101A080080B489B000AFF860B9607A60FB6803F011
:101A18000703FB61FB69C3F10703042B28BF0423F9
:101A2800BB61FB690433062B02D9FB69033B00E069
:101A380000237B610122BB6902FA03F35A1EBB68CB
:101A48001A407B699A4001217B6901FA03F3591E08
:101A58007B680B40134318462437BD465DF8047B6A
:101A68007047000080B582B000AF78607B68013BAA
:101A7800B3F1807F01D301230FE00A4A7B68013B61
:101A880053600F214FF0FF30FFF790FF054B002206
:101A98009A60044B07221A60002318460837BD468F
:101AA80080BD00BF10E000E080B582B000AF786074
:101AB8007868FFF749FF00BF0837BD4680BD80B58D
:101AC80086B000AF0346B9607A60FB7300237B6180
:101AD800FFF75EFF78617A68B9687869FFF790FF69
:101AE800024697F90F3011461846FFF75FFF00BF0F
:101AF8001837BD4680BD80B582B000AF7860786881
:101B0800FFF7B0FF034618460837BD4680BD000002
:101B180080B489B000AF786039600023FB6100238E
:101B28007B6100233B610023BB610023FB6175E1FE
:101B38000122FB6902FA03F37B613B681A687B693F
:101B480013403B613A697B699A4240F064813B6883
:101B58005B68012B0BD03B685B68022B07D03B68A6
:101B68005B68112B03D03B685B68122B30D17B6814
:101B78009B68BB61FB695B00032202FA03F3DB434A
:101B8800BA691340BB613B68DA68FB695B0002FA1B
:101B980003F3BA691343BB617B68BA699A607B68CF
:101BA8005B68BB610122FB6902FA03F3DB43BA6994
:101BB8001340BB613B685B681B0903F00102FB69CA
:101BC80002FA03F3BA691343BB617B68BA695A60C6
:101BD8007B68DB68BB61FB695B00032202FA03F3E5
:101BE800DB43BA691340BB613B689A68FB695B00D9
:101BF80002FA03F3BA691343BB617B68BA69DA6016
:101C08003B685B68022B03D03B685B68122B23D1CF
:101C1800FB69DA087B68083253F82230BB61FB693C
:101C280003F007039B000F2202FA03F3DB43BA69B0
:101C38001340BB613B681A69FB6903F007039B000B
:101C480002FA03F3BA691343BB61FB69DA087B68DC
:101C58000832B96943F822107B681B68BB61FB69CD
:101C68005B00032202FA03F3DB43BA691340BB614A
:101C78003B685B6803F00302FB695B0002FA03F34D
:101C8800BA691343BB617B68BA691A603B685B68D1
:101C980003F08053002B00F0BE80654A644B5B6CF8
:101CA80043F480435364624B5B6C03F48043FB60F2
:101CB800FB68604AFB699B08023352F82330BB611A
:101CC800FB6903F003039B000F2202FA03F3DB43D3
:101CD800BA691340BB617B68574A934237D07B6827
:101CE800564A934231D07B68554A93422BD07B6841
:101CF800544A934225D07B68534A93421FD07B684D
:101D0800524A934219D07B68514A934213D07B6858
:101D1800504A93420DD07B684F4A934207D07B6864
:101D28004E4A934201D1092312E00A2310E0082306
:101D38000EE007230CE006230AE0052308E004234D
:101D480006E0032304E0022302E0012300E000236D
:101D5800FA6902F0030292009340BA691343BB6127
:101D68003449FB699B080233BA6941F823203C4B8C
:101D78001B68BB613B69DB43BA691340BB613B68C5
:101D88005B6803F48033002B03D0BA693B691343C3
:101D9800BB61334ABB691360314B5B68BB613B690C
:101DA800DB43BA691340BB613B685B6803F40033EB
:101DB800002B03D0BA693B691343BB61284ABB694E
:101DC8005360274B9B68BB613B69DB43BA6913408F
:101DD800BB613B685B6803F48013002B03D0BA69CE
:101DE8003B691343BB611E4ABB6993601C4BDB68AC
:101DF800BB613B69DB43BA691340BB613B685B6805
:101E080003F40013002B03D0BA693B691343BB6189
:101E1800134ABB69D360FB690133FB61FB690F2B74
:101E28007FF686AE00BF2437BD465DF8047B704759
:101E3800003802400038014000000240000402401F
:101E480000080240000C024000100240001402404A
:101E580000180240001C02400020024000240240FA
:101E6800003C014080B586B000AF78600023FB7568
:101E78007B68002B01D1012391E27B681B6803F08A
:101E88000103002B00F08780964B9B6803F00C033E
:101E9800042B0CD0934B9B6803F00C03082B12D136
:101EA800904B5B6803F48003B3F5800F0BD18D4B27
:101EB8001B6803F40033002B6CD07B685B68002B35
:101EC80068D101236BE27B685B68B3F5803F06D17C
:101ED800844A844B1B6843F4803313602EE07B688C
:101EE8005B68002B0CD17F4A7E4B1B6823F4803340
:101EF80013607C4A7B4B1B6823F4802313601DE02E
:101F08007B685B68B3F5A02F0CD1764A754B1B68CC
:101F180043F480231360734A724B1B6843F4803385
:101F280013600BE06F4A6F4B1B6823F48033136018
:101F38006C4A6C4B1B6823F4802313607B685B68D6
:101F4800002B13D0FFF76EF9386108E0FFF76AF944
:101F580002463B69D31A642B01D903231FE2614B64
:101F68001B6803F40033002BF0D014E0FFF75AF994
:101F7800386108E0FFF756F902463B69D31A642B2B
:101F880001D903230BE2574B1B6803F40033002BE2
:101F9800F0D100E000BF7B681B6803F00203002B50
:101FA80069D0504B9B6803F00C03002B0BD04D4BB2
:101FB8009B6803F00C03082B1CD14A4B5B6803F4A5
:101FC8008003002B16D1474B1B6803F00203002B3C
:101FD80005D07B68DB68012B01D00123DFE1414993
:101FE800404B1B6823F0F8027B681B69DB00134336
:101FF8000B6040E07B68DB68002B23D0394A394B03
:102008001B6843F001031360FFF70CF9386108E01F
:10201800FFF708F902463B69D31A022B01D90323BB
:10202800BDE1304B1B6803F00203002BF0D02D49B3
:102038002C4B1B6823F0F8027B681B69DB001343F9
:102048000B6018E0274A274B1B6823F00103136035
:10205800FFF7E8F8386108E0FFF7E4F802463B6963
:10206800D31A022B01D9032399E11E4B1B6803F0F5
:102078000203002BF0D17B681B6803F00803002BD8
:1020880038D07B685B69002B19D0164A154B5B6FFB
:1020980043F001035367FFF7C5F8386108E0FFF71D
:1020A800C1F802463B69D31A022B01D9032376E112
:1020B8000C4B5B6F03F00203002BF0D01AE0094AC7
:1020C800084B5B6F23F001035367FFF7ABF83861E8
:1020D8000AE0FFF7A7F802463B69D31A022B03D997
:1020E80003235CE100380240914B5B6F03F002036D
:1020F800002BEED17B681B6803F00403002B00F073
:10210800A4808B4B1B6C03F08053002B0DD1884AA5
:10211800874B1B6C43F080531364854B1B6C03F097
:102128008053BB60BB680123FB75824B1B6803F4BB
:102138008073002B18D17F4A7E4B1B6843F4807351
:102148001360FFF76FF8386108E0FFF76BF8024695
:102158003B69D31A642B01D9032320E1754B1B6813
:1021680003F48073002BF0D07B689B68012B06D1A9
:102178006F4A6F4B1B6F43F0010313672DE07B68B9
:102188009B68002B0CD16A4A694B1B6F23F0010333
:102198001367674A664B1B6F23F0040313671CE041
:1021A8007B689B68052B0CD1614A614B1B6F43F020
:1021B800040313675E4A5E4B1B6F43F0010313670A
:1021C8000BE05B4A5A4B1B6F23F001031367584A15
:1021D800574B1B6F23F0040313677B689B68002B26
:1021E80015D0FFF71FF838610AE0FFF71BF8024621
:1021F8003B69D31A41F28832934201D90323CEE0D6
:102208004B4B1B6F03F00203002BEED014E0FFF7DB
:1022180009F838610AE0FFF705F802463B69D31A66
:1022280041F28832934201D90323B8E0404B1B6F37
:1022380003F00203002BEED1FB7D012B05D13C4AB4
:102248003B4B1B6C23F0805313647B689B69002B0A
:1022580000F0A480364B9B6803F00C03082B6BD06E
:102268007B689B69022B49D1314A314B1B6823F0AB
:1022780080731360FEF7D6FF386108E0FEF7D2FFDF
:1022880002463B69D31A022B01D9032387E0284B66
:102298001B6803F00073002BF0D125497B68DA69CD
:1022A8007B681B6A1A437B685B6A9B011A437B68DD
:1022B8009B6A5B08013B1B041A437B68DB6A1B06AD
:1022C800134343F000534B60194A194B1B6843F002
:1022D80080731360FEF7A6FF386108E0FEF7A2FFDF
:1022E80002463B69D31A022B01D9032357E0104B4E
:1022F8001B6803F00073002BF0D04FE00C4A0C4B26
:102308001B6823F080731360FEF78CFF386108E0C8
:10231800FEF788FF02463B69D31A022B01D9032333
:102328003DE0034B1B6803F00073002BF0D135E050
:1023380000380240007000401B4B5B68FB607B6804
:102348009B69012B28D0FB6803F480027B68DB695A
:102358009A4221D1FB6803F03F027B681B6A9A42CC
:102368001AD1FA6847F6C07313407A68526A920124
:10237800934211D1FB6803F440327B689B6A5B0887
:10238800013B1B049A4207D1FB6803F070627B682B
:10239800DB6A1B069A4201D0012300E0002318469D
:1023A8001837BD4680BD00BF0038024080B584B0F4
:1023B80000AF786039600023FB607B68002B01D197
:1023C8000123D0E06A4B1B6803F00F023B689A4276
:1023D80010D26749664B1B6823F00F023B68134312
:1023E8000B60634B1B6803F00F023B689A4201D0F5
:1023F8000123B8E07B681B6803F00203002B20D0A0
:102408007B681B6803F00403002B05D0594A594B1D
:102418009B6843F4E05393607B681B6803F00803F0
:10242800002B05D0534A534B9B6843F46043936099
:102438005049504B9B6823F0F0027B689B6813431C
:102448008B607B681B6803F00103002B40D07B681E
:102458005B68012B07D1474B1B6803F40033002B43
:1024680015D101237FE07B685B68022B07D1414BC4
:102478001B6803F00073002B09D1012373E03D4B67
:102488001B6803F00203002B01D101236BE03949DB
:10249800384B9B6823F003027B685B6813438B60AF
:1024A800FEF7C0FEF8600AE0FEF7BCFE0246FB68D5
:1024B800D31A41F28832934201D9032353E02D4BBA
:1024C8009B6803F00C027B685B689B009A42EBD127
:1024D800274B1B6803F00F023B689A4210D9244926
:1024E800234B1B6823F00F023B6813430B60204B00
:1024F8001B6803F00F023B689A4201D0012332E0C7
:102508007B681B6803F00403002B08D01949194B9A
:102518009B6823F4E0527B68DB6813438B607B681D
:102528001B6803F00803002B09D01249114B9B6864
:1025380023F460427B681B69DB0013438B6000F067
:1025480021F801460B4B9B681B0903F00F030A4A4D
:10255800D35C21FA03F3094A1360094B1B68184638
:10256800FEF71CFE002318461037BD4680BD00BF8D
:10257800003C024000380240BC2700080000002050
:10258800040000202DE9F04F87B000AF0022FA6068
:1025980000227A610022BA6000223A61514A9268A8
:1025A80002F00C02042A07D0082A08D0002A40F0BA
:1025B80090804D4B3B618FE04C4B3B618CE0494A2E
:1025C800526802F03F02FA60464A526802F48002FA
:1025D800002A23D0434B5B689B094FF0000440F26C
:1025E800FF114FF0000203EA010304EA02043F4A24
:1025F80002FB04F1002202FB03F20A443B49A3FB5D
:10260800010153181946FB684FF000041A46234687
:10261800FEF7C0F903460C467B614CE0314A52682C
:10262800920911464FF0000240F2FF154FF00006E4
:1026380005EA010506EA0206294632464FEA421B28
:102648004BEAD16B4FEA411A51465A46AA46B3465D
:1026580055465E464D1B62EB0606294632469401F6
:1026680044EA91648B015B1A64EB02044FEAC409E3
:1026780049EA53794FEAC30843464C4655465E46F5
:10268800ED1846EB04062B463446A2027A607A68B7
:1026980042EA93527A609B023B6097E8180018461A
:1026A8002146FB684FF000041A462346FEF772F9EC
:1026B80003460C467B610B4B5B681B0C03F0030362
:1026C80001335B00BB607A69BB68B2FBF3F33B6123
:1026D80002E0054B3B6100BF3B6918461C37BD460D
:1026E800BDE8F08F003802400024F40040787D01F6
:1026F800DFF834D00D480E490E4A002302E0D458C2
:10270800C4500433C4188C42F9D30B4A0B4C002331
:1027180001E013600432A242FBD3FEF71FFD00F074
:1027280011F8FEF7C1FA70470000052000000020EC
:102738000C000020DC27000810000020D00000203A
:10274800FEE7000070B50D4E0D4CA41BA41000252B
:10275800A54209D10B4E0C4C00F020F8A41BA41084
:102768000025A54205D170BD56F82530984701359A
:10277800EEE756F8253098470135F2E7D4270008E8
:10278800D4270008D4270008D827000802440346A5
:10279800934200D1704703F8011BF9E7F8B500BF71
:1027A800F8BC08BC9E467047F8B500BFF8BC08BC2A
:0427B8009E46704782
:1027BC0000000000000000000102030406070809E5
:0827CC0000E2FF7F01000000A4
:0427D400ED0100080B
:0427D800C90100082B
:0C27DC000024F4001000000001000000C8
:04000005080026F9D0
:00000001FF
