:020000040800F2
:1000000000000520DD320008990F00089F0F00084E
:10001000A50F0008AB0F0008B10F0008000000009A
:10002000000000000000000000000000B70F000802
:10003000C50F000800000000D30F0008E10F000802
:100040002D3300082D3300082D3300082D33000810
:100050002D3300082D3300082D3300082D33000800
:100060002D3300082D3300082D3300082D330008F0
:100070002D3300082D3300082D3300082D330008E0
:100080002D3300082D3300082D3300082D330008D0
:100090002D3300082D3300082D3300082D330008C0
:1000A0002D3300082D3300082D3300082D330008B0
:1000B0002D3300082D330008ED0F00082D33000804
:1000C0002D3300082D3300082D3300082D33000890
:1000D0002D3300082D3300082D3300082D33000880
:1000E0002D3300082D3300082D33000801100008BF
:1000F0002D3300082D3300082D3300082D33000860
:100100002D3300082D3300082D3300082D3300084F
:100110002D3300082D3300082D3300082D3300083F
:100120002D3300082D3300082D3300082D3300082F
:100130002D3300082D3300082D3300082D3300081F
:100140002D3300082D3300082D3300082D3300080F
:100150002D3300082D3300082D3300082D330008FF
:100160002D3300082D3300082D3300082D330008EF
:100170002D3300082D3300082D3300082D330008DF
:100180002D3300082D3300082D3300082D330008CF
:100190002D3300082D3300082D3300082D330008BF
:1001A0002D3300082D3300082D3300082D330008AF
:1001B0002D3300082D3300082D3300082D3300089F
:0801C0002D3300082D33000867
:1001C80010B5054C237833B9044B13B10448AFF389
:1001D80000800123237010BD0C00002000000000E7
:1001E8008833000808B5034B1BB103490348AFF334
:1001F800008008BD000000001000002088330008BF
:1002080053B94AB9002908BF00281CBF4FF0FF3175
:100218004FF0FF3000F07AB9ADF1080C6DE904CE6B
:1002280000F006F8DDF804E0DDE9022304B07047C9
:100238002DE9F0478C460D460446089E002B51D107
:100248008A4217466DD9B2FA82FEBEF1000F0BD072
:10025800CEF1200C01FA0EF520FA0CFC02FA0EF78A
:100268004CEA050C00FA0EF44FEA174A250CBCFBC1
:10027800FAF81FFA87F90AFB18CC45EA0C4508FB7F
:1002880009F3AB420AD9ED1908F1FF3280F0238156
:10029800AB4240F22081A8F102083D44ED1AA4B215
:1002A800B5FBFAF00AFB105544EA054400FB09F9CE
:1002B800A14509D9E41900F1FF3380F00A81A1456D
:1002C80040F2078102383C44A4EB090440EA0840A4
:1002D8000021002E61D024FA0EF4002334607360EC
:1002E800BDE8F0878B4207D9002E54D0002186E85C
:1002F80021000846BDE8F087B3FA83F1002940F0F1
:100308008E80AB4202D3824200F2FA80841A65EBF7
:1003180003050120AC46002E3FD086E81010BDE84A
:10032800F08712B90127B7FBF2F7B7FA87FEBEF1DB
:10033800000F34D1EB1B3A0C1FFA87FC0121B3FBE9
:10034800F2F8250C02FB183345EA03450CFB08F3C9
:10035800AB4207D9ED1908F1FF3002D2AB4200F2E7
:10036800D1808046ED1AA3B2B5FBF2F002FB10551E
:1003780043EA05440CFB00FCA44507D9E41900F145
:10038800FF3302D2A44500F2B8801846A4EB0C044F
:1003980040EA08409DE731463046BDE8F087CEF197
:1003A800200405FA0EF307FA0EF720FA04F83A0CBF
:1003B80025FA04F448EA0308B4FBF2F14FEA1845B9
:1003C80002FB11441FFA87FC45EA044501FB0CF3C4
:1003D800AB4200FA0EF409D9ED1901F1FF3080F0B3
:1003E8008A80AB4240F2878002393D44EB1A1FFAFB
:1003F80088F5B3FBF2F002FB103345EA034500FB36
:100408000CF3AB4207D9ED1900F1FF386FD2AB42BC
:100418006DD902383D44EB1A40EA01418FE7C1F13A
:10042800200722FA07F88B4005FA01F448EA03038B
:1004380020FA07FE4FEA134CFD404EEA040EB5FBC6
:10044800FCF94FEA1E440CFB19551FFA83F844EADD
:10045800054509FB08F4AC4202FA01F200FA01FA78
:1004680008D9ED1809F1FF3043D2AC4241D9A9F1BE
:1004780002091D442D1B1FFA8EFEB5FBFCF00CFB78
:1004880010554EEA054400FB08F8A04507D9E418C2
:1004980000F1FF3529D2A04527D902381C4440EA8B
:1004A8000940A4EB0804A0FB02894C45C6464D460A
:1004B80015D312D056B1BAEB0E0364EB050404FA57
:1004C80007F7CB401F43CC40376074600021BDE87C
:1004D800F0871846F8E69046E0E6C245EAD2B8EB5F
:1004E800020E69EB03050138E4E72846D7E74046E2
:1004F80091E78146BEE7014678E702383C4445E784
:10050800084608E7A8F102083D442BE7704700BFFA
:1005180080B500AF062000F0EDFD01224FF48061A8
:10052800084801F019FC052000F0E4FD00224FF412
:100538008061044801F010FC012000F0DBFD00BFE1
:1005480080BD00BF0010024080B582B000AF0346F6
:10055800FB71FB79DB09DBB21A464FF480612E4848
:1005680001F0FAFBFB799B09DBB203F00103DBB274
:100578001A464FF40041294801F0EEFBFB795B096C
:10058800DBB203F00103DBB21A464FF48041234883
:1005980001F0E2FBFB791B09DBB203F00103DBB2DC
:1005A8001A464FF480511D4801F0D6FBFFF7B0FF03
:1005B800FB79DB08DBB203F00103DBB21A464FF428
:1005C8008061154801F0C8FBFB799B08DBB203F09A
:1005D8000103DBB21A464FF40041104801F0BCFB9E
:1005E800FB795B08DBB203F00103DBB21A464FF478
:1005F80080410A4801F0B0FBFB7903F00103DBB24C
:100608001A464FF48051054801F0A6FBFFF780FF1A
:1006180000BF0837BD4680BD0004024000100240FC
:1006280080B582B000AF0346FB71012280210548E6
:1006380001F092FBFB791846FFF786FF00BF0837E9
:10064800BD4680BD0010024080B582B000AF0346B1
:10065800FB7100228021054801F07EFBFB791846DA
:10066800FFF772FF00BF0837BD4680BD001002408B
:1006780080B500AF2020FFF7E7FFFFF749FFFFF73E
:1006880047FFFFF745FF2820FFF7DEFF2820FFF789
:10069800DBFF2820FFF7D8FF0220FFF7D5FF012056
:1006A800FFF7D2FF0C20FFF7CFFF00BF80BD80B55A
:1006B80082B000AF786006E07B685A1C7A601B78CD
:1006C8001846FFF7ADFF7B681B78002BF4D100BFFD
:1006D8000837BD4680BD000080B584B000AF034632
:1006E8000A46FB711346BB71BB79013B032B20D82B
:1006F80001A252F823F000BF1107000819070008EB
:100708002107000829070008FB79803BFB730BE0F1
:10071800FB79403BFB7307E0FB79703BFB7303E01D
:10072800FB79303BFB7300BFFB7B1846FFF78CFF60
:1007380000E000BF1037BD4680BD00BF80B582B065
:1007480000AF7860124800F03BFD124B1B8841F265
:100758008832934211D10F4B00221A800C4800F0C6
:10076800EFFD02460C4B1A600B4B1B6840F6E44247
:1007780002FB03F31B0B094A1360064B1B8801336A
:100788009AB2044B1A8000BF0837BD4680BD00BF2F
:10079800740000202C0000203000002028000020D9
:1007A80080B582B000AF00F047FC00F073F800F0AD
:1007B80011FA00F071F900F0C9F900F0C7F800F07B
:1007C80019F92D4801F028FF2C4800F0F9FCFFF733
:1007D8004FFF0120FFF738FF8020FFF735FF002388
:1007E800FB7101210020FFF777FF8020FFF72CFF26
:1007F800234B1B6840F6AC12934206D90121002016
:10080800FFF76AFF1F48FFF752FF1D4B1B6840F2B6
:10081800736293420CD91A4B1B6840F6AA12934292
:1008280006D801210020FFF757FF1748FFF73FFFC1
:1008380001210020FFF750FF114B1B6840F2716245
:1008480093420CD80E4B1B6840F23A32934206D9B9
:1008580001210020FFF740FF0C48FFF728FF084B55
:100868001B68B3F54E7FBCD801210020FFF734FF89
:100878000748FFF71CFFB4E734000020740000208D
:1008880028000020A0330008AC330008B433000867
:10089800C033000880B594B000AF07F120033022C0
:1008A8000021184602F064FD07F10C0300221A60CB
:1008B8005A609A60DA601A61224A224B1B6C43F034
:1008C800805313641F4B1B6C03F08053BB60BB68E1
:1008D8001D4A1D4B1B6823F4404343F480431360B7
:1008E800194B1B6803F440437B607B6802233B621F
:1008F8000123FB6210233B630023BB6307F1200342
:10090800184601F043FA0346002B01D000F026FAFE
:100918000F23FB6000233B6100237B610023BB6145
:100928000023FB6107F10C030021184601F0D2FCFB
:100938000346002B01D000F011FA00BF5037BD4626
:1009480080BD00BF003802400070004080B584B010
:1009580000AF3B4600221A605A609A60DA60214B69
:10096800214A1A601F4B00225A601E4B00229A60CF
:100978001C4B00221A611B4B00229A61194B002262
:1009880083F82020174B0022DA62164B174A9A6226
:10099800144B0022DA60134B0122DA61114B00225A
:1009A80083F830200F4B01225A610E4800F0C4FB37
:1009B8000346002B01D000F0D1F90D4B3B60012319
:1009C8007B600023BB603B461946064800F0C6FC26
:1009D8000346002B01D000F0C1F900BF1037BD4617
:1009E80080BD00BFBC000020002001400100000FB6
:1009F8001200001080B584B000AF3B4600221A6098
:100A08005A609A60DA60214B214A1A601F4B002213
:100A18005A601E4B00229A601C4B00221A611B4B25
:100A280000229A61194B002283F82020174B0022DC
:100A3800DA62164B174A9A62144B0022DA60134B9B
:100A48000122DA61114B002283F830200F4B01227A
:100A58005A610E4800F070FB0346002B01D000F0ED
:100A68007DF903233B6001237B600023BB603B4689
:100A78001946064800F072FC0346002B01D000F02E
:100A88006DF900BF1037BD4680BD00BF740000205F
:100A9800002101400100000F80B58AB000AF07F1C6
:100AA8001C0300221A605A609A603B4600221A60B2
:100AB8005A609A60DA601A615A619A61214B224A37
:100AC8001A60204B0F225A601E4B00229A601D4B61
:100AD8006422DA601B4B00221A611A4B00229A61C9
:100AE800184801F0C3FD0346002B01D000F036F989
:100AF8000023FB6100237B6207F11C0319461148A0
:100B080002F03CFB0346002B01D000F027F96023DC
:100B18003B6005237B600023BB6000233B613B46B1
:100B280004221946074801F0EBFE0346002B01D0CA
:100B380000F014F9034800F0CFF900BF2837BD468C
:100B480080BD00BF340000200008004080B588B098
:100B580000AF3B1D00221A605A609A60DA601A6181
:100B68005A619A61194B1A4A1A60184B0F225A6037
:100B7800164B00229A60154B6422DA60134B002250
:100B88001A61124B00229A61104801F06FFD03466A
:100B9800002B01D000F0E2F860237B600523BB60E6
:100BA8000023FB6000237B613B1D00221946074898
:100BB80001F0A6FE0346002B01D000F0CFF8034851
:100BC80000F08AF900BF2037BD4680BD040100202F
:100BD8000018004080B58AB000AF07F11403002266
:100BE8001A605A609A60DA601A61574A564B1B6B52
:100BF80043F001031363544B1B6B03F001033B6188
:100C08003B69514A504B1B6B43F0020313634E4B35
:100C18001B6B03F00203FB60FB684B4A4A4B1B6BE0
:100C280043F020031363484B1B6B03F02003BB60A6
:100C3800BB68454A444B1B6B43F010031363424B9C
:100C48001B6B03F010037B607B683F4A3E4B1B6BBA
:100C580043F0400313633C4B1B6B03F040033B60C2
:100C68003B68002240F20141384801F075F8002243
:100C78004FF44041364801F06FF800224FF28041AE
:100C8800344801F069F800224FF48041324801F0FD
:100C980063F840F201437B610123BB610023FB61E0
:100CA80000233B6207F114031946284800F0AAFE06
:100CB8004FF400537B610023BB610023FB6107F104
:100CC80014031946224800F09DFE4FF440437B610F
:100CD8000123BB610023FB6100233B6207F114037E
:100CE80019461B4800F08EFE4FF280437B610123BA
:100CF800BB610023FB6100233B6207F11403194623
:100D0800144800F07FFE4FF420637B610023BB6131
:100D18000023FB6107F1140319460E4800F072FE28
:100D28004FF480437B610123BB610023FB610023F7
:100D38003B6207F114031946074800F063FE00BF41
:100D48002837BD4680BD00BF00380240000402407D
:100D580000140240001002400018024080B400AFA6
:100D680072B6FEE780B483B000AF0F4A0E4B1B6C1F
:100D780043F0805313640C4B1B6C03F080537B606F
:100D88007B68094A084B5B6C43F480435364064B09
:100D98005B6C03F480433B603B6800BF0C37BD4687
:100DA8005DF8047B704700BF0038024080B58AB008
:100DB80000AF786007F1140300221A605A609A6045
:100DC800DA601A617B681B681E4A93420CD11E4A7E
:100DD8001D4B5B6C43F4807353641B4B5B6C03F4D7
:100DE80080733B613B6928E07B681B68174A934224
:100DF80023D1154A144B5B6C43F400735364124BB4
:100E08005B6C03F40073FB60FB680F4A0E4B1B6BB3
:100E180043F0010313630C4B1B6B03F00103BB602E
:100E2800BB6808237B610323BB610023FB6107F1D7
:100E380014031946064800F0E5FD00BF2837BD46F3
:100E480080BD00BF00200140003802400021014061
:100E58000000024080B584B000AF78607B681B68F2
:100E68001A4A934214D11A4A194B1B6C43F00403D3
:100E78001364174B1B6C03F00403FB60FB68002230
:100E880000211E2000F087FD1E2000F0A0FD18E0C4
:100E98007B681B680F4A934213D10D4A0C4B1B6C9D
:100EA80043F0400313640A4B1B6C03F04003BB6020
:100EB800BB68002200212B2000F06DFD2B2000F0E4
:100EC80086FD00BF1037BD4680BD00BF000800404A
:100ED800003802400018004080B58AB000AF786042
:100EE80007F1140300221A605A609A60DA601A61E6
:100EF8007B681B68224A93421CD1224A214B1B6BF8
:100F080043F0020313631F4B1B6B03F002033B61A7
:100F18003B6980237B610223BB610023FB610023C3
:100F28003B6202237B6207F114031946164800F05E
:100F380069FD21E07B681B68144A93421CD1114A61
:100F4800104B1B6B43F0020313630E4B1B6B03F038
:100F58000203FB60FB684FF480437B610223BB61A3
:100F68000023FB6100233B6209237B6207F1140322
:100F78001946054800F046FD00BF2837BD4680BD2C
:100F880000080040003802400004024000180040F9
:100F980080B400AFFEE780B400AFFEE780B400AFD6
:100FA800FEE780B400AFFEE780B400AFFEE780B490
:100FB80000AF00BFBD465DF8047B704780B400AF4A
:100FC80000BFBD465DF8047B704780B400AF00BF2A
:100FD800BD465DF8047B704780B500AF00F06AF845
:100FE80000BF80BD80B500AF024801F06AFB00BFBA
:100FF80080BD00BF3400002080B500AF024801F07A
:1010080060FB00BF80BD00BF0401002080B400AFBA
:10101800084A084BD3F8883043F47003C2F8883084
:10102800044B4FF000629A6000BFBD465DF8047B38
:10103800704700BF00ED00E080B500AF032000F06E
:101048009FFC002000F006F8FFF78CFE00231846EE
:1010580080BD000080B582B000AF7860124B1A687E
:10106800124B1B7819464FF47A73B3FBF1F3B2FBBA
:10107800F3F3184600F0B9FC0346002B01D0012316
:101088000EE07B680F2B0AD8002279684FF0FF30FA
:1010980000F081FC064A7B681360002300E001230E
:1010A80018460837BD4680BD000000200800002013
:1010B8000400002080B400AF064B1B781A46064B8C
:1010C8001B681344044A136000BFBD465DF8047BE7
:1010D800704700BF080000204401002080B400AF22
:1010E800034B1B681846BD465DF8047B704700BF7C
:1010F8004401002080B584B000AF7860FFF7EEFFB0
:10110800B8607B68FB60FB68B3F1FF3F05D0094B13
:101118001B781A46FB681344FB6000BFFFF7DEFF2D
:101128000246BB68D21AFB689A42F7D300BF103751
:10113800BD4680BD0800002080B584B000AF78604F
:101148000023FB737B68002B01D1012331E07B680E
:101158001B6C002B09D17868FFF728FE7B680022FA
:101168005A647B68002283F83C207B681B6C03F080
:101178001003002B16D17B681A6C104B134043F0F8
:1011880002027B681A64786800F032FA7B680022F1
:101198005A647B681B6C23F0030343F001027B68ED
:1011A8001A6401E00123FB737B68002283F83C206A
:1011B800FB7B18461037BD4680BD00BFFDEEFFFF24
:1011C80080B485B000AF78600023FB607B6893F83B
:1011D8003C30012B01D10223A0E07B68012283F877
:1011E8003C207B681B689B6803F00103012B18D027
:1011F8007B681B687A681268926842F001029A60FC
:10120800494B1B68494AA2FB03239A0C13465B000F
:101218001344FB6002E0FB68013BFB60FB68002BAA
:10122800F9D17B681B689B6803F00103012B74D11B
:101238007B681A6C3E4B134043F480727B681A64D7
:101248007B681B685B6803F48063002B07D07B68AE
:101258001B6C23F4405343F480527B681A647B6808
:101268001B6C03F48053B3F5805F06D17B685B6C1D
:1012780023F006027B685A6402E07B6800225A6405
:101288007B68002283F83C207B681B686FF0220291
:101298001A60284B5B6803F01F03002B0FD17B6893
:1012A8001B689B6803F04053002B36D17B681B6892
:1012B8007A681268926842F080429A602DE07B68F2
:1012C8001B681D4A93420ED17B681B689B6803F01C
:1012D8004053002B07D17B681B687A6812689268B4
:1012E80042F080429A60134B5B6803F01003002BB6
:1012F80013D17B681B68114A93420ED17B681B6827
:101308009B6803F04053002B07D17B681B687A6801
:101318001268926842F080429A6000231846143797
:10132800BD465DF8047B70470000002083DE1B4348
:10133800FEF8FFFF00230140002001400022014089
:1013480080B483B000AF78607B681B68DB6C18469C
:101358000C37BD465DF8047B7047000090B484B03C
:1013680000AF786039600023FB607B6893F83C30FD
:10137800012B01D102232CE17B68012283F83C2058
:101388003B681B68092B3BD93B681B68B3F1004FCE
:1013980036D07B681A687B681B68D9683B681B680D
:1013A8009BB2184603465B0003441E3B072000FA25
:1013B80003F3DB430B40D3603B681B68874A9342C7
:1013C8000AD17B681B687A681268D1683A689268A3
:1013D80012060A43DA6037E07B681A687B681B6884
:1013E800D9683B6898683B681B689BB21C462346D3
:1013F8005B0023441E3B00FA03F30B43D36023E056
:101408007B681A687B681B6819693B681B689BB214
:10141800184603465B000344072000FA03F3DB4346
:101428000B4013617B681A687B681B6819693B6805
:1014380098683B681B689BB21C4623465B002344A4
:1014480000FA03F30B4313613B685B68062B24D84F
:101458007B6819687B681B68586B3B685A68134639
:101468009B001344053B1F2202FA03F3DB430340AE
:101478004B637B6819687B681B68586B3B681B6803
:101488009BB21C463B685A6813469B001344053BB5
:1014980004FA03F303434B634CE03B685B680C2B93
:1014A80024D87B6819687B681B68186B3B685A6886
:1014B80013469B001344233B1F2202FA03F3DB432A
:1014C80003400B637B6819687B681B68186B3B6873
:1014D8001B689BB21C463B685A6813469B00134422
:1014E800233B04FA03F303430B6323E07B68196887
:1014F8007B681B68D86A3B685A6813469B0013448C
:10150800413B1F2202FA03F3DB430340CB627B68B3
:1015180019687B681B68D86A3B681B689BB21C46C5
:101528003B685A6813469B001344413B04FA03F393
:101538000343CB627B681B68294A93420AD13B6804
:101548001B68B3F1004F05D1264A264B5B6823F48C
:10155800400353607B681B68214A934209D13B686A
:101568001B68122B05D11F4A1E4B5B6843F480038E
:1015780053607B681B681A4A934225D13B681B68F5
:10158800164A934203D03B681B68112B1CD1154A9D
:10159800144B5B6843F4000353603B681B680F4AB5
:1015A800934211D1104B1B68104AA2FB03239A0CDB
:1015B80013469B0013445B00FB6002E0FB68013BA1
:1015C800FB60FB68002BF9D17B68002283F83C2084
:1015D800002318461037BD4690BC70471200001013
:1015E80000200140002301400000002083DE1B434F
:1015F80080B483B000AF7860784A784B5B6823F496
:10160800403353607549754B5A687B685B68134370
:101618004B607B681B687A681268526822F4807293
:101628005A607B681B687A68126851687A68126920
:1016380012020A435A607B681B687A68126852680B
:1016480022F040725A607B681B687A681268516899
:101658007A6892680A435A607B681B687A681268DD
:10166800926822F400629A607B681B687A68126844
:1016780091687A68D2680A439A607B689B6A584A7C
:10168800934222D07B681B687A681268926822F0BD
:1016980070629A607B681B687A68126891687A68D9
:1016A800926A0A439A607B681B687A681268926833
:1016B80022F040529A607B681B687A6812689168C9
:1016C8007A68D26A0A439A600FE07B681B687A6876
:1016D8001268926822F070629A607B681B687A6868
:1016E8001268926822F040529A607B681B687A6898
:1016F8001268926822F002029A607B681B687A6816
:10170800126891687A68926952000A439A607B6805
:1017180093F82030002B1BD07B681B687A6812680E
:10172800526842F400625A607B681B687A681268E3
:10173800526822F460425A607B681B687A681268B3
:1017480051687A68526A013A52030A435A6007E0BC
:101758007B681B687A681268526822F400625A60D3
:101768007B681B687A681268D26A22F47002DA62AF
:101778007B681B687A681268D16A7A68D269013A0C
:1017880012050A43DA627B681B687A6812689268F5
:1017980022F400729A607B681B687A681268916804
:1017A8007A6892F8302052020A439A607B681B6874
:1017B8007A681268926822F480629A607B681B6873
:1017C8007A68126891687A68526992020A439A6044
:1017D80000BF0C37BD465DF8047B7047002301400D
:1017E8000100000F80B485B000AF78607B6803F01B
:1017F8000703FB600B4BDB68BB60BA684FF6FF035F
:101808001340BB60FB681A02BB681A43064B1343BC
:10181800BB60044ABB68D36000BF1437BD465DF89F
:10182800047B704700ED00E00000FA0580B400AFCB
:10183800044BDB681B0A03F007031846BD465DF836
:10184800047B704700ED00E080B483B000AF03462E
:10185800FB7197F90730002B0BDB094997F9073023
:101868005B09FA7902F01F02012000FA02F241F83E
:10187800232000BF0C37BD465DF8047B704700BFCE
:1018880000E100E080B483B000AF03463960FB712B
:1018980097F90730002B0ADB0D4997F907303A68AA
:1018A800D2B21201D2B20B4483F800230AE00949EC
:1018B800FB7903F00F03043B3A68D2B21201D2B2AB
:1018C8000B441A7600BF0C37BD465DF8047B7047A1
:1018D80000E100E000ED00E080B489B000AFF860FE
:1018E800B9607A60FB6803F00703FB61FB69C3F129
:1018F8000703042B28BF0423BB61FB690433062BB1
:1019080002D9FB69033B00E000237B610122BB692C
:1019180002FA03F35A1EBB681A407B699A400121F8
:101928007B6901FA03F3591E7B680B401343184681
:101938002437BD465DF8047B7047000080B582B04F
:1019480000AF78607B68013BB3F1807F01D301234E
:101958000FE00A4A7B68013B53600F214FF0FF30CC
:10196800FFF790FF054B00229A60044B07221A608C
:10197800002318460837BD4680BD00BF10E000E0D0
:1019880080B582B000AF78607868FFF72BFF00BFA2
:101998000837BD4680BD80B586B000AF0346B96044
:1019A8007A60FB7300237B61FFF740FF78617A68F8
:1019B800B9687869FFF790FF024697F90F3011462A
:1019C8001846FFF75FFF00BF1837BD4680BD80B5DA
:1019D80082B000AF0346FB7197F907301846FFF74E
:1019E80033FF00BF0837BD4680BD80B582B000AF69
:1019F80078607868FFF7A2FF034618460837BD46A7
:101A080080BD000080B489B000AF786039600023E1
:101A1800FB6100237B6100233B610023BB61002342
:101A2800FB6175E10122FB6902FA03F37B613B6804
:101A38001A687B6913403B613A697B699A4240F0B6
:101A480064813B685B68012B0BD03B685B68022BA9
:101A580007D03B685B68112B03D03B685B68122B8F
:101A680030D17B689B68BB61FB695B00032202FA8B
:101A780003F3DB43BA691340BB613B68DA68FB696F
:101A88005B0002FA03F3BA691343BB617B68BA6966
:101A98009A607B685B68BB610122FB6902FA03F309
:101AA800DB43BA691340BB613B685B681B0903F001
:101AB8000102FB6902FA03F3BA691343BB617B684D
:101AC800BA695A607B68DB68BB61FB695B0003220B
:101AD80002FA03F3DB43BA691340BB613B689A68B7
:101AE800FB695B0002FA03F3BA691343BB617B68C5
:101AF800BA69DA603B685B68022B03D03B685B68B5
:101B0800122B23D1FB69DA087B68083253F822309C
:101B1800BB61FB6903F007039B000F2202FA03F382
:101B2800DB43BA691340BB613B681A69FB6903F080
:101B380007039B0002FA03F3BA691343BB61FB690D
:101B4800DA087B680832B96943F822107B681B6899
:101B5800BB61FB695B00032202FA03F3DB43BA694A
:101B68001340BB613B685B6803F00302FB695B00E1
:101B780002FA03F3BA691343BB617B68BA691A6056
:101B88003B685B6803F08053002B00F0BE80654A19
:101B9800644B5B6C43F480435364624B5B6C03F4AB
:101BA8008043FB60FB68604AFB699B08023352F87C
:101BB8002330BB61FB6903F003039B000F2202FA89
:101BC80003F3DB43BA691340BB617B68574A93420E
:101BD80037D07B68564A934231D07B68554A934246
:101BE8002BD07B68544A934225D07B68534A934252
:101BF8001FD07B68524A934219D07B68514A93425E
:101C080013D07B68504A93420DD07B684F4A934269
:101C180007D07B684E4A934201D1092312E00A2378
:101C280010E008230EE007230CE006230AE0052352
:101C380008E0042306E0032304E0022302E0012372
:101C480000E00023FA6902F0030292009340BA69A7
:101C58001343BB613449FB699B080233BA6941F8F5
:101C680023203C4B1B68BB613B69DB43BA691340CB
:101C7800BB613B685B6803F48033002B03D0BA690F
:101C88003B691343BB61334ABB691360314B5B68E3
:101C9800BB613B69DB43BA691340BB613B685B6866
:101CA80003F40033002B03D0BA693B691343BB61CB
:101CB800284ABB695360274B9B68BB613B69DB4380
:101CC800BA691340BB613B685B6803F48013002B5F
:101CD80003D0BA693B691343BB611E4ABB69936071
:101CE8001C4BDB68BB613B69DB43BA691340BB61D2
:101CF8003B685B6803F40013002B03D0BA693B69A7
:101D08001343BB61134ABB69D360FB690133FB61B1
:101D1800FB690F2B7FF686AE00BF2437BD465DF802
:101D2800047B704700380240003801400000024040
:101D38000004024000080240000C0240001002406B
:101D48000014024000180240001C0240002002401B
:101D580000240240003C014080B483B000AF7860AA
:101D68000B467B8013467B707B78002B03D07A88E8
:101D78007B689A6103E07B881A047B689A6100BFDC
:101D88000C37BD465DF8047B7047000080B586B00F
:101D980000AF78600023FB757B68002B01D101231D
:101DA80091E27B681B6803F00103002B00F0878039
:101DB800964B9B6803F00C03042B0CD0934B9B6849
:101DC80003F00C03082B12D1904B5B6803F48003DB
:101DD800B3F5800F0BD18D4B1B6803F40033002B38
:101DE8006CD07B685B68002B68D101236BE27B6851
:101DF8005B68B3F5803F06D1844A844B1B6843F483
:101E0800803313602EE07B685B68002B0CD17F4A1F
:101E18007E4B1B6823F4803313607C4A7B4B1B6822
:101E280023F4802313601DE07B685B68B3F5A02F63
:101E38000CD1764A754B1B6843F480231360734AB0
:101E4800724B1B6843F4803313600BE06F4A6F4B8F
:101E58001B6823F4803313606C4A6C4B1B6823F4B3
:101E6800802313607B685B68002B13D0FFF736F97B
:101E7800386108E0FFF732F902463B69D31A642B50
:101E880001D903231FE2614B1B6803F40033002BC5
:101E9800F0D014E0FFF722F9386108E0FFF71EF9E7
:101EA80002463B69D31A642B01D903230BE2574B33
:101EB8001B6803F40033002BF0D100E000BF7B68FF
:101EC8001B6803F00203002B69D0504B9B6803F09A
:101ED8000C03002B0BD04D4B9B6803F00C03082B15
:101EE8001CD14A4B5B6803F48003002B16D1474B87
:101EF8001B6803F00203002B05D07B68DB68012B0D
:101F080001D00123DFE14149404B1B6823F0F8026F
:101F18007B681B69DB0013430B6040E07B68DB6870
:101F2800002B23D0394A394B1B6843F00103136057
:101F3800FFF7D4F8386108E0FFF7D0F802463B69AC
:101F4800D31A022B01D90323BDE1304B1B6803F0E0
:101F58000203002BF0D02D492C4B1B6823F0F8020C
:101F68007B681B69DB0013430B6018E0274A274B8B
:101F78001B6823F001031360FFF7B0F8386108E02D
:101F8800FFF7ACF802463B69D31A022B01D90323A9
:101F980099E11E4B1B6803F00203002BF0D17B680C
:101FA8001B6803F00803002B38D07B685B69002BA3
:101FB80019D0164A154B5B6F43F001035367FFF7BF
:101FC8008DF8386108E0FFF789F802463B69D31AB3
:101FD800022B01D9032376E10C4B5B6F03F002035C
:101FE800002BF0D01AE0094A084B5B6F23F001037D
:101FF8005367FFF773F838610AE0FFF76FF8024696
:102008003B69D31A022B03D903235CE10038024051
:10201800914B5B6F03F00203002BEED17B681B68CA
:1020280003F00403002B00F0A4808B4B1B6C03F01F
:102038008053002B0DD1884A874B1B6C43F080538B
:102048001364854B1B6C03F08053BB60BB68012392
:10205800FB75824B1B6803F48073002B18D17F4AF1
:102068007E4B1B6843F480731360FFF737F83861C1
:1020780008E0FFF733F802463B69D31A642B01D90D
:10208800032320E1754B1B6803F48073002BF0D009
:102098007B689B68012B06D16F4A6F4B1B6F43F01F
:1020A800010313672DE07B689B68002B0CD16A4AFB
:1020B800694B1B6F23F001031367674A664B1B6F5D
:1020C80023F0040313671CE07B689B68052B0CD185
:1020D800614A614B1B6F43F0040313675E4A5E4B12
:1020E8001B6F43F0010313670BE05B4A5A4B1B6FEE
:1020F80023F001031367584A574B1B6F23F004035F
:1021080013677B689B68002B15D0FEF7E7FF3861E3
:102118000AE0FEF7E3FF02463B69D31A41F2883230
:10212800934201D90323CEE04B4B1B6F03F002030C
:10213800002BEED014E0FEF7D1FF38610AE0FEF77D
:10214800CDFF02463B69D31A41F28832934201D946
:102158000323B8E0404B1B6F03F00203002BEED1C2
:10216800FB7D012B05D13C4A3B4B1B6C23F0805374
:1021780013647B689B69002B00F0A480364B9B6836
:1021880003F00C03082B6BD07B689B69022B49D1A9
:10219800314A314B1B6823F080731360FEF79EFFB2
:1021A800386108E0FEF79AFF02463B69D31A022B12
:1021B80001D9032387E0284B1B6803F00073002B29
:1021C800F0D125497B68DA697B681B6A1A437B680A
:1021D8005B6A9B011A437B689B6A5B08013B1B0493
:1021E8001A437B68DB6A1B06134343F000534B60BA
:1021F800194A194B1B6843F080731360FEF76EFF92
:10220800386108E0FEF76AFF02463B69D31A022BE1
:1022180001D9032357E0104B1B6803F00073002B10
:10222800F0D04FE00C4A0C4B1B6823F0807313600E
:10223800FEF754FF386108E0FEF750FF02463B699D
:10224800D31A022B01D903233DE0034B1B6803F08B
:102258000073002BF0D135E00038024000700040D8
:102268001B4B5B68FB607B689B69012B28D0FB6874
:1022780003F480027B68DB699A4221D1FB6803F092
:102288003F027B681B6A9A421AD1FA6847F6C07304
:1022980013407A68526A9201934211D1FB6803F4A1
:1022A80040327B689B6A5B08013B1B049A4207D15A
:1022B800FB6803F070627B68DB6A1B069A4201D0F8
:1022C800012300E0002318461837BD4680BD00BF33
:1022D8000038024080B584B000AF786039600023D0
:1022E800FB607B68002B01D10123D0E06A4B1B689F
:1022F80003F00F023B689A4210D26749664B1B688D
:1023080023F00F023B6813430B60634B1B6803F019
:102318000F023B689A4201D00123B8E07B681B6832
:1023280003F00203002B20D07B681B6803F0040332
:10233800002B05D0594A594B9B6843F4E0539360EE
:102348007B681B6803F00803002B05D0534A534BE6
:102358009B6843F4604393605049504B9B6823F05B
:10236800F0027B689B6813438B607B681B6803F0F3
:102378000103002B40D07B685B68012B07D1474BDA
:102388001B6803F40033002B15D101237FE07B6821
:102398005B68022B07D1414B1B6803F00073002BCD
:1023A80009D1012373E03D4B1B6803F00203002BA6
:1023B80001D101236BE03949384B9B6823F00302B4
:1023C8007B685B6813438B60FEF788FEF8600AE061
:1023D800FEF784FE0246FB68D31A41F28832934224
:1023E80001D9032353E02D4B9B6803F00C027B6853
:1023F8005B689B009A42EBD1274B1B6803F00F02E6
:102408003B689A4210D92449234B1B6823F00F02DA
:102418003B6813430B60204B1B6803F00F023B68BB
:102428009A4201D0012332E07B681B6803F0040361
:10243800002B08D01949194B9B6823F4E0527B689C
:10244800DB6813438B607B681B6803F00803002B71
:1024580009D01249114B9B6823F460427B681B69C1
:10246800DB0013438B6000F021F801460B4B9B689F
:102478001B0903F00F030A4AD35C21FA03F3094A44
:102488001360094B1B681846FEF7E4FD0023184645
:102498001037BD4680BD00BF003C024000380240F6
:1024A800CC33000800000020040000202DE9F04F84
:1024B80087B000AF0022FA6000227A610022BA6079
:1024C80000223A61514A926802F00C02042A07D0AD
:1024D800082A08D0002A40F090804D4B3B618FE0DD
:1024E8004C4B3B618CE0494A526802F03F02FA606B
:1024F800464A526802F48002002A23D0434B5B68A4
:102508009B094FF0000440F2FF114FF0000203EA6C
:10251800010304EA02043F4A02FB04F1002202FB21
:1025280003F20A443B49A3FB010153181946FB680F
:102538004FF000041A462346FDF762FE03460C4698
:102548007B614CE0314A5268920911464FF0000213
:1025580040F2FF154FF0000605EA010506EA0206FB
:10256800294632464FEA421B4BEAD16B4FEA411AE1
:1025780051465A46AA46B34655465E464D1B62EB3F
:10258800060629463246940144EA91648B015B1A97
:1025980064EB02044FEAC40949EA53794FEAC308D5
:1025A80043464C4655465E46ED1846EB04062B4618
:1025B8003446A2027A607A6842EA93527A609B02B1
:1025C8003B6097E8180018462146FB684FF0000466
:1025D8001A462346FDF714FE03460C467B610B4B57
:1025E8005B681B0C03F0030301335B00BB607A6973
:1025F800BB68B2FBF3F33B6102E0054B3B6100BFF4
:102608003B6918461C37BD46BDE8F08F00380240CC
:102618000024F40040787D0180B485B000AF786074
:102628007B681B687A681268D26842F00102DA6037
:102638007B681B689A680C4B1340FB60FB68062B91
:102648000BD0FB68B3F5803F07D07B681B687A68BE
:102658001268126842F001021A6000231846143703
:10266800BD465DF8047B70470700010080B582B065
:1026780000AF78607B68002B01D101231DE07B68E7
:1026880093F83D30DBB2002B06D17B68002283F83B
:102698003C207868FEF7DEFB7B68022283F83D2049
:1026A8007B681A687B6804331946104600F068FA9C
:1026B8007B68012283F83D20002318460837BD4671
:1026C80080BD80B582B000AF78607B681B681B69ED
:1026D80003F00203022B22D17B681B68DB6803F03E
:1026E8000203022B1BD17B681B686FF002021A6180
:1026F8007B6801221A777B681B689B6903F00303D8
:10270800002B03D0786800F01DFA05E0786800F027
:102718000FFA786800F020FA7B6800221A777B6845
:102728001B681B6903F00403042B22D17B681B6818
:10273800DB6803F00403042B1BD17B681B686FF074
:1027480004021A617B6802221A777B681B689B69FE
:1027580003F44073002B03D0786800F0F3F905E028
:10276800786800F0E5F9786800F0F6F97B680022EF
:102778001A777B681B681B6903F00803082B22D1B2
:102788007B681B68DB6803F00803082B1BD17B6898
:102798001B686FF008021A617B6804221A777B684D
:1027A8001B68DB6903F00303002B03D0786800F093
:1027B800C9F905E0786800F0BBF9786800F0CCF951
:1027C8007B6800221A777B681B681B6903F010037B
:1027D800102B22D17B681B68DB6803F01003102BD9
:1027E8001BD17B681B686FF010021A617B68082296
:1027F8001A777B681B68DB6903F44073002B03D0EE
:10280800786800F09FF905E0786800F091F9786839
:1028180000F0A2F97B6800221A777B681B681B69A5
:1028280003F00103012B0ED17B681B68DB6803F002
:102838000103012B07D17B681B686FF001021A6145
:102848007868FDF77BFF7B681B681B6903F08003D2
:10285800802B0ED17B681B68DB6803F08003802B1C
:1028680007D17B681B686FF080021A61786800F0F6
:102878001DFD7B681B681B6903F48073B3F5807FBB
:102888000ED17B681B68DB6803F08003802B07D1BF
:102898007B681B686FF480721A61786800F010FD1D
:1028A8007B681B681B6903F04003402B0ED17B68D3
:1028B8001B68DB6803F04003402B07D17B681B686B
:1028C8006FF040021A61786800F050F97B681B6865
:1028D8001B6903F02003202B0ED17B681B68DB6883
:1028E80003F02003202B07D17B681B686FF02002C0
:1028F8001A61786800F0D0FC00BF0837BD4680BD7B
:1029080080B584B000AFF860B9607A60FB6893F86E
:102918003C30012B01D1022305E1FB68012283F839
:102928003C20FB68022283F83D207B68142B00F2D0
:10293800F08001A252F823F0952900081B2B00080B
:102948001B2B00081B2B0008D52900081B2B00088F
:102958001B2B00081B2B0008172A00081B2B00083C
:102968001B2B00081B2B0008572A00081B2B0008EC
:102978001B2B00081B2B0008992A00081B2B00089A
:102988001B2B00081B2B0008D92A0008FB681B68B2
:10299800B968184600F094F9FB681B68FA68126871
:1029A800926942F008029A61FB681B68FA6812682B
:1029B800926922F004029A61FB681B68FA6812683F
:1029C8009169BA6812690A439A61A3E0FB681B68B7
:1029D800B968184600F0E6F9FB681B68FA681268DF
:1029E800926942F400629A61FB681B68FA6812688F
:1029F800926922F480629A61FB681B68FA6812681F
:102A08009169BA68126912020A439A6182E0FB6806
:102A18001B68B968184600F03DFAFB681B68FA683D
:102A28001268D26942F00802DA61FB681B68FA682A
:102A38001268D26922F00402DA61FB681B68FA683E
:102A48001268D169BA6812690A43DA6162E0FB6800
:102A58001B68B968184600F093FAFB681B68FA68A7
:102A68001268D26942F40062DA61FB681B68FA688E
:102A78001268D26922F48062DA61FB681B68FA681E
:102A88001268D169BA68126912020A43DA6141E030
:102A9800FB681B68B968184600F0CAFAFB681B682F
:102AA800FA681268526D42F008025A65FB681B68A2
:102AB800FA681268526D22F004025A65FB681B68B6
:102AC800FA681268516DBA6812690A435A6521E0BA
:102AD800FB681B68B968184600F0FCFAFB681B68BD
:102AE800FA681268526D42F400625A65FB681B6806
:102AF800FA681268526D22F480625A65FB681B6896
:102B0800FA681268516DBA68126912020A435A6566
:102B180000E000BFFB68012283F83D20FB6800222B
:102B280083F83C20002318461037BD4680BD00BFFF
:102B380080B483B000AF786000BF0C37BD465DF845
:102B4800047B704780B483B000AF786000BF0C3757
:102B5800BD465DF8047B704780B483B000AF7860F1
:102B680000BF0C37BD465DF8047B704780B483B066
:102B780000AF786000BF0C37BD465DF8047B704736
:102B880080B485B000AF786039607B681B68FB60F3
:102B98007B68404A934213D07B68B3F1804F0FD0D3
:102BA8007B683D4A93420BD07B683C4A934207D0EE
:102BB8007B683B4A934203D07B683A4A934208D1E8
:102BC800FB6823F07003FB603B685B68FA6813439B
:102BD800FB607B682F4A93422BD07B68B3F1804F10
:102BE80027D07B682C4A934223D07B682B4A934298
:102BF8001FD07B682A4A93421BD07B68294A93429C
:102C080017D07B68284A934213D07B68274A93429F
:102C18000FD07B68264A93420BD07B68254A9342A3
:102C280007D07B68244A934203D07B68234A9342A7
:102C380008D1FB6823F44073FB603B68DB68FA68E3
:102C48001343FB60FB6823F080023B685B69134316
:102C5800FB607B68FA681A603B689A687B68DA628E
:102C68003B681A687B689A627B680A4A934203D079
:102C78007B680C4A934203D13B681A697B681A63E4
:102C88007B6801225A6100BF1437BD465DF8047B9A
:102C9800704700BF000001400004004000080040E9
:102CA800000C004000040140004001400044014085
:102CB8000048014000180040001C0040002000406F
:102CC80080B487B000AF786039607B681B6A23F0F6
:102CD80001027B681A627B681B6A7B617B685B68A0
:102CE8003B617B689B69FB60FA682B4B1340FB6078
:102CF800FB6823F00303FB603B681B68FA68134317
:102D0800FB607B6923F002037B613B689B687A69FF
:102D180013437B617B68214A934203D07B68204A36
:102D280093420CD17B6923F008037B613B68DB6825
:102D38007A6913437B617B6923F004037B617B68B9
:102D4800164A934203D07B68154A934211D13B69D6
:102D580023F480733B613B6923F400733B613B6858
:102D68005B693A6913433B613B689B693A69134362
:102D78003B617B683A695A607B68FA689A613B688C
:102D88005A687B685A637B687A691A6200BF1C3785
:102D9800BD465DF8047B70478FFFFEFF00000140D1
:102DA8000004014080B487B000AF786039607B6868
:102DB8001B6A23F010027B681A627B681B6A7B61BE
:102DC8007B685B683B617B689B69FB60FA682E4B9C
:102DD8001340FB60FB6823F44073FB603B681B688F
:102DE8001B02FA681343FB607B6923F020037B61B5
:102DF8003B689B681B017A6913437B617B68234AA4
:102E0800934203D07B68224A93420DD17B6923F019
:102E180080037B613B68DB681B017A6913437B6134
:102E28007B6923F040037B617B68184A934203D097
:102E38007B68174A934213D13B6923F480633B6153
:102E48003B6923F400633B613B685B699B003A691B
:102E580013433B613B689B699B003A6913433B61A1
:102E68007B683A695A607B68FA689A613B685A6875
:102E78007B689A637B687A691A6200BF1C37BD4613
:102E88005DF8047B704700BFFF8FFFFE0000014024
:102E98000004014080B487B000AF786039607B6877
:102EA8001B6A23F480727B681A627B681B6A7B61E9
:102EB8007B685B683B617B68DB69FB60FA682D4B6C
:102EC8001340FB60FB6823F00303FB603B681B684F
:102ED800FA681343FB607B6923F400737B613B68EA
:102EE8009B681B027A6913437B617B68224A934281
:102EF80003D07B68214A93420DD17B6923F4006398
:102F08007B613B68DB681B027A6913437B617B69E1
:102F180023F480637B617B68174A934203D07B6804
:102F2800164A934213D13B6923F480533B613B69B2
:102F380023F400533B613B685B691B013A69134307
:102F48003B613B689B691B013A6913433B617B68A2
:102F58003A695A607B68FA68DA613B685A687B6844
:102F6800DA637B687A691A6200BF1C37BD465DF870
:102F7800047B70478FFFFEFF000001400004014002
:102F880080B487B000AF786039607B681B6A23F42F
:102F980080527B681A627B681B6A3B617B685B684E
:102FA8007B617B68DB69FB60FA681E4B1340FB6042
:102FB800FB6823F44073FB603B681B681B02FA68DC
:102FC8001343FB603B6923F400533B613B689B68F8
:102FD8001B033A6913433B617B68134A934203D04E
:102FE8007B68124A934209D17B6923F480437B6151
:102FF8003B685B699B017A6913437B617B687A69EB
:103008005A607B68FA68DA613B685A687B681A64B8
:103018007B683A691A6200BF1C37BD465DF8047BBD
:10302800704700BFFF8FFFFE000001400004014011
:1030380080B487B000AF786039607B681B6A23F47E
:1030480080327B681A627B681B6A3B617B685B68BD
:103058007B617B685B6DFB60FA681B4B1340FB6010
:103068003B681B68FA681343FB603B6923F4003331
:103078003B613B689B681B043A6913433B617B686F
:10308800124A934203D07B68114A934209D17B6963
:1030980023F480337B613B685B691B027A691343C5
:1030A8007B617B687A695A607B68FA685A653B6815
:1030B8005A687B689A657B683A691A6200BF1C3750
:1030C800BD465DF8047B70478FFFFEFF000001409E
:1030D8000004014080B487B000AF786039607B6835
:1030E8001B6A23F480127B681A627B681B6A3B6147
:1030F8007B685B687B617B685B6DFB60FA681C4B77
:103108001340FB603B681B681B02FA681343FB60B3
:103118003B6923F400133B613B689B681B053A69D4
:1031280013433B617B68134A934203D07B68124A7E
:10313800934209D17B6923F480237B613B685B69F7
:103148009B027A6913437B617B687A695A607B6862
:10315800FA685A653B685A687B68DA657B683A6939
:103168001A6200BF1C37BD465DF8047B704700BF7C
:10317800FF8FFFFE000001400004014080B485B0CD
:1031880000AF786039607B6893F83C30012B01D13F
:1031980002236DE07B68012283F83C207B680222D1
:1031A80083F83D207B681B685B68FB607B681B6855
:1031B8009B68BB607B681B68304A934204D07B687D
:1031C8001B682F4A934208D1FB6823F47003FB6005
:1031D8003B685B68FA681343FB60FB6823F0700385
:1031E800FB603B681B68FA681343FB607B681B68DD
:1031F800FA685A607B681B68204A934222D07B6831
:103208001B68B3F1804F1DD07B681B681D4A934231
:1032180018D07B681B681C4A934213D07B681B68D4
:103228001A4A93420ED07B681B68154A934209D00C
:103238007B681B68164A934204D07B681B68154A52
:1032480093420CD1BB6823F08003BB603B689B684A
:10325800BA681343BB607B681B68BA689A607B686E
:10326800012283F83D207B68002283F83C2000235C
:1032780018461437BD465DF8047B704700000140CE
:10328800000401400004004000080040000C004019
:10329800004001400018004080B483B000AF78605F
:1032A80000BF0C37BD465DF8047B704780B483B01F
:1032B80000AF786000BF0C37BD465DF8047B7047EF
:1032C80080B483B000AF786000BF0C37BD465DF8AE
:1032D800047B7047DFF834D0002103E00C4B5B58C7
:1032E800435004310B480C4B42189A42F6D30B4A10
:1032F80002E0002342F8043B094B9A42F9D3FDF758
:1033080085FE00F011F8FDF74BFA70470000052024
:10331800EC330008000000200C0000200C00002006
:1033280048010020FEE7000070B50D4E0D4CA41BAF
:10333800A4100025A54209D10B4E0C4C00F020F832
:10334800A41BA4100025A54205D170BD56F8253050
:1033580098470135EEE756F8253098470135F2E7EA
:10336800E4330008E4330008E4330008E8330008D5
:1033780002440346934200D1704703F8011BF9E762
:10338800F8B500BFF8BC08BC9E467047F8B500BF4A
:08339800F8BC08BC9E4670471A
:1033A0004869676820202020200000004D6564697E
:1033B000756D00004C6F7720202020202000000039
:1033C00056657279206C6F770000000000000000E5
:0C33D000000000000102030406070809C9
:0833DC005CCEFF7F0100000040
:0433E400ED010008EF
:0433E800C90100080F
:0C33EC000024F4001000000001000000AC
:04000005080032DDE0
:00000001FF
