:020000040800F2
:1000000000000520354B0008690C00086F0C000843
:10001000750C00087B0C0008810C00080000000033
:10002000000000000000000000000000870C000835
:10003000950C000800000000A30C0008B10C00089B
:10004000854B0008854B0008854B0008854B000850
:10005000854B0008854B0008854B0008854B000840
:10006000854B0008854B0008854B0008854B000830
:10007000854B0008854B0008854B0008854B000820
:10008000854B0008854B0008854B0008854B000810
:10009000854B0008854B0008854B0008854B000800
:1000A000854B0008854B0008854B0008854B0008F0
:1000B000854B0008854B0008BD0C0008854B0008E7
:1000C000854B0008854B0008854B0008854B0008D0
:1000D000854B0008854B0008854B0008D10C0008B3
:1000E000854B0008854B0008854B0008E50C00088F
:1000F000854B0008854B0008854B0008854B0008A0
:10010000854B0008854B0008854B0008854B00088F
:10011000854B0008854B0008854B0008854B00087F
:10012000854B0008854B0008854B0008854B00086F
:10013000854B0008854B0008854B0008854B00085F
:10014000854B0008854B0008854B0008854B00084F
:10015000854B0008854B0008854B0008854B00083F
:10016000854B0008854B0008854B0008854B00082F
:10017000854B0008854B0008854B0008854B00081F
:10018000854B0008854B0008854B0008854B00080F
:10019000854B0008854B0008854B0008854B0008FF
:1001A000854B0008854B0008854B0008854B0008EF
:1001B000854B0008854B0008854B0008854B0008DF
:0801C000854B0008854B000887
:1001C80010B5054C237833B9044B13B10448AFF389
:1001D80000800123237010BD1000002000000000E3
:1001E800E04B000808B5034B1BB103490348AFF3C4
:1001F800008008BD0000000014000020E04B00084B
:1002080053B94AB9002908BF00281CBF4FF0FF3175
:100218004FF0FF3000F07AB9ADF1080C6DE904CE6B
:1002280000F006F8DDF804E0DDE9022304B07047C9
:100238002DE9F0478C460D460446089E002B51D107
:100248008A4217466DD9B2FA82FEBEF1000F0BD072
:10025800CEF1200C01FA0EF520FA0CFC02FA0EF78A
:100268004CEA050C00FA0EF44FEA174A250CBCFBC1
:10027800FAF81FFA87F90AFB18CC45EA0C4508FB7F
:1002880009F3AB420AD9ED1908F1FF3280F0238156
:10029800AB4240F22081A8F102083D44ED1AA4B215
:1002A800B5FBFAF00AFB105544EA054400FB09F9CE
:1002B800A14509D9E41900F1FF3380F00A81A1456D
:1002C80040F2078102383C44A4EB090440EA0840A4
:1002D8000021002E61D024FA0EF4002334607360EC
:1002E800BDE8F0878B4207D9002E54D0002186E85C
:1002F80021000846BDE8F087B3FA83F1002940F0F1
:100308008E80AB4202D3824200F2FA80841A65EBF7
:1003180003050120AC46002E3FD086E81010BDE84A
:10032800F08712B90127B7FBF2F7B7FA87FEBEF1DB
:10033800000F34D1EB1B3A0C1FFA87FC0121B3FBE9
:10034800F2F8250C02FB183345EA03450CFB08F3C9
:10035800AB4207D9ED1908F1FF3002D2AB4200F2E7
:10036800D1808046ED1AA3B2B5FBF2F002FB10551E
:1003780043EA05440CFB00FCA44507D9E41900F145
:10038800FF3302D2A44500F2B8801846A4EB0C044F
:1003980040EA08409DE731463046BDE8F087CEF197
:1003A800200405FA0EF307FA0EF720FA04F83A0CBF
:1003B80025FA04F448EA0308B4FBF2F14FEA1845B9
:1003C80002FB11441FFA87FC45EA044501FB0CF3C4
:1003D800AB4200FA0EF409D9ED1901F1FF3080F0B3
:1003E8008A80AB4240F2878002393D44EB1A1FFAFB
:1003F80088F5B3FBF2F002FB103345EA034500FB36
:100408000CF3AB4207D9ED1900F1FF386FD2AB42BC
:100418006DD902383D44EB1A40EA01418FE7C1F13A
:10042800200722FA07F88B4005FA01F448EA03038B
:1004380020FA07FE4FEA134CFD404EEA040EB5FBC6
:10044800FCF94FEA1E440CFB19551FFA83F844EADD
:10045800054509FB08F4AC4202FA01F200FA01FA78
:1004680008D9ED1809F1FF3043D2AC4241D9A9F1BE
:1004780002091D442D1B1FFA8EFEB5FBFCF00CFB78
:1004880010554EEA054400FB08F8A04507D9E418C2
:1004980000F1FF3529D2A04527D902381C4440EA8B
:1004A8000940A4EB0804A0FB02894C45C6464D460A
:1004B80015D312D056B1BAEB0E0364EB050404FA57
:1004C80007F7CB401F43CC40376074600021BDE87C
:1004D800F0871846F8E69046E0E6C245EAD2B8EB5F
:1004E800020E69EB03050138E4E72846D7E74046E2
:1004F80091E78146BEE7014678E702383C4445E784
:10050800084608E7A8F102083D442BE7704700BFFA
:1005180080B584B000AF786001223B493B4803F0C6
:10052800E1FA394B1A783A4B1A707B681B68394ADA
:10053800934265D1364B1B780D2B03D0344B1B7877
:100548000A2B16D1344B1B68344A12889A6300234D
:10055800FB6007E0324AFB68134400221A70FB680C
:100568000133FB60FB68032BF4DD2E4B01221A706C
:1005780041E0254B1A78264B1A70254B1B78303BE7
:10058800DAB2234B1A70274B1B781A46204B19787E
:10059800234B9954234B1B78022B0FD0032B23D0CA
:1005A800012B28D11E4B5B789AB21C4B1A801D4B2D
:1005B8001B780133DAB21B4B1A701CE0184B5B78BE
:1005C8009BB21A46920013445B009AB2144B9B7874
:1005D8009BB213449AB2114B1A80124B1B78013309
:1005E800DAB2104B1A7006E00C4B64221A800D4BDD
:1005F80001221A7000BF01220349786803F016FA35
:1006080000BF1037BD4680BD2F0000208C000020A1
:100618002E00002000480040300000202C00002060
:10062800880000200000002080B483B000AF78600C
:1006380000BF0C37BD465DF8047B7047B0B58AB083
:1006480000AF164B3C461D460FCD0FC40FCD0FC44F
:1006580095E8030020600434217000F05BFB00F093
:1006680025F800F0ADF900F09BF800F015F900F05E
:1006780077F904210A4802F033F8012209490A48A7
:1006880003F030FA394614232522074803F03CF9D1
:10069800034B1B6819229A63FEE700BFF84B00085A
:1006A800300000202F0000208C00002080B5B4B05E
:1006B80000AF07F1A00330220021184604F084FAA5
:1006C80007F18C0300221A605A609A60DA601A6196
:1006D80007F1080384220021184604F075FA2E4A0F
:1006E8002D4B1B6C43F0805313642B4B1B6C03F096
:1006F80080537B607B68294A284B1B6823F440435E
:1007080043F480431360254B1B6803F440433B606C
:100718003B680223C7F8A0300123C7F8AC30102388
:10072800C7F8B0300023C7F8B83007F1A00318465F
:1007380000F0B4FE0346002B01D000F07FF90F2330
:10074800C7F88C300023C7F890300023C7F89430DE
:100758000023C7F898300023C7F89C3007F18C03B2
:100768000021184601F03EF90346002B01D000F0A5
:1007780065F94FF48073BB6000237B6507F10803BC
:10078800184601F005FB0346002B01D000F056F98E
:1007980000BFD037BD4680BD003802400070004021
:1007A80080B590B000AF07F148037B6007F13003D4
:1007B80000221A605A609A60DA6007F12403002266
:1007C8001A605A609A6007F1080300221A605A609A
:1007D8009A60DA601A615A619A612D4B2D4A1A6043
:1007E8002B4B0F225A602A4B00229A60284B642216
:1007F800DA60274B00221A61254B00229A612448AF
:1008080001F0B6FE0346002B01D000F017F94FF4B3
:1008180080533B6307F1300319461D4802F0D0FAB4
:100828000346002B01D000F009F9194801F0F7FE42
:100838000346002B01D000F001F900237B6200235E
:10084800FB6207F124031946114802F063FF0346CF
:10085800002B01D000F0F2F86023BB600523FB6099
:1008680000233B610023BB6107F1080304221946FA
:10087800074802F095F90346002B01D000F0DEF896
:10088800034800F045F900BF4037BD4680BD00BFB2
:10089800300000200008004080B58CB000AF07F1A0
:1008A80038033B6007F1200300221A605A609A60FF
:1008B800DA603B1D00221A605A609A60DA601A6199
:1008C8005A619A61244B254A1A60234B0F225A60B9
:1008D800214B00229A60204B6422DA601E4B0022D2
:1008E8001A611D4B00229A611B4801F041FE034624
:1008F800002B01D000F0A2F84FF480533B6207F1BF
:1009080020031946144802F05BFA0346002B01D075
:1009180000F094F8104801F082FE0346002B01D045
:1009280000F08CF860237B603223BB600023FB60FF
:1009380000237B613B1D00221946074802F030F96D
:100948000346002B01D000F079F8034800F0E0F8E6
:1009580000BF3037BD4680BD1001002000180040A0
:1009680080B500AF144B154A1A60134B4FF4E132AF
:100978005A60114B00229A600F4B0022DA600E4B2E
:1009880000221A610C4B0C225A610B4B00229A610F
:10099800094B0022DA61084B00221A62064B00223A
:1009A8005A62054802F062FF0346002B01D000F0AE
:1009B80045F800BF80BD00BF8C0000200048004003
:1009C80080B588B000AF07F10C0300221A605A60A6
:1009D8009A60DA601A61174A164B1B6B43F00203E0
:1009E8001363144B1B6B03F00203BB60BB68114A13
:1009F800104B1B6B43F0080313630E4B1B6B03F088
:100A080008037B607B68002201210B4800F02CFD65
:100A18000123FB6001233B6100237B610023BB6151
:100A280007F10C031946044800F074FB00BF203797
:100A3800BD4680BD003802400004024080B400AFCB
:100A480072B6FEE780B483B000AF0F4A0E4B1B6C42
:100A580043F0805313640C4B1B6C03F080537B6092
:100A68007B68094A084B5B6C43F480435364064B2C
:100A78005B6C03F480433B603B6800BF0C37BD46AA
:100A88005DF8047B704700BF0038024080B584B031
:100A980000AF78607B681B681A4A934214D11A4ADF
:100AA800194B1B6C43F004031364174B1B6C03F0C6
:100AB8000403FB60FB68002200211E2000F061FA9D
:100AC8001E2000F07AFA18E07B681B680F4A9342F0
:100AD80013D10D4A0C4B1B6C43F0400313640A4BB3
:100AE8001B6C03F04003BB60BB68002200212B2075
:100AF80000F047FA2B2000F060FA00BF1037BD461F
:100B080080BD00BF000800400038024000180040C7
:100B180080B58AB000AF786007F1140300221A602C
:100B28005A609A60DA601A617B681B68224A9342AD
:100B38001CD1224A214B1B6B43F0020313631F4B4A
:100B48001B6B03F002033B613B6980237B6102233B
:100B5800BB610023FB6100233B6202237B6207F138
:100B680014031946164800F0D5FA21E07B681B6883
:100B7800144A93421CD1114A104B1B6B43F00203D9
:100B880013630E4B1B6B03F00203FB60FB684FF40F
:100B980080437B610223BB610023FB6100233B622E
:100BA80009237B6207F114031946054800F0B2FADD
:100BB80000BF2837BD4680BD00080040003802400D
:100BC800000402400018004080B58AB000AF786089
:100BD80007F1140300221A605A609A60DA601A61F9
:100BE8007B681B681B4A934230D11B4A1A4B1B6C0B
:100BF80043F480231364184B1B6C03F480233B617C
:100C08003B69154A144B1B6B43F008031363124BE3
:100C18001B6B03F00803FB60FB684FF440737B61B8
:100C28000223BB610023FB6103233B6207237B6232
:100C380007F114031946094800F06CFA0022002154
:100C4800272000F09EF9272000F0B7F900BF2837C9
:100C5800BD4680BD0048004000380240000C0240FC
:100C680080B400AFFEE780B400AFFEE780B400AF09
:100C7800FEE780B400AFFEE780B400AFFEE780B4C3
:100C880000AF00BFBD465DF8047B704780B400AF7D
:100C980000BFBD465DF8047B704780B400AF00BF5D
:100CA800BD465DF8047B704780B500AF00F070F872
:100CB80000BF80BD80B500AF024801F051FE00BF03
:100CC80080BD00BF3000002080B500AF024802F0B0
:100CD80047FF00BF80BD00BF8C00002080B500AF7B
:100CE800024801F03DFE00BF80BD00BF100100209A
:100CF80080B400AF064A064BD3F8883043F470033B
:100D0800C2F8883000BFBD465DF8047B704700BF5D
:100D180000ED00E080B500AF032000F027F90020C7
:100D280000F006F8FFF78EFE0023184680BD00008D
:100D380080B582B000AF7860124B1A68124B1B78EE
:100D480019464FF47A73B3FBF1F3B2FBF3F3184689
:100D580000F041F90346002B01D001230EE07B6827
:100D68000F2B0AD8002279684FF0FF3000F009F9FC
:100D7800064A7B681360002300E001231846083701
:100D8800BD4680BD040000200C00002008000020A3
:100D980080B400AF064B1B781A46064B1B681344F9
:100DA800044A136000BFBD465DF8047B704700BF6E
:100DB8000C0000205C01002080B400AF034B1B68CE
:100DC8001846BD465DF8047B704700BF5C010020F3
:100DD80080B485B000AF78607B6803F00703FB60E0
:100DE8000B4BDB68BB60BA684FF6FF031340BB6070
:100DF800FB681A02BB681A43064B1343BB60044ADC
:100E0800BB68D36000BF1437BD465DF8047B7047EC
:100E180000ED00E00000FA0580B400AF044BDB6889
:100E28001B0A03F007031846BD465DF8047B7047AC
:100E380000ED00E080B483B000AF0346FB7197F982
:100E48000730002B0BDB094997F907305B09FA7962
:100E580002F01F02012000FA02F241F8232000BF2D
:100E68000C37BD465DF8047B704700BF00E100E029
:100E780080B483B000AF03463960FB7197F907303F
:100E8800002B0ADB0D4997F907303A68D2B21201F4
:100E9800D2B20B4483F800230AE00949FB7903F036
:100EA8000F03043B3A68D2B21201D2B20B441A764D
:100EB80000BF0C37BD465DF8047B704700E100E0D9
:100EC80000ED00E080B489B000AFF860B9607A60E6
:100ED800FB6803F00703FB61FB69C3F10703042BFD
:100EE80028BF0423BB61FB690433062B02D9FB69C5
:100EF800033B00E000237B610122BB6902FA03F394
:100F08005A1EBB681A407B699A4001217B6901FA25
:100F180003F3591E7B680B40134318462437BD461C
:100F28005DF8047B7047000080B582B000AF786040
:100F38007B68013BB3F1807F01D301230FE00A4AAC
:100F48007B68013B53600F214FF0FF30FFF790FFA4
:100F5800054B00229A60044B07221A6000231846AA
:100F68000837BD4680BD00BF10E000E080B582B004
:100F780000AF78607868FFF72BFF00BF0837BD46E1
:100F880080BD80B586B000AF0346B9607A60FB7358
:100F980000237B61FFF740FF78617A68B968786958
:100FA800FFF790FF024697F90F3011461846FFF7F2
:100FB8005FFF00BF1837BD4680BD80B582B000AF67
:100FC8000346FB7197F907301846FFF733FF00BF58
:100FD8000837BD4680BD80B582B000AF78607868BC
:100FE800FFF7A2FF034618460837BD4680BD80B507
:100FF80084B000AF78607B689B6DFB60FFF7DCFE18
:10100800B8607B6893F83530DBB2022B08D07B6878
:1010180080225A657B68002283F83420012352E03D
:101028007B681B687A681268126822F016021A60D8
:101038007B681B687A681268526922F080025A61DC
:101048007B681B6C002B03D17B689B6C002B07D043
:101058007B681B687A681268126822F008021A60B6
:101068007B681B687A681268126822F001021A60AD
:1010780013E0FFF7A1FE0246BB68D31A052B0CD973
:101088007B6820225A657B68002283F834207B68BD
:10109800032283F83520032315E07B681B681B684F
:1010A80003F00103002BE4D17B68DB6D3F229A40FB
:1010B800FB689A607B68002283F834207B680122F1
:1010C80083F83520002318461037BD4680BD80B40C
:1010D80083B000AF78607B6893F83530DBB2022BC1
:1010E80004D07B6880225A6501230CE07B680522C6
:1010F80083F835207B681B687A681268126822F0CA
:1011080001021A60002318460C37BD465DF8047BBF
:101118007047000080B489B000AF78603960002360
:10112800FB6100237B6100233B610023BB6100233B
:10113800FB6175E10122FB6902FA03F37B613B68FD
:101148001A687B6913403B613A697B699A4240F0AF
:1011580064813B685B68012B0BD03B685B68022BA2
:1011680007D03B685B68112B03D03B685B68122B88
:1011780030D17B689B68BB61FB695B00032202FA84
:1011880003F3DB43BA691340BB613B68DA68FB6968
:101198005B0002FA03F3BA691343BB617B68BA695F
:1011A8009A607B685B68BB610122FB6902FA03F302
:1011B800DB43BA691340BB613B685B681B0903F0FA
:1011C8000102FB6902FA03F3BA691343BB617B6846
:1011D800BA695A607B68DB68BB61FB695B00032204
:1011E80002FA03F3DB43BA691340BB613B689A68B0
:1011F800FB695B0002FA03F3BA691343BB617B68BE
:10120800BA69DA603B685B68022B03D03B685B68AD
:10121800122B23D1FB69DA087B68083253F8223095
:10122800BB61FB6903F007039B000F2202FA03F37B
:10123800DB43BA691340BB613B681A69FB6903F079
:1012480007039B0002FA03F3BA691343BB61FB6906
:10125800DA087B680832B96943F822107B681B6892
:10126800BB61FB695B00032202FA03F3DB43BA6943
:101278001340BB613B685B6803F00302FB695B00DA
:1012880002FA03F3BA691343BB617B68BA691A604F
:101298003B685B6803F08053002B00F0BE80654A12
:1012A800644B5B6C43F480435364624B5B6C03F4A4
:1012B8008043FB60FB68604AFB699B08023352F875
:1012C8002330BB61FB6903F003039B000F2202FA82
:1012D80003F3DB43BA691340BB617B68574A934207
:1012E80037D07B68564A934231D07B68554A93423F
:1012F8002BD07B68544A934225D07B68534A93424B
:101308001FD07B68524A934219D07B68514A934256
:1013180013D07B68504A93420DD07B684F4A934262
:1013280007D07B684E4A934201D1092312E00A2371
:1013380010E008230EE007230CE006230AE005234B
:1013480008E0042306E0032304E0022302E001236B
:1013580000E00023FA6902F0030292009340BA69A0
:101368001343BB613449FB699B080233BA6941F8EE
:1013780023203C4B1B68BB613B69DB43BA691340C4
:10138800BB613B685B6803F48033002B03D0BA6908
:101398003B691343BB61334ABB691360314B5B68DC
:1013A800BB613B69DB43BA691340BB613B685B685F
:1013B80003F40033002B03D0BA693B691343BB61C4
:1013C800284ABB695360274B9B68BB613B69DB4379
:1013D800BA691340BB613B685B6803F48013002B58
:1013E80003D0BA693B691343BB611E4ABB6993606A
:1013F8001C4BDB68BB613B69DB43BA691340BB61CB
:101408003B685B6803F40013002B03D0BA693B699F
:101418001343BB61134ABB69D360FB690133FB61AA
:10142800FB690F2B7FF686AE00BF2437BD465DF8FB
:10143800047B704700380240003801400000024039
:101448000004024000080240000C02400010024064
:101458000014024000180240001C02400020024014
:1014680000240240003C014080B483B000AF7860A3
:101478000B467B8013467B707B78002B03D07A88E1
:101488007B689A6103E07B881A047B689A6100BFD5
:101498000C37BD465DF8047B7047000080B586B008
:1014A80000AF78600023FB757B68002B01D1012316
:1014B80091E27B681B6803F00103002B00F0878032
:1014C800964B9B6803F00C03042B0CD0934B9B6842
:1014D80003F00C03082B12D1904B5B6803F48003D4
:1014E800B3F5800F0BD18D4B1B6803F40033002B31
:1014F8006CD07B685B68002B68D101236BE27B684A
:101508005B68B3F5803F06D1844A844B1B6843F47B
:10151800803313602EE07B685B68002B0CD17F4A18
:101528007E4B1B6823F4803313607C4A7B4B1B681B
:1015380023F4802313601DE07B685B68B3F5A02F5C
:101548000CD1764A754B1B6843F480231360734AA9
:10155800724B1B6843F4803313600BE06F4A6F4B88
:101568001B6823F4803313606C4A6C4B1B6823F4AC
:10157800802313607B685B68002B13D0FFF71CFC8B
:10158800386108E0FFF718FC02463B69D31A642B60
:1015980001D903231FE2614B1B6803F40033002BBE
:1015A800F0D014E0FFF708FC386108E0FFF704FC0E
:1015B80002463B69D31A642B01D903230BE2574B2C
:1015C8001B6803F40033002BF0D100E000BF7B68F8
:1015D8001B6803F00203002B69D0504B9B6803F093
:1015E8000C03002B0BD04D4B9B6803F00C03082B0E
:1015F8001CD14A4B5B6803F48003002B16D1474B80
:101608001B6803F00203002B05D07B68DB68012B05
:1016180001D00123DFE14149404B1B6823F0F80268
:101628007B681B69DB0013430B6040E07B68DB6869
:10163800002B23D0394A394B1B6843F00103136050
:10164800FFF7BAFB386108E0FFF7B6FB02463B69D3
:10165800D31A022B01D90323BDE1304B1B6803F0D9
:101668000203002BF0D02D492C4B1B6823F0F80205
:101678007B681B69DB0013430B6018E0274A274B84
:101688001B6823F001031360FFF796FB386108E03D
:10169800FFF792FB02463B69D31A022B01D90323B9
:1016A80099E11E4B1B6803F00203002BF0D17B6805
:1016B8001B6803F00803002B38D07B685B69002B9C
:1016C80019D0164A154B5B6F43F001035367FFF7B8
:1016D80073FB386108E0FFF76FFB02463B69D31ADA
:1016E800022B01D9032376E10C4B5B6F03F0020355
:1016F800002BF0D01AE0094A084B5B6F23F0010376
:101708005367FFF759FB38610AE0FFF755FB0246BC
:101718003B69D31A022B03D903235CE1003802404A
:10172800914B5B6F03F00203002BEED17B681B68C3
:1017380003F00403002B00F0A4808B4B1B6C03F018
:101748008053002B0DD1884A874B1B6C43F0805384
:101758001364854B1B6C03F08053BB60BB6801238B
:10176800FB75824B1B6803F48073002B18D17F4AEA
:101778007E4B1B6843F480731360FFF71DFB3861D1
:1017880008E0FFF719FB02463B69D31A642B01D91D
:10179800032320E1754B1B6803F48073002BF0D002
:1017A8007B689B68012B06D16F4A6F4B1B6F43F018
:1017B800010313672DE07B689B68002B0CD16A4AF4
:1017C800694B1B6F23F001031367674A664B1B6F56
:1017D80023F0040313671CE07B689B68052B0CD17E
:1017E800614A614B1B6F43F0040313675E4A5E4B0B
:1017F8001B6F43F0010313670BE05B4A5A4B1B6FE7
:1018080023F001031367584A574B1B6F23F0040357
:1018180013677B689B68002B15D0FFF7CDFA3861FA
:101828000AE0FFF7C9FA02463B69D31A41F2883247
:10183800934201D90323CEE04B4B1B6F03F0020305
:10184800002BEED014E0FFF7B7FA38610AE0FFF793
:10185800B3FA02463B69D31A41F28832934201D95E
:101868000323B8E0404B1B6F03F00203002BEED1BB
:10187800FB7D012B05D13C4A3B4B1B6C23F080536D
:1018880013647B689B69002B00F0A480364B9B682F
:1018980003F00C03082B6BD07B689B69022B49D1A2
:1018A800314A314B1B6823F080731360FFF784FAC9
:1018B800386108E0FFF780FA02463B69D31A022B29
:1018C80001D9032387E0284B1B6803F00073002B22
:1018D800F0D125497B68DA697B681B6A1A437B6803
:1018E8005B6A9B011A437B689B6A5B08013B1B048C
:1018F8001A437B68DB6A1B06134343F000534B60B3
:10190800194A194B1B6843F080731360FFF754FAA8
:10191800386108E0FFF750FA02463B69D31A022BF8
:1019280001D9032357E0104B1B6803F00073002B09
:10193800F0D04FE00C4A0C4B1B6823F08073136007
:10194800FFF73AFA386108E0FFF736FA02463B69D2
:10195800D31A022B01D903233DE0034B1B6803F084
:101968000073002BF0D135E00038024000700040D1
:101978001B4B5B68FB607B689B69012B28D0FB686D
:1019880003F480027B68DB699A4221D1FB6803F08B
:101998003F027B681B6A9A421AD1FA6847F6C073FD
:1019A80013407A68526A9201934211D1FB6803F49A
:1019B80040327B689B6A5B08013B1B049A4207D153
:1019C800FB6803F070627B68DB6A1B069A4201D0F1
:1019D800012300E0002318461837BD4680BD00BF2C
:1019E8000038024080B584B000AF786039600023C9
:1019F800FB607B68002B01D10123D0E06A4B1B6898
:101A080003F00F023B689A4210D26749664B1B6885
:101A180023F00F023B6813430B60634B1B6803F012
:101A28000F023B689A4201D00123B8E07B681B682B
:101A380003F00203002B20D07B681B6803F004032B
:101A4800002B05D0594A594B9B6843F4E0539360E7
:101A58007B681B6803F00803002B05D0534A534BDF
:101A68009B6843F4604393605049504B9B6823F054
:101A7800F0027B689B6813438B607B681B6803F0EC
:101A88000103002B40D07B685B68012B07D1474BD3
:101A98001B6803F40033002B15D101237FE07B681A
:101AA8005B68022B07D1414B1B6803F00073002BC6
:101AB80009D1012373E03D4B1B6803F00203002B9F
:101AC80001D101236BE03949384B9B6823F00302AD
:101AD8007B685B6813438B60FFF76EF9F8600AE078
:101AE800FFF76AF90246FB68D31A41F2883293423B
:101AF80001D9032353E02D4B9B6803F00C027B684C
:101B08005B689B009A42EBD1274B1B6803F00F02DE
:101B18003B689A4210D92449234B1B6823F00F02D3
:101B28003B6813430B60204B1B6803F00F023B68B4
:101B38009A4201D0012332E07B681B6803F004035A
:101B4800002B08D01949194B9B6823F4E0527B6895
:101B5800DB6813438B607B681B6803F00803002B6A
:101B680009D01249114B9B6823F460427B681B69BA
:101B7800DB0013438B6000F021F801460B4B9B6898
:101B88001B0903F00F030A4AD35C21FA03F3094A3D
:101B98001360094B1B681846FFF7CAF8002318465C
:101BA8001037BD4680BD00BF003C024000380240EF
:101BB800204C000804000020080000202DE9F04F08
:101BC80087B000AF0022FA6000227A610022BA6072
:101BD80000223A61514A926802F00C02042A07D0A6
:101BE800082A08D0002A40F090804D4B3B618FE0D6
:101BF8004C4B3B618CE0494A526802F03F02FA6064
:101C0800464A526802F48002002A23D0434B5B689C
:101C18009B094FF0000440F2FF114FF0000203EA65
:101C2800010304EA02043F4A02FB04F1002202FB1A
:101C380003F20A443B49A3FB010153181946FB6808
:101C48004FF000041A462346FEF7DAFA03460C461C
:101C58007B614CE0314A5268920911464FF000020C
:101C680040F2FF154FF0000605EA010506EA0206F4
:101C7800294632464FEA421B4BEAD16B4FEA411ADA
:101C880051465A46AA46B34655465E464D1B62EB38
:101C9800060629463246940144EA91648B015B1A90
:101CA80064EB02044FEAC40949EA53794FEAC308CE
:101CB80043464C4655465E46ED1846EB04062B4611
:101CC8003446A2027A607A6842EA93527A609B02AA
:101CD8003B6097E8180018462146FB684FF000045F
:101CE8001A462346FEF78CFA03460C467B610B4BDB
:101CF8005B681B0C03F0030301335B00BB607A696C
:101D0800BB68B2FBF3F33B6102E0054B3B6100BFEC
:101D18003B6918461C37BD46BDE8F08F00380240C5
:101D28000024F40040787D0180B400AF034B1B68A9
:101D38001846BD465DF8047B704700BF04000020CC
:101D480080B500AFFFF7F0FF0146054B9B689B0A83
:101D580003F00703034AD35C21FA03F3184680BD56
:101D680000380240304C000880B500AFFFF7DCFFB8
:101D78000146054B9B685B0B03F00703034AD35CE2
:101D880021FA03F3184680BD00380240304C0008A1
:101D980080B588B000AF786000237B6100233B6189
:101DA8000023FB600023FB610023BB617B681B6889
:101DB80003F00103002B12D0694A694B9B6823F496
:101DC800000393606649664B9A687B685B6B1343B4
:101DD8008B607B685B6B002B01D10123FB617B6807
:101DE8001B6803F40023002B17D05D495C4BD3F824
:101DF8008C3023F440127B68DB6B1343C1F88C30C2
:101E08007B68DB6BB3F5801F01D10123FB617B6825
:101E1800DB6B002B01D10123BB617B681B6803F4DA
:101E28008013002B17D04E494D4BD3F88C3023F438
:101E380040027B681B6C1343C1F88C307B681B6CB9
:101E4800B3F5800F01D10123FB617B681B6C002B6C
:101E580001D10123BB617B681B6803F08073002BF1
:101E680001D00123FB617B681B6803F02003002B72
:101E780000F08B803A4A3A4B1B6C43F08053136452
:101E8800374B1B6C03F08053BB60BB68354A354B3E
:101E98001B6843F480731360FEF78EFF786108E0D7
:101EA800FEF78AFF02467B69D31A642B01D9032304
:101EB80057E32C4B1B6803F48073002BF0D0284B9E
:101EC8001B6F03F440733B613B69002B35D07B6883
:101ED8001B6B03F440723B699A422ED0204B1B6F58
:101EE80023F440733B611E4A1D4B1B6F43F4803340
:101EF80013671B4A1A4B1B6F23F480331367184A66
:101F08003B691367164B1B6F03F00103012B14D1B8
:101F1800FEF752FF78610AE0FEF74EFF02467B6942
:101F2800D31A41F28832934201D9032319E30C4BA7
:101F38001B6F03F00203002BEED07B681B6B03F4CE
:101F48004073B3F5407F11D10548054B9B6823F4D6
:101F5800F8127B68196B044B0B40134383600BE04A
:101F68000038024000700040FFFCFF0FB14AB14B3F
:101F78009B6823F4F8139360AE49AE4B1A6F7B68E5
:101F88001B6BC3F30B0313430B677B681B6803F0DE
:101F98001003002B10D0A74AA64BD3F88C3023F09F
:101FA8008073C2F88C30A349A24BD3F88C207B688D
:101FB8009B6B1343C1F88C307B681B6803F4804328
:101FC800002B0AD09B499B4BD3F8903023F4403226
:101FD8007B685B6E1343C1F890307B681B6803F421
:101FE8000043002B0AD09349924BD3F8903023F446
:101FF80040227B689B6E1343C1F890307B681B6856
:1020080003F48033002B0AD08A498A4BD3F89030E6
:1020180023F440127B68DB6E1343C1F890307B6871
:102028001B6803F40033002B0AD08249814BD3F894
:10203800903023F440027B681B6F1343C1F8903043
:102048007B681B6803F04003002B0AD07949794B61
:10205800D3F8903023F003027B685B6C1343C1F81C
:1020680090307B681B6803F08003002B0AD071490D
:10207800704BD3F8903023F00C027B689B6C1343B1
:10208800C1F890307B681B6803F48073002B0AD07A
:102098006849684BD3F8903023F030027B68DB6CDA
:1020A8001343C1F890307B681B6803F40073002B5E
:1020B8000AD060495F4BD3F8903023F0C0027B68A8
:1020C8001B6D1343C1F890307B681B6803F4806371
:1020D800002B0AD05749574BD3F8903023F440725D
:1020E8007B685B6D1343C1F890307B681B6803F411
:1020F8000063002B0AD04F494E4BD3F8903023F49D
:1021080040627B689B6D1343C1F890307B681B6805
:1021180003F48053002B0AD04649464BD3F890303D
:1021280023F440527B68DB6D1343C1F890307B6821
:102138001B6803F40053002B0AD03E493D4BD3F8EB
:10214800903023F440427B681B6E1343C1F89030F3
:102158007B681B6803F48003002B0AD03549354B94
:10216800D3F8903023F080627B689B6F1343C1F8EB
:1021780090307B681B6803F40013002B11D02D49A5
:102188002C4BD3F8903023F000627B68DB6F13434D
:10219800C1F890307B68DB6FB3F1006F01D1012388
:1021A800BB617B681B6803F00803002B01D0012387
:1021B800BB617B681B6803F48023002B0AD01D4990
:1021C8001C4BD3F8903023F040727B685B6F13434D
:1021D800C1F890307B681B6803F40003002B0BD018
:1021E8001449144BD3F8903023F080527B68D3F80D
:1021F80080301343C1F89030FB69012B06D07B680F
:102208001B6803F00073002B00F0D980094A094BC2
:102218001B6823F080631360FEF7CEFD78610BE046
:10222800FEF7CAFD02467B69D31A642B04D903233F
:1022380097E100BF003802406C4B1B6803F0006355
:10224800002BEDD17B681B6803F00103002B21D024
:102258007B685B6B002B1DD1644BD3F884301B0C5F
:1022680003F003033B61614BD3F884301B0E03F08A
:102278000F03FB605D497B685B689A013B691B043F
:102288001A43FB681B061A437B689B681B071343AA
:10229800C1F884307B681B6803F40023002B04D04A
:1022A8007B68DB6BB3F5801F0AD07B681B6803F47F
:1022B8008013002B2ED07B681B6CB3F5800F29D1BF
:1022C8004A4BD3F884301B0C03F003033B61474BA4
:1022D800D3F884301B0F03F00703FB6043497B6886
:1022E8005B689A013B691B041A437B68DB681B0621
:1022F8001A43FB681B071343C1F884303B493B4B27
:10230800D3F88C3023F01F027B685B6A013B1343D0
:10231800C1F88C307B681B6803F08073002B1DD0DC
:10232800324BD3F884301B0E03F00F033B612F4B65
:10233800D3F884301B0F03F00703FB602B497B683D
:102348005B689A017B681B691B041A433B691B067F
:102358001A43FB681B071343C1F884307B681B686A
:1023680003F00073002B11D020497B685B689A0149
:102378007B681B691B041A437B68DB681B061A43CE
:102388007B689B681B071343C1F88430174A174BB7
:102398001B6843F080631360FEF70EFD786108E068
:1023A800FEF70AFD02467B69D31A642B01D9032381
:1023B800D7E00E4B1B6803F00063002BF0D0BB691D
:1023C800012B40F0CD80094A084B1B6823F080534D
:1023D8001360FEF7F1FC78610AE0FEF7EDFC0246B7
:1023E8007B69D31A642B03D90323BAE0003802406F
:1023F8005E4B1B6803F00053B3F1005FEDD07B68C0
:102408001B6803F40023002B03D07B68DB6B002BD5
:1024180009D07B681B6803F48013002B2ED07B68DF
:102428001B6C002B2AD1514BD3F888301B0C03F0BE
:1024380003033B614D4BD3F888301B0F03F00703B0
:10244800FB604A497B685B699A013B691B041A4334
:102458007B689B691B061A43FB681B071343C1F87B
:1024680088304249414BD3F88C3023F4F8527B68CA
:102478009B6A013B1B021343C1F88C307B681B68C5
:1024880003F40013002B22D07B68DB6FB3F1006FDD
:102498001DD1364BD3F888301B0E03F00F033B6178
:1024A800324BD3F888301B0F03F00703FB602F492A
:1024B8007B685B699A017B681B6A1B041A433B694A
:1024C8001B061A43FB681B071343C1F888307B6857
:1024D8001B6803F00803002B28D0244BD3F888305E
:1024E8001B0E03F00F033B61204BD3F888301B0C05
:1024F80003F00303FB601D497B685B699A01FB6875
:102508001B041A433B691B061A437B68DB691B07DC
:102518001343C1F888301549144BD3F88C3023F491
:1025280040327B68DB6A1343C1F88C300F4A0F4B8B
:102538001B6843F080531360FEF73EFC786108E0A7
:10254800FEF73AFC02467B69D31A642B01D90323B0
:1025580007E0064B1B6803F00053B3F1005FEFD1AF
:10256800002318462037BD4680BD00BF0038024012
:1025780080B582B000AF78607B68002B01D1012361
:1025880049E07B6893F83D30DBB2002B06D17B68CD
:10259800002283F83C207868FEF778FA7B680222EC
:1025A80083F83D207B681A687B6804331946104617
:1025B80000F0F2FC7B68012283F848207B68012246
:1025C80083F83E207B68012283F83F207B68012244
:1025D80083F840207B68012283F841207B68012230
:1025E80083F842207B68012283F843207B6801221C
:1025F80083F844207B68012283F845207B68012208
:1026080083F846207B68012283F847207B680122F3
:1026180083F83D20002318460837BD4680BD80B5A5
:1026280082B000AF78607B68002B01D1012349E0BC
:102638007B6893F83D30DBB2002B06D17B68002223
:1026480083F83C20786800F041F87B68022283F820
:102658003D207B681A687B6804331946104600F0F1
:102668009BFC7B68012283F848207B68012283F861
:102678003E207B68012283F83F207B68012283F893
:1026880040207B68012283F841207B68012283F87F
:1026980042207B68012283F843207B68012283F86B
:1026A80044207B68012283F845207B68012283F857
:1026B80046207B68012283F847207B68012283F843
:1026C8003D20002318460837BD4680BD80B483B03E
:1026D80000AF786000BF0C37BD465DF8047B7047DB
:1026E80080B584B000AF786039603B68002B09D1B1
:1026F8007B6893F83E30DBB2012B14BF0123002323
:10270800DBB23CE03B68042B09D17B6893F83F308F
:10271800DBB2012B14BF01230023DBB22FE03B689F
:10272800082B09D17B6893F84030DBB2012B14BF2A
:1027380001230023DBB222E03B680C2B09D17B6824
:1027480093F84130DBB2012B14BF01230023DBB225
:1027580015E03B68102B09D17B6893F84230DBB257
:10276800012B14BF01230023DBB208E07B6893F838
:102778004330DBB2012B14BF01230023DBB2002B53
:1027880001D00123D8E03B68002B04D17B680222EA
:1027980083F83E2023E03B68042B04D17B680222A7
:1027A80083F83F201BE03B68082B04D17B6802229A
:1027B80083F8402013E03B680C2B04D17B6802228D
:1027C80083F841200BE03B68102B04D17B68022280
:1027D80083F8422003E07B68022283F843203B68A9
:1027E8000C2B41D801A252F823F000BF2928000879
:1027F8007128000871280008712800083B28000883
:102808007128000871280008712800084D28000860
:102818007128000871280008712800085F2800083E
:102828007B681B687A681268D26842F00202DA6034
:102838001BE07B681B687A681268D26842F0040261
:10284800DA6012E07B681B687A681268D26842F026
:102858000802DA6009E07B681B687A681268D26847
:1028680042F01002DA6000E000BF7B681B680122BA
:102878003968184600F028FF7B681B68304A934285
:1028880004D07B681B682F4A934201D1012300E0E2
:102898000023002B07D07B681B687A681268526C8B
:1028A80042F400425A647B681B68254A934222D04E
:1028B8007B681B68B3F1804F1DD07B681B68224A78
:1028C800934218D07B681B68204A934213D07B68D8
:1028D8001B681F4A93420ED07B681B68194A9342B3
:1028E80009D07B681B681B4A934204D07B681B682D
:1028F800194A934215D17B681B689A68174B134095
:10290800FB60FB68062B15D0FB68B3F5803F11D040
:102918007B681B687A681268126842F001021A60C4
:1029280008E07B681B687A681268126842F0010246
:102938001A6000E000BF002318461037BD4680BD6E
:10294800000001400004014000040040000800406D
:10295800000C004000400140001800400700010042
:1029680080B582B000AF78607B681B681B6903F094
:102978000203022B22D17B681B68DB6803F0020389
:10298800022B1BD17B681B686FF002021A617B68FF
:1029980001221A777B681B689B6903F00303002BED
:1029A80003D0786800F0DAFA05E0786800F0CCFA2D
:1029B800786800F0DDFA7B6800221A777B681B686C
:1029C8001B6903F00403042B22D17B681B68DB68B6
:1029D80003F00403042B1BD17B681B686FF004020F
:1029E8001A617B6802221A777B681B689B6903F46B
:1029F8004073002B03D0786800F0B0FA05E07868DF
:102A080000F0A2FA786800F0B3FA7B6800221A771F
:102A18007B681B681B6903F00803082B22D17B68BD
:102A28001B68DB6803F00803082B1BD17B681B6855
:102A38006FF008021A617B6804221A777B681B68AA
:102A4800DB6903F00303002B03D0786800F086FAF3
:102A580005E0786800F078FA786800F089FA7B6811
:102A680000221A777B681B681B6903F01003102B80
:102A780022D17B681B68DB6803F01003102B1BD185
:102A88007B681B686FF010021A617B6808221A774E
:102A98007B681B68DB6903F44073002B03D07868FC
:102AA80000F05CFA05E0786800F04EFA786800F00B
:102AB8005FFA7B6800221A777B681B681B6903F042
:102AC8000103012B0ED17B681B68DB6803F001034F
:102AD800012B07D17B681B686FF001021A617868C7
:102AE80000F028FA7B681B681B6903F08003802BC1
:102AF8000ED17B681B68DB6803F08003802B07D14D
:102B08007B681B686FF080021A61786800F09AFE93
:102B18007B681B681B6903F48073B3F5807F0ED153
:102B28007B681B68DB6803F08003802B07D17B6818
:102B38001B686FF480721A61786800F08DFE7B68FC
:102B48001B681B6903F04003402B0ED17B681B6890
:102B5800DB6803F04003402B07D17B681B686FF0EC
:102B680040021A61786800F00DFA7B681B681B69DF
:102B780003F02003202B0ED17B681B68DB6803F071
:102B88002003202B07D17B681B686FF020021A6195
:102B9800786800F04DFE00BF0837BD4680BD0000D4
:102BA80080B584B000AFF860B9607A60FB6893F8CC
:102BB8003C30012B01D10223FDE0FB68012283F8A0
:102BC8003C207B68142B00F2F08001A252F823F01D
:102BD8002D2C0008B32D0008B32D0008B32D0008D4
:102BE8006D2C0008B32D0008B32D0008B32D000884
:102BF800AF2C0008B32D0008B32D0008B32D000832
:102C0800EF2C0008B32D0008B32D0008B32D0008E1
:102C1800312D0008B32D0008B32D0008B32D00088E
:102C2800712D0008FB681B68B968184600F054FA53
:102C3800FB681B68FA681268926942F008029A6198
:102C4800FB681B68FA681268926922F004029A61AC
:102C5800FB681B68FA6812689169BA6812690A43C6
:102C68009A61A3E0FB681B68B968184600F0A6FAE9
:102C7800FB681B68FA681268926942F400629A61FC
:102C8800FB681B68FA681268926922F480629A618C
:102C9800FB681B68FA6812689169BA6812691202BF
:102CA8000A439A6182E0FB681B68B968184600F01D
:102CB800FDFAFB681B68FA681268D26942F00802DC
:102CC800DA61FB681B68FA681268D26922F00402AC
:102CD800DA61FB681B68FA681268D169BA68126918
:102CE8000A43DA6162E0FB681B68B968184600F0BD
:102CF80053FBFB681B68FA681268D26942F40062E9
:102D0800DA61FB681B68FA681268D26922F480628B
:102D1800DA61FB681B68FA681268D169BA681269D7
:102D280012020A43DA6141E0FB681B68B968184679
:102D380000F08AFBFB681B68FA681268526D42F063
:102D480008025A65FB681B68FA681268526D22F01F
:102D580004025A65FB681B68FA681268516DBA6804
:102D680012690A435A6521E0FB681B68B96818466E
:102D780000F0BCFBFB681B68FA681268526D42F4ED
:102D880000625A65FB681B68FA681268526D22F483
:102D980080625A65FB681B68FA681268516DBA68E8
:102DA800126912020A435A6500E000BFFB6800225C
:102DB80083F83C20002318461037BD4680BD00BF6D
:102DC80080B584B000AF786039607B6893F83C3098
:102DD800012B01D10223A6E07B68012283F83C2065
:102DE8007B68022283F83D207B681B689B68FB6038
:102DF800FA684F4B1340FB60FB6823F47F43FB608A
:102E08007B681B68FA689A603B681B68402B67D030
:102E1800402B0BD8102B73D0102B02D8002B6FD05F
:102E280078E0202B6CD0302B6AD073E0702B0DD05B
:102E3800702B04D8502B33D0602B41D06AE0B3F507
:102E4800805F66D0B3F5005F17D063E07B681868D1
:102E58003B6899683B685A683B68DB6800F014FC7B
:102E68007B681B689B68FB60FB6843F07703FB602B
:102E78007B681B68FA689A604CE07B6818683B6856
:102E880099683B685A683B68DB6800F0FDFB7B6823
:102E98001B687A681268926842F480429A6039E046
:102EA8007B6818683B6859683B68DB681A4600F01D
:102EB80071FB7B681B685021184600F0CAFB29E0AB
:102EC8007B6818683B6859683B68DB681A4600F0FD
:102ED80090FB7B681B686021184600F0BAFB19E07C
:102EE8007B6818683B6859683B68DB681A4600F0DD
:102EF80051FB7B681B684021184600F0AAFB09E0DB
:102F08007B681A683B681B681946104600F0A1FBED
:102F180000E000BF7B68012283F83D207B68002227
:102F280083F83C20002318461037BD4680BD00BFFB
:102F380088FFFEFF80B483B000AF786000BF0C3715
:102F4800BD465DF8047B704780B483B000AF7860FD
:102F580000BF0C37BD465DF8047B704780B483B072
:102F680000AF786000BF0C37BD465DF8047B704742
:102F780080B483B000AF786000BF0C37BD465DF801
:102F8800047B704780B483B000AF786000BF0C3713
:102F9800BD465DF8047B704780B485B000AF7860AB
:102FA80039607B681B68FB607B68404A934213D09A
:102FB8007B68B3F1804F0FD07B683D4A93420BD0BA
:102FC8007B683C4A934207D07B683B4A934203D0D4
:102FD8007B683A4A934208D1FB6823F07003FB6090
:102FE8003B685B68FA681343FB607B682F4A93422F
:102FF8002BD07B68B3F1804F27D07B682C4A934253
:1030080023D07B682B4A93421FD07B682A4A93427D
:103018001BD07B68294A934217D07B68284A934281
:1030280013D07B68274A93420FD07B68264A934285
:103038000BD07B68254A934207D07B68244A934289
:1030480003D07B68234A934208D1FB6823F440737A
:10305800FB603B68DB68FA681343FB60FB6823F09E
:1030680080023B685B691343FB607B68FA681A60FF
:103078003B689A687B68DA623B681A687B689A6280
:103088007B680A4A934203D07B680C4A934203D177
:103098003B681A697B681A637B6801225A6100BF22
:1030A8001437BD465DF8047B704700BF000001403F
:1030B8000004004000080040000C004000040140EB
:1030C8000040014000440140004801400018004011
:1030D800001C00400020004080B487B000AF78603A
:1030E80039607B681B6A23F001027B681A627B687F
:1030F8001B6A7B617B685B683B617B689B69FB60E3
:10310800FA682B4B1340FB60FB6823F00303FB605A
:103118003B681B68FA681343FB607B6923F0020372
:103128007B613B689B687A6913437B617B68214AB2
:10313800934203D07B68204A93420CD17B6923F0E9
:1031480008037B613B68DB687A6913437B617B69B1
:1031580023F004037B617B68164A934203D07B68A3
:10316800154A934211D13B6923F480733B613B6953
:1031780023F400733B613B685B693A6913433B6125
:103188003B689B693A6913433B617B683A695A60BB
:103198007B68FA689A613B685A687B685A637B68FF
:1031A8007A691A6200BF1C37BD465DF8047B704718
:1031B8008FFFFEFF000001400004014080B487B08B
:1031C80000AF786039607B681B6A23F010027B6867
:1031D8001A627B681B6A7B617B685B683B617B6802
:1031E8009B69FB60FA682E4B1340FB60FB6823F475
:1031F8004073FB603B681B681B02FA681343FB6063
:103208007B6923F020037B613B689B681B017A691B
:1032180013437B617B68234A934203D07B68224A2D
:1032280093420DD17B6923F080037B613B68DB68A7
:103238001B017A6913437B617B6923F040037B613F
:103248007B68184A934203D07B68174A934213D18C
:103258003B6923F480633B613B6923F400633B6172
:103268003B685B699B003A6913433B613B689B6918
:103278009B003A6913433B617B683A695A607B68F3
:10328800FA689A613B685A687B689A637B687A69CE
:103298001A6200BF1C37BD465DF8047B704700BF4B
:1032A800FF8FFFFE000001400004014080B487B09A
:1032B80000AF786039607B681B6A23F480727B6892
:1032C8001A627B681B6A7B617B685B683B617B6811
:1032D800DB69FB60FA682D4B1340FB60FB6823F049
:1032E8000303FB603B681B68FA681343FB607B6958
:1032F80023F400737B613B689B681B027A69134364
:103308007B617B68224A934203D07B68214A9342BF
:103318000DD17B6923F400637B613B68DB681B028A
:103328007A6913437B617B6923F480637B617B68E3
:10333800174A934203D07B68164A934213D13B69DC
:1033480023F480533B613B6923F400533B613B68A2
:103358005B691B013A6913433B613B689B691B012D
:103368003A6913433B617B683A695A607B68FA683B
:10337800DA613B685A687B68DA637B687A691A6243
:1033880000BF1C37BD465DF8047B70478FFFFEFF0A
:10339800000001400004014080B487B000AF7860AD
:1033A80039607B681B6A23F480527B681A627B68E9
:1033B8001B6A3B617B685B687B617B68DB69FB60E0
:1033C800FA681E4B1340FB60FB6823F44073FB60F4
:1033D8003B681B681B02FA681343FB603B6923F4D4
:1033E80000533B613B689B681B033A6913433B618D
:1033F8007B68134A934203D07B68124A934209D1EF
:103408007B6923F480437B613B685B699B017A6934
:1034180013437B617B687A695A607B68FA68DA6172
:103428003B685A687B681A647B683A691A6200BF0D
:103438001C37BD465DF8047B704700BFFF8FFFFE59
:10344800000001400004014080B487B000AF7860FC
:1034580039607B681B6A23F480327B681A627B6858
:103468001B6A3B617B685B687B617B685B6DFB60AB
:10347800FA681B4B1340FB603B681B68FA681343F0
:10348800FB603B6923F400333B613B689B681B048A
:103498003A6913433B617B68124A934203D07B68C5
:1034A800114A934209D17B6923F480337B613B68DD
:1034B8005B691B027A6913437B617B687A695A608E
:1034C8007B68FA685A653B685A687B689A657B68C6
:1034D8003A691A6200BF1C37BD465DF8047B704725
:1034E8008FFFFEFF000001400004014080B487B058
:1034F80000AF786039607B681B6A23F480127B68B0
:103508001A627B681B6A3B617B685B687B617B68CE
:103518005B6DFB60FA681C4B1340FB603B681B68E3
:103528001B02FA681343FB603B6923F400133B61F9
:103538003B689B681B053A6913433B617B68134AE8
:10354800934203D07B68124A934209D17B6923F4E2
:1035580080237B613B685B699B027A6913437B61CB
:103568007B687A695A607B68FA685A653B685A686A
:103578007B68DA657B683A691A6200BF1C37BD460A
:103588005DF8047B704700BFFF8FFFFE000001401D
:103598000004014080B487B000AFF860B9607A6079
:1035A800FB681B6A7B61FB681B6A23F00102FB68EE
:1035B8001A62FB689B693B613B6923F0F0033B613E
:1035C8007B681B013A6913433B617B6923F00A035B
:1035D8007B617A69BB6813437B61FB683A699A61CE
:1035E800FB687A691A6200BF1C37BD465DF8047B28
:1035F800704780B487B000AFF860B9607A60FB6844
:103608001B6A23F01002FB681A62FB689B697B61E6
:10361800FB681B6A3B617B6923F470437B617B68B1
:103628001B037A6913437B613B6923F0A0033B6169
:10363800BB681B013A6913433B61FB687A699A616D
:10364800FB683A691A6200BF1C37BD465DF8047B07
:10365800704780B485B000AF786039607B689B683C
:10366800FB60FB6823F07003FB603A68FB68134358
:1036780043F00703FB607B68FA689A6000BF143761
:10368800BD465DF8047B704780B487B000AFF86032
:10369800B9607A603B60FB689B687B617B6923F457
:1036A8007F437B613B681A027B681A43BB681343FC
:1036B8007A6913437B61FB687A699A6000BF1C379B
:1036C800BD465DF8047B704780B487B000AFF860F2
:1036D800B9607A60BB6803F01F03012202FA03F3A2
:1036E8007B61FB681A6A7B69DB431A40FB681A62D4
:1036F800FB681A6ABB6803F01F03796801FA03F3D1
:103708001A43FB681A6200BF1C37BD465DF8047B8C
:103718007047000080B485B000AF786039607B687E
:1037280093F83C30012B01D102236DE07B68012224
:1037380083F83C207B68022283F83D207B681B6865
:103748005B68FB607B681B689B68BB607B681B6869
:10375800304A934204D07B681B682F4A934208D1B1
:10376800FB6823F47003FB603B685B68FA681343EB
:10377800FB60FB6823F07003FB603B681B68FA681A
:103788001343FB607B681B68FA685A607B681B6898
:10379800204A934222D07B681B68B3F1804F1DD02A
:1037A8007B681B681D4A934218D07B681B681C4ABB
:1037B800934213D07B681B681A4A93420ED07B68E9
:1037C8001B68154A934209D07B681B68164A9342C6
:1037D80004D07B681B68154A93420CD1BB6823F060
:1037E8008003BB603B689B68BA681343BB607B6817
:1037F8001B68BA689A607B68012283F83D207B6861
:10380800002283F83C20002318461437BD465DF893
:10381800047B7047000001400004014000040040A0
:1038280000080040000C0040004001400018004023
:1038380080B483B000AF786000BF0C37BD465DF838
:10384800047B704780B483B000AF786000BF0C374A
:10385800BD465DF8047B704780B483B000AF7860E4
:1038680000BF0C37BD465DF8047B704780B582B059
:1038780000AF78607B68002B01D1012340E07B68B2
:103888009B6F002B06D17B68002283F87420786830
:10389800FDF79AF97B6824229A677B681B687A6827
:1038A8001268126822F001021A60786800F05CFB66
:1038B8000346012B01D1012322E07B685B6A002BC0
:1038C80002D0786800F0B0FD7B681B687A681268DF
:1038D800526822F490425A607B681B687A681268C2
:1038E800926822F02A029A607B681B687A681268DC
:1038F800126842F001021A60786800F037FE034649
:1039080018460837BD4680BD80B58AB002AFF8605A
:10391800B9603B601346FB80FB689B6F202B7FD10F
:10392800BB68002B02D0FB88002B01D1012378E073
:10393800FB6893F87430012B01D1022371E0FB6816
:10394800012283F87420FB680022C3F88020FB68FA
:1039580021229A67FDF730FA7861FB68FA88A3F8A4
:103968005020FB68FA88A3F85220FB689B68B3F5DF
:10397800805F08D1FB681B69002B04D10023FB6121
:10398800BB68BB6103E0BB68FB610023BB61FB68EC
:10399800002283F874202BE03B6800937B690022A7
:1039A8008021F86800F015FE0346002B01D00323A0
:1039B80037E0FB69002B0AD1FB681B68BA691288DB
:1039C800C2F308029A62BB690233BB6107E0FB6875
:1039D8001B68FA6912789A62FB690133FB61FB681C
:1039E800B3F852309BB2013B9AB2FB68A3F852205D
:1039F800FB68B3F852309BB2002BCDD13B680093E3
:103A08007B6900224021F86800F0E3FD0346002BA3
:103A180001D0032305E0FB6820229A67002300E019
:103A2800022318462037BD4680BD000080B485B00B
:103A380000AFF860B9601346FB80FB689B6F202BD2
:103A480045D1BB68002B02D0FB88002B01D1012394
:103A58003EE0FB6893F87430012B01D1022337E074
:103A6800FB68012283F87420FB68BA68DA64FB6893
:103A7800FA88A3F85020FB68FA88A3F85220FB685C
:103A880000229A66FB680022C3F88020FB68212286
:103A98009A67FB689B68B3F5805F07D1FB681B6971
:103AA800002B03D1FB680D4A9A6602E0FB680C4ABA
:103AB8009A66FB68002283F87420FB681B68FA6822
:103AC8001268126842F080021A60002300E00223A4
:103AD80018461437BD465DF8047B7047E148000876
:103AE8006F48000880B584B000AFF860B96013462D
:103AF800FB80FB68DB6F202B2CD1BB68002B02D02E
:103B0800FB88002B01D1012325E0FB6893F8743072
:103B1800012B01D102231EE0FB68012283F87420E7
:103B2800FB6800221A66FB681B685B6803F40003E5
:103B3800002B07D0FB681B68FA681268126842F00D
:103B480080621A60FB881A46B968F86800F0BEFD02
:103B5800034600E0022318461037BD4680BD00002A
:103B680080B588B000AF78607B681B68DB69FB6153
:103B78007B681B681B68BB617B681B689B687B61F3
:103B8800FA6940F60F0313403B613B69002B13D1E0
:103B9800FB6903F02003002B0ED0BB6903F0200360
:103BA800002B09D07B685B6E002B00F0BA817B6824
:103BB8005B6E78689847B4E13B69002B00F0E380BE
:103BC8007B6903F00103002B05D1BA69A54B1340AB
:103BD800002B00F0D880FB6903F00103002B10D004
:103BE800BB6903F48073002B0BD07B681B68012230
:103BF8001A627B68D3F8803043F001027B68C3F80F
:103C08008020FB6903F00203002B10D07B6903F0CE
:103C18000103002B0BD07B681B6802221A627B68A9
:103C2800D3F8803043F004027B68C3F88020FB6936
:103C380003F00403002B10D07B6903F00103002B71
:103C48000BD07B681B6804221A627B68D3F880302B
:103C580043F002027B68C3F88020FB6903F0080385
:103C6800002B15D0BB6903F02003002B04D17B691E
:103C780003F00103002B0BD07B681B6808221A6233
:103C88007B68D3F8803043F008027B68C3F8802053
:103C9800FB6903F40063002B11D0BB6903F0806358
:103CA800002B0CD07B681B684FF400621A627B689B
:103CB800D3F8803043F020027B68C3F880207B680B
:103CC800D3F88030002B00F02E81FB6903F020032D
:103CD800002B0CD0BB6903F02003002B07D07B68B6
:103CE8005B6E002B03D07B685B6E786898477B68B7
:103CF800D3F88030FB607B681B689B6803F0400347
:103D0800402B04D0FB6803F02803002B31D07868DF
:103D180000F064FD7B681B689B6803F04003402B40
:103D280023D17B681B687A681268926822F0400287
:103D38009A607B681B6F002B13D07B681B6F4A4A05
:103D48001A657B681B6F1846FDF7C1F90346002BFF
:103D580017D07B681B6F1B6D7A68126F10469847E7
:103D68000FE0786800F0EAF80BE0786800F0E6F811
:103D780007E0786800F0E2F87B680022C3F880204A
:103D8800D1E000BFCFE07B681B6E012B40F0A7801D
:103D9800FB6903F01003002B00F0A180BB6903F05E
:103DA8001003002B00F09B807B681B6810221A62AE
:103DB8007B681B689B6803F04003402B56D17B68E7
:103DC8001B6F1B685B687B817B89002B00F0AD80D3
:103DD8007B68B3F858307A899A4280F0A6807B686D
:103DE8007A89A3F85A207B681B6FDB69B3F5807F5B
:103DF8002AD07B681B687A681268126822F480727D
:103E08001A607B681B687A681268926822F001025F
:103E18009A607B681B687A681268926822F0400290
:103E28009A607B682022DA677B6800221A667B68C2
:103E38001B687A681268126822F010021A607B68A0
:103E48001B6F1846FDF7D3F87B68B3F858207B68DA
:103E5800B3F85A309BB2D31A9BB21946786800F06F
:103E680077F862E020010004434800087B68B3F853
:103E780058207B68B3F85A309BB2D31A3B817B68D1
:103E8800B3F85A309BB2002B51D03B89002B4ED04F
:103E98007B681B687A681268126822F490721A604C
:103EA8007B681B687A681268926822F001029A603F
:103EB8007B682022DA677B6800221A667B6800220A
:103EC8005A667B681B687A681268126822F01002CA
:103ED8001A603B891946786800F03AF827E0FB69D0
:103EE80003F08003002B0DD0BB6903F08003002B87
:103EF80008D07B689B6E002B1BD07B689B6E786814
:103F0800984716E0FB6903F04003002B12D0BB6909
:103F180003F04003002B0DD0786800F01AFD00BFB5
:103F280008E000BF06E000BF04E000BF02E000BFF9
:103F380000E000BF2037BD4680BD00BF80B483B01D
:103F480000AF786000BF0C37BD465DF8047B704752
:103F580080B483B000AF78600B467B8000BF0C371D
:103F6800BD465DF8047B704780B588B000AF7860C7
:103F78000023BB777B689A687B681B691A437B6858
:103F88005B691A437B68DB6913437B617B681A684A
:103F98007B681B681968B34B0B4079690B43136046
:103FA8007B681B687A681268526822F440517A6804
:103FB800D2680A435A607B689B697B617B681B6A8D
:103FC8007A6913437B617B681B687A681268926818
:103FD80022F430617A690A439A607B681B68A24AB6
:103FE800934221D1A14BD3F8903003F00303032B64
:103FF80016D801A252F823F0114000081D4000080D
:1040080017400008234000080123FB7750E10223F2
:10401800FB774DE10423FB774AE10823FB7747E16F
:104028001023FB7700BF43E17B681B68904A9342EB
:1040380034D18E4BD3F8903003F00C030C2B29D8D5
:1040480001A252F823F000BF854000089D400008F7
:104058009D4000089D400008914000089D400008D0
:104068009D4000089D4000088B4000089D400008C6
:104078009D4000089D400008974000080023FB77FA
:1040880016E10223FB7713E10423FB7710E10823F1
:10409800FB770DE11023FB7700BF09E17B681B6804
:1040A800744A934220D1714BD3F8903003F0300317
:1040B800102B0FD0102B02D8002B05D010E0202B8E
:1040C80005D0302B09D00BE00023FB77F0E002236A
:1040D800FB77EDE00423FB77EAE00823FB77E7E0D2
:1040E8001023FB7700BFE3E07B681B68624A9342BA
:1040F80020D15E4BD3F8903003F0C003402B0FD093
:10410800402B02D8002B05D010E0802B05D0C02B07
:1041180009D00BE00023FB77CAE00223FB77C7E056
:104128000423FB77C4E00823FB77C1E01023FB7767
:1041380000BFBDE07B681B68504A934224D14B4BBB
:10414800D3F8903003F44073B3F5807F12D0B3F501
:10415800807F02D8002B07D012E0B3F5007F06D08D
:10416800B3F5407F09D00BE00023FB77A0E00223E2
:10417800FB779DE00423FB779AE00823FB7797E021
:104188001023FB7700BF93E07B681B683C4A93428F
:1041980024D1364BD3F8903003F44063B3F5806FE5
:1041A80012D0B3F5806F02D8002B07D012E0B3F518
:1041B800006F06D0B3F5406F09D00BE00123FB7701
:1041C80076E00223FB7773E00423FB7770E0082393
:1041D800FB776DE01023FB7700BF69E07B681B6805
:1041E800284A934224D1214BD3F8903003F440530A
:1041F800B3F5805F12D0B3F5805F02D8002B07D0EB
:1042080012E0B3F5005F06D0B3F5405F09D00BE0CC
:104218000023FB774CE00223FB7749E00423FB777C
:1042280046E00823FB7743E01023FB7700BF3FE01D
:104238007B681B68144A934238D10C4BD3F89030F2
:1042480003F44043B3F5804F26D0B3F5804F02D82E
:10425800002B1BD026E0B3F5004F1AD0B3F5404F22
:104268001DD01FE0F369FFEF001001400038024045
:104278000044004000480040004C0040005000400E
:104288000014014000780040007C00400023FB77C8
:104298000EE00223FB770BE00423FB7708E00823FA
:1042A800FB7705E01023FB7700BF01E01023FB77C5
:1042B8007B68DB69B3F5004F5CD1FB7F082B28D8FE
:1042C80001A252F823F000BFF5420008FD420008A1
:1042D800054300081B4300080B4300081B43000864
:1042E8001B4300081B43000813430008FDF728FD83
:1042F800B86113E0FDF738FDB8610FE0494BBB61C9
:104308000CE0FDF75BFCB86108E04FF40043BB61CB
:1043180004E00023BB610123BB7700BFBB69002B0E
:1043280074D0BB695A007B685B685B081A447B6879
:104338005B68B2FBF3F39BB23B613B690F2B16D969
:104348003B69B3F5803F12D23B699BB223F00F0360
:10435800FB813B695B089BB203F007039AB2FB89B8
:104368001343FB817B681B68FA89DA604EE00123FE
:10437800BB774BE0FB7F082B27D801A252F823F02C
:10438800AD430008B5430008BD430008D343000807
:10439800C3430008D3430008D3430008D3430008AD
:1043A800CB430008FDF7CCFCB86113E0FDF7DCFC5B
:1043B800B8610FE01B4BBB610CE0FDF7FFFBB86178
:1043C80008E04FF40043BB6104E00023BB61012314
:1043D800BB7700BFBB69002B18D07B685B685A08A5
:1043E800BB691A447B685B68B2FBF3F39BB23B6121
:1043F8003B690F2B08D93B69B3F5803F04D27B6832
:104408001B683A69DA6001E00123BB777B68002208
:104418005A667B6800229A66BB7F18462037BD46DD
:1044280080BD00BF0024F40080B483B000AF786082
:104438007B685B6A03F00103002B0AD07B681B686A
:104448007A681268526822F400317A68926A0A43DC
:104458005A607B685B6A03F00203002B0AD07B6812
:104468001B687A681268526822F480317A68D26AC6
:104478000A435A607B685B6A03F00403002B0AD086
:104488007B681B687A681268526822F480217A680F
:10449800126B0A435A607B685B6A03F00803002BBF
:1044A8000AD07B681B687A681268526822F4004157
:1044B8007A68526B0A435A607B685B6A03F01003A0
:1044C800002B0AD07B681B687A681268926822F40D
:1044D80080517A68926B0A439A607B685B6A03F042
:1044E8002003002B0AD07B681B687A6812689268E0
:1044F80022F400517A68D26B0A439A607B685B6A3F
:1045080003F04003002B1AD07B681B687A68126896
:10451800526822F480117A68126C0A435A607B68E8
:104528001B6CB3F5801F0AD17B681B687A68126818
:10453800526822F4C0017A68526C0A435A607B6858
:104548005B6A03F08003002B0AD07B681B687A68DB
:104558001268526822F400217A68926C0A435A6001
:1045680000BF0C37BD465DF8047B704780B586B048
:1045780002AF78607B680022C3F88020FCF71CFC3F
:10458800F8607B681B681B6803F00803082B0ED1D2
:104598006FF07E430093FB6800224FF400117868A7
:1045A80000F017F80346002B01D003230DE07B68C9
:1045B80020229A677B682022DA677B6800221A66C5
:1045C8007B68002283F87420002318461037BD4604
:1045D80080BD80B584B000AFF860B9603B60134619
:1045E800FB715EE0BB69B3F1FF3F5AD0FCF7E4FB17
:1045F80002463B68D21ABB699A4202D8BB69002BB3
:104608001BD1FB681B68FA681268126822F4D07222
:104618001A60FB681B68FA681268926822F0010247
:104628009A60FB6820229A67FB682022DA67FB6899
:10463800002283F87420032343E0FB681B681B688F
:1046480003F00403002B2CD0FB681B68DB6903F420
:104658000063B3F5006F24D1FB681B684FF4006258
:104668001A62FB681B68FA681268126822F4D07232
:104678001A60FB681B68FA681268926822F00102E7
:104688009A60FB6820229A67FB682022DA67FB6839
:104698002022C3F88020FB68002283F874200323BB
:1046A8000FE0FB681B68DA69BB681A40BB689A426E
:1046B8000CBF01230023DBB21A46FB799A4291D042
:1046C800002318461037BD4680BD000080B485B071
:1046D80000AFF860B9601346FB80FB68BA685A659A
:1046E800FB68FA88A3F85820FB68FA88A3F85A20D0
:1046F800FB6800225A66FB689B68B3F5805F0ED1A1
:10470800FB681B69002B05D1FB6840F2FF12A3F878
:104718005C202DE0FB68FF22A3F85C2028E0FB6802
:104728009B68002B0DD1FB681B69002B04D1FB682B
:10473800FF22A3F85C201BE0FB687F22A3F85C2023
:1047480016E0FB689B68B3F1805F0DD1FB681B69BD
:10475800002B04D1FB687F22A3F85C2008E0FB68EB
:104768003F22A3F85C2003E0FB680022A3F85C204A
:10477800FB680022C3F88020FB682222DA67FB6806
:104788001B68FA681268926842F001029A60FB6836
:104798009B68B3F5805F07D1FB681B69002B03D1C9
:1047A800FB680C4A5A6602E0FB680B4A5A66FB68CB
:1047B800002283F87420FB681B68FA681268126884
:1047C80042F490721A60002318461437BD465DF80B
:1047D800047B7047614A00088D49000880B483B0A3
:1047E80000AF78607B681B687A681268126822F4E8
:1047F80090721A607B681B687A681268926822F067
:1048080001029A607B681B6E012B07D17B681B68CD
:104818007A681268126822F010021A607B682022F7
:10482800DA677B6800221A667B6800225A6600BF36
:104838000C37BD465DF8047B704780B584B000AF87
:1048480078607B689B6BFB60FB680022A3F85A20AA
:10485800FB680022A3F85220F868FFF76FFB00BF3F
:104868001037BD4680BD80B483B000AF78607B68E8
:104878009B6F212B2AD17B68B3F852309BB2002B57
:1048880010D17B681B687A681268126822F080026F
:104898001A607B681B687A681268126842F04002E6
:1048A8001A6013E07B681B687A68D26C12789A6287
:1048B8007B68DB6C5A1C7B68DA647B68B3F852301F
:1048C8009BB2013B9AB27B68A3F8522000BF0C3719
:1048D800BD465DF8047B704780B485B000AF786052
:1048E8007B689B6F212B2ED17B68B3F852309BB22B
:1048F800002B10D17B681B687A681268126822F056
:1049080080021A607B681B687A681268126842F035
:1049180040021A6017E07B68DB6CFB607B681B68F1
:10492800FA681288C2F308029A627B68DB6C9A1CE8
:104938007B68DA647B68B3F852309BB2013B9AB269
:104948007B68A3F8522000BF1437BD465DF8047B8E
:10495800704780B582B000AF78607B681B687A6862
:104968001268126822F040021A607B6820229A6757
:104978007B6800229A667868FBF756FE00BF083706
:10498800BD4680BD80B584B000AF78607B68B3F861
:104998005C30FB817B68DB6F222B51D17B681B6805
:1049A8005B6ABB817B685B6DBA89D1B2FA89D2B286
:1049B8000A40D2B21A707B685B6D5A1C7B685A65D4
:1049C8007B68B3F85A309BB2013B9AB27B68A3F874
:1049D8005A207B68B3F85A309BB2002B38D17B68D9
:1049E8001B687A681268126822F490721A607B68F1
:1049F8001B687A681268926822F001029A607B68E4
:104A08002022DA677B6800225A667B681B6E012BBE
:104A18000FD17B681B687A681268126822F010024E
:104A28001A607B68B3F8583019467868FFF790FA2F
:104A380002E07868FBF76CFD7B6800221A6607E0E5
:104A48007B681B687A681268926942F008029A616A
:104A580000BF1037BD4680BD80B584B000AF786018
:104A68007B68B3F85C30FB817B68DB6F222B51D10C
:104A78007B681B685B6ABB817B685B6DBB60BA89BE
:104A8800FB8913409AB2BB681A807B685B6D9A1CDD
:104A98007B685A657B68B3F85A309BB2013B9AB27F
:104AA8007B68A3F85A207B68B3F85A309BB2002B76
:104AB80038D17B681B687A681268126822F4907291
:104AC8001A607B681B687A681268926822F0010293
:104AD8009A607B682022DA677B6800225A667B68C6
:104AE8001B6E012B0FD17B681B687A6812681268ED
:104AF80022F010021A607B68B3F8583019467868BB
:104B0800FFF726FA02E07868FBF702FD7B680022CF
:104B18001A6607E07B681B687A681268926942F037
:104B280008029A6100BF1037BD4680BDDFF834D057
:104B38000D480E490E4A002302E0D458C4500433ED
:104B4800C4188C42F9D30B4A0B4C002301E01360C4
:104B58000432A242FBD3FCF7CBF800F011F8FBF7C4
:104B68006DFD7047000005200000002010000020A7
:104B7800484C00081000002060010020FEE70000FB
:104B880070B50D4E0D4CA41BA4100025A54209D1EB
:104B98000B4E0C4C00F020F8A41BA4100025A542D5
:104BA80005D170BD56F8253098470135EEE756F81F
:104BB800253098470135F2E7404C0008404C000882
:104BC800404C0008444C000802440346934200D17C
:104BD800704703F8011BF9E7F8B500BFF8BC08BC3B
:104BE8009E467047F8B500BFF8BC08BC9E467047A3
:104BF80041646A6F6E206D65672065677920E97288
:104C080074E96B657420302D31303025206BF67ACD
:104C1800F67474210000000000000000000000008D
:104C2800010203040607080900000000010203044A
:084C380000B6FF7F010000003F
:044C4000ED0100087A
:044C4400C90100089A
:104C4800010000000024F400100000000100000032
:0400000508004B356F
:00000001FF
