:020000040800F2
:1000000000000520F95200083D16000843160008BC
:10001000491600084F160008551600080000000099
:100020000000000000000000000000005B16000857
:100030006916000800000000771600088516000801
:100040004953000849530008495300084953000820
:100050004953000849530008495300084953000810
:100060004953000849530008495300084953000800
:1000700049530008495300084953000849530008F0
:1000800049530008495300084953000849530008E0
:1000900049530008495300084953000849530008D0
:1000A00049530008495300084953000849530008C0
:1000B00049530008495300089116000849530008A5
:1000C00049530008495300084953000849530008A0
:1000D000495300084953000849530008A516000871
:1000E000495300084953000849530008B91600084D
:1000F0004953000849530008495300084953000870
:10010000495300084953000849530008495300085F
:10011000495300084953000849530008495300084F
:10012000495300084953000849530008495300083F
:10013000495300084953000849530008495300082F
:10014000495300084953000849530008495300081F
:10015000495300084953000849530008495300080F
:1001600049530008495300084953000849530008FF
:1001700049530008495300084953000849530008EF
:1001800049530008495300084953000849530008DF
:1001900049530008495300084953000849530008CF
:1001A00049530008495300084953000849530008BF
:1001B00049530008495300084953000849530008AF
:0801C0004953000849530008EF
:1001C80010B5054C237833B9044B13B10448AFF389
:1001D80000800123237010BD900000200000000063
:1001E800B453000808B5034B1BB103490348AFF3E8
:1001F800008008BD0000000094000020B4530008EF
:1002080010F8012B11F8013B012A28BF9A42F7D0B8
:10021800D01A704753B94AB9002908BF00281CBF33
:100228004FF0FF314FF0FF3000F07AB9ADF1080C14
:100238006DE904CE00F006F8DDF804E0DDE90223FC
:1002480004B070472DE9F0478C460D460446089ED9
:10025800002B51D18A4217466DD9B2FA82FEBEF1FF
:10026800000F0BD0CEF1200C01FA0EF520FA0CFC91
:1002780002FA0EF74CEA050C00FA0EF44FEA174A98
:10028800250CBCFBFAF81FFA87F90AFB18CC45EADB
:100298000C4508FB09F3AB420AD9ED1908F1FF3206
:1002A80080F02381AB4240F22081A8F102083D444E
:1002B800ED1AA4B2B5FBFAF00AFB105544EA05445E
:1002C80000FB09F9A14509D9E41900F1FF3380F0D1
:1002D8000A81A14540F2078102383C44A4EB090495
:1002E80040EA08400021002E61D024FA0EF40023D1
:1002F80034607360BDE8F0878B4207D9002E54D074
:10030800002186E821000846BDE8F087B3FA83F1AA
:10031800002940F08E80AB4202D3824200F2FA807C
:10032800841A65EB03050120AC46002E3FD086E811
:100338001010BDE8F08712B90127B7FBF2F7B7FA3A
:1003480087FEBEF1000F34D1EB1B3A0C1FFA87FC75
:100358000121B3FBF2F8250C02FB183345EA0345EB
:100368000CFB08F3AB4207D9ED1908F1FF3002D2B4
:10037800AB4200F2D1808046ED1AA3B2B5FBF2F091
:1003880002FB105543EA05440CFB00FCA44507D9C1
:10039800E41900F1FF3302D2A44500F2B8801846F0
:1003A800A4EB0C0440EA08409DE731463046BDE81E
:1003B800F087CEF1200405FA0EF307FA0EF720FABB
:1003C80004F83A0C25FA04F448EA0308B4FBF2F1FD
:1003D8004FEA184502FB11441FFA87FC45EA044519
:1003E80001FB0CF3AB4200FA0EF409D9ED1901F147
:1003F800FF3080F08A80AB4240F2878002393D446A
:10040800EB1A1FFA88F5B3FBF2F002FB103345EA4A
:10041800034500FB0CF3AB4207D9ED1900F1FF3897
:100428006FD2AB426DD902383D44EB1A40EA014124
:100438008FE7C1F1200722FA07F88B4005FA01F48B
:1004480048EA030320FA07FE4FEA134CFD404EEA40
:10045800040EB5FBFCF94FEA1E440CFB19551FFAB4
:1004680083F844EA054509FB08F4AC4202FA01F2B4
:1004780000FA01FA08D9ED1809F1FF3043D2AC426D
:1004880041D9A9F102091D442D1B1FFA8EFEB5FBA7
:10049800FCF00CFB10554EEA054400FB08F8A0459B
:1004A80007D9E41800F1FF3529D2A04527D9023829
:1004B8001C4440EA0940A4EB0804A0FB02894C450F
:1004C800C6464D4615D312D056B1BAEB0E0364EBAF
:1004D800050404FA07F7CB401F43CC40376074602B
:1004E8000021BDE8F0871846F8E69046E0E6C245E8
:1004F800EAD2B8EB020E69EB03050138E4E72846B7
:10050800D7E7404691E78146BEE7014678E70238DB
:100518003C4445E7084608E7A8F102083D442BE7B4
:10052800704700BF80B500AF062001F03FF90122F7
:100538004FF48061084801F097FF052001F036F973
:1005480000224FF48061044801F08EFF012001F081
:100558002DF900BF80BD00BF0010024080B582B0F9
:1005680000AF0346FB71FB79DB09DBB21A464FF497
:1005780080612E4801F078FFFB799B09DBB203F01C
:100588000103DBB21A464FF40041294801F06CFF21
:10059800FB795B09DBB203F00103DBB21A464FF4C7
:1005A8008041234801F060FFFB791B09DBB203F0AF
:1005B8000103DBB21A464FF480511D4801F054FF85
:1005C800FFF7B0FFFB79DB08DBB203F00103DBB216
:1005D8001A464FF48061154801F046FFFB799B08E5
:1005E800DBB203F00103DBB21A464FF400411048B6
:1005F80001F03AFFFB795B08DBB203F00103DBB2E1
:100608001A464FF480410A4801F02EFFFB7903F0A7
:100618000103DBB21A464FF48051054801F024FF6C
:10062800FFF780FF00BF0837BD4680BD00040240C9
:100638000010024080B582B000AF0346FB71012272
:100648008021054801F010FFFB791846FFF786FF67
:1006580000BF0837BD4680BD0010024080B582B09B
:1006680000AF0346FB7100228021054801F0FCFE23
:10067800FB791846FFF772FF00BF0837BD4680BDFB
:100688000010024080B500AF2020FFF7E7FFFFF71A
:1006980049FFFFF747FFFFF745FF2820FFF7DEFF79
:1006A8002820FFF7DBFF2820FFF7D8FF0220FFF7FD
:1006B800D5FF0120FFF7D2FF0C20FFF7CFFF00BFC7
:1006C80080BD80B582B000AF786006E07B685A1CB8
:1006D8007A601B781846FFF7ADFF7B681B78002B04
:1006E800F4D100BF0837BD4680BD000080B584B096
:1006F80000AF03460A46FB711346BB71BB79013B49
:10070800032B20D801A252F823F000BF25070008C8
:100718002D070008350700083D070008FB79803BD6
:10072800FB730BE0FB79403BFB7307E0FB79703B05
:10073800FB7303E0FB79303BFB7300BFFB7B184680
:10074800FFF78CFF00E000BF1037BD4680BD00BF3B
:1007580080B582B000AF78601749184804F01EFED3
:100768001749154804F01AFE1649154804F016FEF4
:100778007968144804F012FE04210020FFF7B6FF40
:100788001048FFF79EFF03210020FFF7AFFF0C483A
:10079800FFF797FF02210020FFF7A8FF0648FFF7A1
:1007A80090FF01210020FFF7A1FF0448FFF789FF10
:1007B80000BF0837BD4680BDD40100202C020020B0
:1007C80090020020C401002080B582B000AF00F084
:1007D80077FD00F0C1FD0346FB71FB790A2B0DD1B3
:1007E8006E4B01221A7014233C226D496D4803F0A8
:1007F8001BFE01226C496B4803F0A6FE6B4B1B786D
:10080800002B19D0FB79082B40F0C480684B1B786B
:10081800082B00F0BF80664B08221A70654B1B68D6
:1008280028225A636448FFF793FF1423022263497E
:100838005C4803F0F9FDADE0584B1B78002B40F005
:10084800AA80FB79013B072B00F2988001A252F89D
:1008580023F000BF7D080008A7080008C1080008A9
:10086800DB080008FD0800081F0900084109000806
:1008780063090008524B01221A70524B14221A7055
:100888004C4B1B684F4A12785A634F48FFF760FF7A
:10089800142302224D49434803F0C6FD6EE0484B3D
:1008A80002221A704A48FFF753FF142302224949CB
:1008B8003C4803F0B9FD61E0414B03221A704648F9
:1008C800FFF746FF142302224449364803F0ACFDE3
:1008D80054E03B4B04221A70364B1B6805225A63BE
:1008E8003F48FFF735FF142302223E492D4803F005
:1008F8009BFD43E0324B05221A702E4B1B683222B7
:100908005A633948FFF724FF142302223749254840
:1009180003F08AFD32E02A4B06221A70254B1B6829
:1009280062225A633248FFF713FF14230222314927
:100938001C4803F079FD21E0214B07221A701D4B5A
:100948001B6832225A632C48FFF702FF1423022245
:100958002A49144803F068FD10E0194B08221A7060
:10096800144B1B6828225A631348FFF7F1FE14231F
:10097800022212490B4803F057FD00BF104B1B78A9
:10098800002B08D00E4B1A78094B1A700C4B00221A
:100998001A7000E000BF0837BD4680BDB3000020D4
:1009A80000000020FC000020B2000020B50000205C
:1009B800AF00002050020020CC530008D853000894
:1009C800AE000020B0000020DC530008E45300080B
:1009D800E8530008F8530008FC53000808540008BE
:1009E8000C54000814540008185400082454000833
:1009F80028540008345400083854000844540008A7
:100A080080B483B000AF78604C4B1B8841F28832C9
:100A180093423DD14A4B1B78012B02D0082B10D0B2
:100A28001FE0484B1B78002B05D0464B1B780A3B30
:100A3800DAB2444B1A70444B1B68424A12785A6324
:100A48000FE0404B1B78632B0AD83F4B1B683D4A8D
:100A580012785A633B4B1B780A33DAB2394B1A7057
:100A680000BF374B1B78032B0FD1374B1B68354A18
:100A780012785A63334B1B78002B03D0314B00227A
:100A88001A7002E02F4B64221A702C4B00221A8035
:100A98002A4B1B882D4AA2FB031292094FF47A7144
:100AA80001FB02F29B1A9BB2002B3BD1244B1B7813
:100AB800022B0FD1244B1B68224A12785A63214B10
:100AC8001B78002B03D01F4B00221A7002E01D4B2D
:100AD80064221A701A4B1B78072B23D11C4B1B78E6
:100AE800002B06D0174B1B780A33DAB2154B1A7055
:100AF80005E0144B1B780A3BDAB2124B1A70114B03
:100B08001B78642B02D1124B00221A700D4B1B78F4
:100B1800002B02D10E4B01221A700B4B1B68094A9D
:100B280012785A63054B1B8801339AB2034B1A801B
:100B380000BF0C37BD465DF8047B7047AC00002051
:100B4800AF000020B000002050020020D34D6210FA
:100B5800B100002080B582B000AF7860214B1B78CF
:100B68000D2B29D1204B1B78002B06D11F4B0022BF
:100B78001A701F4B00221A702BE01E491A48FFF703
:100B88003FFB0346002B06D11B4B01221A70184B62
:100B980000221A701DE019491348FFF731FB03467C
:100BA800002B16D1144B00221A70104B00221A7019
:100BB8000F4B00221A700CE00D4B1B781A46094B9C
:100BC8001978094B99540A4B1B780133DAB2084B50
:100BD8001A70012203490A4803F0B6FC00BF08371F
:100BE800BD4680BDB20000203C020020B3000020BA
:100BF800B400002048540008B500002050540008F4
:100C0800FC00002080B500AF00F072FD00F036F85F
:100C180000F022FA00F052F900F0AAF900F0A8F862
:100C280000F0FAF800F0E8F900210E4802F0F4FCB0
:100C38000D4802F09BFC01220C490D4803F084FC8E
:100C48000C4800F019FEFFF71DFD0120FFF706FD17
:100C58008020FFF703FD0848FFF733FDFFF7B4FDD9
:100C6800FCE700BF50020020BC000020B2000020BA
:100C7800FC0000207C0100205854000880B5B4B066
:100C880000AF07F1A00330220021184604F07EFBD4
:100C980007F18C0300221A605A609A60DA601A61C0
:100CA80007F1080384220021184604F06FFB2E4A3E
:100CB8002D4B1B6C43F0805313642B4B1B6C03F0C0
:100CC80080537B607B68294A284B1B6823F4404388
:100CD80043F480431360254B1B6803F440433B6097
:100CE8003B680223C7F8A0300123C7F8AC301023B3
:100CF800C7F8B0300023C7F8B83007F1A00318468A
:100D080001F0CCFB0346002B01D000F075FA0F234D
:100D1800C7F88C300023C7F890300023C7F8943008
:100D28000023C7F898300023C7F89C3007F18C03DC
:100D38000021184601F056FE0346002B01D000F0B2
:100D48005BFA4FF48073BB6000237B6507F10803EF
:100D5800184602F01DF80346002B01D000F04CFAAB
:100D680000BFD037BD4680BD00380240007000404B
:100D780080B584B000AF3B4600221A605A609A6082
:100D8800DA60214B214A1A601F4B00225A601E4B21
:100D980000229A601C4B00221A611B4B00229A61A8
:100DA800194B002283F82020174B0022DA62164BD9
:100DB800174A9A62144B0022DA60134B0122DA6157
:100DC800114B002283F830200F4B01225A610E4844
:100DD80000F00EFD0346002B01D000F00DFA0D4B7C
:100DE8003B6001237B600023BB603B4619460648F5
:100DF80000F002FE0346002B01D000F0FDF900BF11
:100E08001037BD4680BD00BFE4010020002001402E
:100E18000100000F1200001080B584B000AF3B46FF
:100E280000221A605A609A60DA60214B214A1A60DF
:100E38001F4B00225A601E4B00229A601C4B002256
:100E48001A611B4B00229A61194B002283F820205B
:100E5800174B0022DA62164B174A9A62144B00228B
:100E6800DA60134B0122DA61114B002283F830203B
:100E78000F4B01225A610E4800F0BAFC0346002BC2
:100E880001D000F0B9F903233B6001237B60002304
:100E9800BB603B461946064800F0AEFD0346002BF2
:100EA80001D000F0A9F900BF1037BD4680BD00BFD2
:100EB8007C010020002101400100000F80B58AB0AC
:100EC80000AF07F11C0300221A605A609A603B4683
:100ED80000221A605A609A60DA601A615A619A614F
:100EE800214B224A1A60204B0F225A601E4B0022C7
:100EF8009A601D4B6422DA601B4B00221A611A4B60
:100F080000229A61184802F05BFB0346002B01D0CF
:100F180000F072F90023FB6100237B6207F11C03D8
:100F28001946114803F086F90346002B01D000F05A
:100F380063F960233B6005237B600023BB600023CB
:100F48003B613B4604221946074802F00FFD034661
:100F5800002B01D000F050F9034800F0C3FA00BF9D
:100F68002837BD4680BD00BFBC00002000080040F7
:100F780080B588B000AF3B1D00221A605A609A60A5
:100F8800DA601A615A619A61194B1A4A1A60184B49
:100F98000F225A60164B00229A60154B6422DA60C1
:100FA800134B00221A61124B00229A61104802F07A
:100FB80007FB0346002B01D000F01EF960237B607D
:100FC8000523BB600023FB6000237B613B1D0022DF
:100FD8001946074802F0CAFC0346002B01D000F06E
:100FE8000BF9034800F07EFA00BF2037BD4680BDEC
:100FF800500200200018004080B500AF144B154A7D
:101008001A60134B4FF4E1325A60114B00229A6078
:101018000F4B0022DA600E4B00221A610C4B0C2297
:101028005A610B4B00229A61094B0022DA61084B86
:1010380000221A62064B00225A62054803F0A6F9FC
:101048000346002B01D000F0D7F800BF80BD00BFD9
:10105800FC0000200048004080B58CB000AF07F1CC
:101068001C0300221A605A609A60DA601A615D4AAD
:101078005C4B1B6B43F0010313635A4B1B6B03F070
:101088000103BB61BB69574A564B1B6B43F0020314
:101098001363544B1B6B03F002037B617B69514A5A
:1010A800504B1B6B43F0200313634E4B1B6B03F039
:1010B80020033B613B694B4A4A4B1B6B43F01003CF
:1010C8001363484B1B6B03F01003FB60FB68454A36
:1010D800444B1B6B43F008031363424B1B6B03F039
:1010E8000803BB60BB683F4A3E4B1B6B43F04003A1
:1010F80013633C4B1B6B03F040037B607B6800224F
:1011080040F20141384801F0AFF900224FF4404164
:10111800364801F0A9F900224FF28041344801F025
:10112800A3F900224FF48041324801F09DF940F2C2
:101138000143FB6101233B6200237B620023BB6206
:1011480007F11C031946284800F0CCFF4FF4005360
:10115800FB6100233B6200237B6207F11C031946F5
:10116800224800F0BFFF4FF44043FB6101233B627C
:1011780000237B620023BB6207F11C0319461B484E
:1011880000F0B0FF4FF28043FB6101233B62002374
:101198007B620023BB6207F11C031946144800F068
:1011A800A1FF4FF42063FB6100233B6200237B62B5
:1011B80007F11C0319460E4800F094FF4FF48043D2
:1011C800FB6101233B6200237B620023BB6207F1C2
:1011D8001C031946074800F085FF00BF3037BD469D
:1011E80080BD00BF003802400004024000140240E5
:1011F800001002400018024080B400AF72B6FEE74B
:1012080080B584B000AF0346FB710023FB7320E078
:10121800FA7BFB79013B9A420CD1FB7B104A52F8CE
:101228002300FB7B0F4A32F813300122194601F0E4
:101238001BF90BE0FB7B0A4A52F82300FB7B094AA7
:1012480032F813300022194601F00EF9FB7B013306
:10125800FB73FB7B032BDBD900BF1037BD4680BD7A
:10126800580000204000002080B582B000AF002365
:10127800FB7100237B710023BB7115E0BB790E4A1B
:1012880052F82300BB790D4A32F81330194601F0A1
:10129800D3F803467B71FB795B00DAB27B791344A0
:1012A800FB71BB790133BB71BB79062BE6D9FB799E
:1012B80018460837BD4680BD680000204800002059
:1012C80080B582B000AF0023FB710023BB711F4BB8
:1012D8001B781846FFF794FF052000F067FAFFF720
:1012E800C3FF0346BB711AE0FB79194AD35CBA798C
:1012F8009A420ED1174AFB79137000BFFFF7B4FF6B
:1013080003461946FB79124AD35C9942F6D000236A
:1013180017E0104B0C221A70FB790133FB71FB7933
:101328000B2BE1D9094B1B78032B06D8074B1B78ED
:101338000133DAB2054B1A7002E0044B01221A702D
:10134800012318460837BD4680BD00BF3C00002079
:101358005C5400083D00002080B400AF034B1B78AC
:101368001846BD465DF8047B704700BF3D0000206D
:1013780080B483B000AF0F4A0E4B1B6C43F0805310
:1013880013640C4B1B6C03F080537B607B68094A29
:10139800084B5B6C43F480435364064B5B6C03F46B
:1013A80080433B603B6800BF0C37BD465DF8047B5B
:1013B800704700BF0038024080B58AB000AF78603F
:1013C80007F1140300221A605A609A60DA601A6101
:1013D8007B681B681E4A93420CD11E4A1D4B5B6CEE
:1013E80043F4807353641B4B5B6C03F480733B6161
:1013F8003B6928E07B681B68174A934223D1154A4A
:10140800144B5B6C43F400735364124B5B6C03F432
:101418000073FB60FB680F4A0E4B1B6B43F0010324
:1014280013630C4B1B6B03F00103BB60BB68082301
:101438007B610323BB610023FB6107F11403194699
:10144800064800F04FFE00BF2837BD4680BD00BFEC
:101458000020014000380240002101400000024005
:1014680080B584B000AF78607B681B681A4A9342E5
:1014780014D11A4A194B1B6C43F004031364174B1D
:101488001B6C03F00403FB60FB68002200211E2094
:1014980000F0CFFD1E2000F0E8FD18E07B681B6817
:1014A8000F4A934213D10D4A0C4B1B6C43F0400377
:1014B80013640A4B1B6C03F04003BB60BB6800223B
:1014C80000212B2000F0B5FD2B2000F0CEFD00BF41
:1014D8001037BD4680BD00BF0008004000380240FC
:1014E8000018004080B58AB000AF786007F1140397
:1014F80000221A605A609A60DA601A617B681B6879
:10150800224A93421CD1224A214B1B6B43F002030F
:1015180013631F4B1B6B03F002033B613B69802382
:101528007B610223BB610023FB6100233B62022332
:101538007B6207F114031946164800F0D3FD21E039
:101548007B681B68144A93421CD1114A104B1B6BD1
:1015580043F0020313630E4B1B6B03F00203FB60A3
:10156800FB684FF480437B610223BB610023FB616E
:1015780000233B6209237B6207F1140319460548DF
:1015880000F0B0FD00BF2837BD4680BD0008004010
:1015980000380240000402400018004080B58AB0BC
:1015A80000AF786007F1140300221A605A609A604D
:1015B800DA601A617B681B681B4A934230D11B4A68
:1015C8001A4B1B6C43F480231364184B1B6C03F4F5
:1015D80080233B613B69154A144B1B6B43F008039E
:1015E8001363124B1B6B03F00803FB60FB684FF49B
:1015F80040737B610223BB610023FB6103233B62D1
:1016080007237B6207F114031946094800F06AFDB5
:1016180000220021272000F00CFD272000F025FDE6
:1016280000BF2837BD4680BD004800400038024052
:10163800000C024080B400AFFEE780B400AFFEE7C4
:1016480080B400AFFEE780B400AFFEE780B400AF1F
:10165800FEE780B400AF00BFBD465DF8047B70476D
:1016680080B400AF00BFBD465DF8047B704780B40E
:1016780000AF00BFBD465DF8047B704780B500AF82
:1016880000F074F800BF80BD80B500AF024802F0DA
:101698004DF800BF80BD00BFBC00002080B500AF82
:1016A800024802F0F3FF00BF80BD00BFFC0000202D
:1016B80080B500AF024802F039F800BF80BD00BF16
:1016C8005002002080B400AF084A084BD3F8883095
:1016D80043F47003C2F88830044B4FF000629A60FC
:1016E80000BFBD465DF8047B704700BF00ED00E019
:1016F80080B500AF032000F091FC002000F006F850
:10170800FFF736FE0023184680BD000080B582B082
:1017180000AF7860124B1A68124B1B7819464FF4C9
:101728007A73B3FBF1F3B2FBF3F3184600F0ABFCAA
:101738000346002B01D001230EE07B680F2B0AD84B
:10174800002279684FF0FF3000F073FC064A7B688E
:101758001360002300E0012318460837BD4680BD0A
:10176800840000208C0000208800002080B400AF96
:10177800064B1B781A46064B1B681344044A136031
:1017880000BFBD465DF8047B704700BF8C00002099
:10179800A002002080B400AF034B1B681846BD466A
:1017A8005DF8047B704700BFA002002080B584B0BC
:1017B80000AF7860FFF7EEFFB8607B68FB60FB68FE
:1017C800B3F1FF3F05D0094B1B781A46FB68134459
:1017D800FB6000BFFFF7DEFF0246BB68D21AFB685A
:1017E8009A42F7D300BF1037BD4680BD8C00002059
:1017F80080B584B000AF78600023FB737B68002B52
:1018080001D1012331E07B681B6C002B09D178687A
:10181800FFF7D2FD7B6800225A647B68002283F8B8
:101828003C207B681B6C03F01003002B16D17B68EF
:101838001A6C104B134043F002027B681A647868F4
:1018480000F024FA7B6800225A647B681B6C23F042
:10185800030343F001027B681A6401E00123FB7370
:101868007B68002283F83C20FB7B18461037BD4676
:1018780080BD00BFFDEEFFFF80B485B000AF78608B
:101888000023FB607B6893F83C30012B01D10223D5
:10189800A0E07B68012283F83C207B681B689B687A
:1018A80003F00103012B18D07B681B687A68126863
:1018B800926842F001029A60494B1B68494AA2FBB0
:1018C80003239A0C13465B001344FB6002E0FB6899
:1018D800013BFB60FB68002BF9D17B681B689B68A8
:1018E80003F00103012B74D17B681A6C3E4B134043
:1018F80043F480727B681A647B681B685B6803F436
:101908008063002B07D07B681B6C23F4405343F49F
:1019180080527B681A647B681B6C03F48053B3F5B0
:10192800805F06D17B685B6C23F006027B685A6493
:1019380002E07B6800225A647B68002283F83C201E
:101948007B681B686FF022021A60284B5B6803F003
:101958001F03002B0FD17B681B689B6803F0405363
:10196800002B36D17B681B687A681268926842F04F
:1019780080429A602DE07B681B681D4A93420ED115
:101988007B681B689B6803F04053002B07D17B687A
:101998001B687A681268926842F080429A60134B1A
:1019A8005B6803F01003002B13D17B681B68114A96
:1019B80093420ED17B681B689B6803F04053002B51
:1019C80007D17B681B687A681268926842F0804287
:1019D8009A60002318461437BD465DF8047B7047AB
:1019E8008400002083DE1B43FEF8FFFF0023014034
:1019F800002001400022014090B484B000AF78601C
:101A080039600023FB607B6893F83C30012B01D1DF
:101A180002232CE17B68012283F83C203B681B6889
:101A2800092B3BD93B681B68B3F1004F36D07B6864
:101A38001A687B681B68D9683B681B689BB21846A4
:101A480003465B0003441E3B072000FA03F3DB4315
:101A58000B40D3603B681B68874A93420AD17B6876
:101A68001B687A681268D1683A68926812060A4355
:101A7800DA6037E07B681A687B681B68D9683B685E
:101A880098683B681B689BB21C4623465B0023444E
:101A98001E3B00FA03F30B43D36023E07B681A680C
:101AA8007B681B6819693B681B689BB2184603462C
:101AB8005B000344072000FA03F3DB430B40136188
:101AC8007B681A687B681B6819693B6898683B687B
:101AD8001B689BB21C4623465B00234400FA03F3B1
:101AE8000B4313613B685B68062B24D87B68196835
:101AF8007B681B68586B3B685A6813469B00134405
:101B0800053B1F2202FA03F3DB4303404B637B6868
:101B180019687B681B68586B3B681B689BB21C463E
:101B28003B685A6813469B001344053B04FA03F3C9
:101B380003434B634CE03B685B680C2B24D87B6801
:101B480019687B681B68186B3B685A6813469B00CA
:101B58001344233B1F2202FA03F3DB4303400B63C6
:101B68007B6819687B681B68186B3B681B689BB2AD
:101B78001C463B685A6813469B001344233B04FAEF
:101B880003F303430B6323E07B6819687B681B68D6
:101B9800D86A3B685A6813469B001344413B1F228E
:101BA80002FA03F3DB430340CB627B6819687B6866
:101BB8001B68D86A3B681B689BB21C463B685A681E
:101BC80013469B001344413B04FA03F30343CB62DF
:101BD8007B681B68294A93420AD13B681B68B3F1AA
:101BE800004F05D1264A264B5B6823F44003536017
:101BF8007B681B68214A934209D13B681B68122BFA
:101C080005D11F4A1E4B5B6843F4800353607B6811
:101C18001B681A4A934225D13B681B68164A9342AF
:101C280003D03B681B68112B1CD1154A144B5B6809
:101C380043F4000353603B681B680F4A934211D179
:101C4800104B1B68104AA2FB03239A0C13469B00F7
:101C580013445B00FB6002E0FB68013BFB60FB6830
:101C6800002BF9D17B68002283F83C20002318461A
:101C78001037BD4690BC704712000010002001408C
:101C8800002301408400002083DE1B4380B483B01E
:101C980000AF7860784A784B5B6823F44033536030
:101CA8007549754B5A687B685B6813434B607B6862
:101CB8001B687A681268526822F480725A607B68DE
:101CC8001B687A68126851687A68126912020A43B6
:101CD8005A607B681B687A681268526822F0407202
:101CE8005A607B681B687A68126851687A689268DB
:101CF8000A435A607B681B687A681268926822F403
:101D080000629A607B681B687A68126891687A68D2
:101D1800D2680A439A607B689B6A584A934222D0E9
:101D28007B681B687A681268926822F070629A6011
:101D38007B681B687A68126891687A68926A0A43B5
:101D48009A607B681B687A681268926822F0405231
:101D58009A607B681B687A68126891687A68D26AA8
:101D68000A439A600FE07B681B687A681268926879
:101D780022F070629A607B681B687A6812689268C1
:101D880022F040529A607B681B687A6812689268F1
:101D980022F002029A607B681B687A681268916870
:101DA8007A68926952000A439A607B6893F82030F7
:101DB800002B1BD07B681B687A681268526842F453
:101DC80000625A607B681B687A681268526822F45D
:101DD80060425A607B681B687A68126851687A6842
:101DE800526A013A52030A435A6007E07B681B684B
:101DF8007A681268526822F400625A607B681B682D
:101E08007A681268D26A22F47002DA627B681B6808
:101E18007A681268D16A7A68D269013A12050A4367
:101E2800DA627B681B687A681268926822F400722A
:101E38009A607B681B687A68126891687A6892F879
:101E4800302052020A439A607B681B687A681268DD
:101E5800926822F480629A607B681B687A681268CC
:101E680091687A68526992020A439A6000BF0C37F7
:101E7800BD465DF8047B7047002301400100000F58
:101E880080B485B000AF78607B6803F00703FB601F
:101E98000B4BDB68BB60BA684FF6FF031340BB60AF
:101EA800FB681A02BB681A43064B1343BB60044A1B
:101EB800BB68D36000BF1437BD465DF8047B70472C
:101EC80000ED00E00000FA0580B400AF044BDB68C9
:101ED8001B0A03F007031846BD465DF8047B7047EC
:101EE80000ED00E080B483B000AF0346FB7197F9C2
:101EF8000730002B0BDB094997F907305B09FA79A2
:101F080002F01F02012000FA02F241F8232000BF6C
:101F18000C37BD465DF8047B704700BF00E100E068
:101F280080B483B000AF03463960FB7197F907307E
:101F3800002B0ADB0D4997F907303A68D2B2120133
:101F4800D2B20B4483F800230AE00949FB7903F075
:101F58000F03043B3A68D2B21201D2B20B441A768C
:101F680000BF0C37BD465DF8047B704700E100E018
:101F780000ED00E080B489B000AFF860B9607A6025
:101F8800FB6803F00703FB61FB69C3F10703042B3C
:101F980028BF0423BB61FB690433062B02D9FB6904
:101FA800033B00E000237B610122BB6902FA03F3D3
:101FB8005A1EBB681A407B699A4001217B6901FA65
:101FC80003F3591E7B680B40134318462437BD465C
:101FD8005DF8047B7047000080B582B000AF786080
:101FE8007B68013BB3F1807F01D301230FE00A4AEC
:101FF8007B68013B53600F214FF0FF30FFF790FFE4
:10200800054B00229A60044B07221A6000231846E9
:102018000837BD4680BD00BF10E000E080B582B043
:1020280000AF78607868FFF72BFF00BF0837BD4620
:1020380080BD80B586B000AF0346B9607A60FB7397
:1020480000237B61FFF740FF78617A68B968786997
:10205800FFF790FF024697F90F3011461846FFF731
:102068005FFF00BF1837BD4680BD80B582B000AFA6
:102078000346FB7197F907301846FFF733FF00BF97
:102088000837BD4680BD80B582B000AF78607868FB
:10209800FFF7A2FF034618460837BD4680BD80B447
:1020A80083B000AF78607B6893F83530DBB2022BE1
:1020B80004D07B6880225A6501230CE07B680522E6
:1020C80083F835207B681B687A681268126822F0EA
:1020D80001021A60002318460C37BD465DF8047BE0
:1020E8007047000080B489B000AF78603960002381
:1020F800FB6100237B6100233B610023BB6100235C
:10210800FB6175E10122FB6902FA03F37B613B681D
:102118001A687B6913403B613A697B699A4240F0CF
:1021280064813B685B68012B0BD03B685B68022BC2
:1021380007D03B685B68112B03D03B685B68122BA8
:1021480030D17B689B68BB61FB695B00032202FAA4
:1021580003F3DB43BA691340BB613B68DA68FB6988
:102168005B0002FA03F3BA691343BB617B68BA697F
:102178009A607B685B68BB610122FB6902FA03F322
:10218800DB43BA691340BB613B685B681B0903F01A
:102198000102FB6902FA03F3BA691343BB617B6866
:1021A800BA695A607B68DB68BB61FB695B00032224
:1021B80002FA03F3DB43BA691340BB613B689A68D0
:1021C800FB695B0002FA03F3BA691343BB617B68DE
:1021D800BA69DA603B685B68022B03D03B685B68CE
:1021E800122B23D1FB69DA087B68083253F82230B6
:1021F800BB61FB6903F007039B000F2202FA03F39C
:10220800DB43BA691340BB613B681A69FB6903F099
:1022180007039B0002FA03F3BA691343BB61FB6926
:10222800DA087B680832B96943F822107B681B68B2
:10223800BB61FB695B00032202FA03F3DB43BA6963
:102248001340BB613B685B6803F00302FB695B00FA
:1022580002FA03F3BA691343BB617B68BA691A606F
:102268003B685B6803F08053002B00F0BE80654A32
:10227800644B5B6C43F480435364624B5B6C03F4C4
:102288008043FB60FB68604AFB699B08023352F895
:102298002330BB61FB6903F003039B000F2202FAA2
:1022A80003F3DB43BA691340BB617B68574A934227
:1022B80037D07B68564A934231D07B68554A93425F
:1022C8002BD07B68544A934225D07B68534A93426B
:1022D8001FD07B68524A934219D07B68514A934277
:1022E80013D07B68504A93420DD07B684F4A934283
:1022F80007D07B684E4A934201D1092312E00A2392
:1023080010E008230EE007230CE006230AE005236B
:1023180008E0042306E0032304E0022302E001238B
:1023280000E00023FA6902F0030292009340BA69C0
:102338001343BB613449FB699B080233BA6941F80E
:1023480023203C4B1B68BB613B69DB43BA691340E4
:10235800BB613B685B6803F48033002B03D0BA6928
:102368003B691343BB61334ABB691360314B5B68FC
:10237800BB613B69DB43BA691340BB613B685B687F
:1023880003F40033002B03D0BA693B691343BB61E4
:10239800284ABB695360274B9B68BB613B69DB4399
:1023A800BA691340BB613B685B6803F48013002B78
:1023B80003D0BA693B691343BB611E4ABB6993608A
:1023C8001C4BDB68BB613B69DB43BA691340BB61EB
:1023D8003B685B6803F40013002B03D0BA693B69C0
:1023E8001343BB61134ABB69D360FB690133FB61CB
:1023F800FB690F2B7FF686AE00BF2437BD465DF81C
:10240800047B704700380240003801400000024059
:102418000004024000080240000C02400010024084
:102428000014024000180240001C02400020024034
:1024380000240240003C014080B485B000AF7860C1
:102448000B467B807B681A697B881340002B02D07F
:102458000123FB7301E00023FB73FB7B1846143751
:10246800BD465DF8047B704780B483B000AF7860E8
:102478000B467B8013467B707B78002B03D07A88D1
:102488007B689A6103E07B881A047B689A6100BFC5
:102498000C37BD465DF8047B7047000080B586B0F8
:1024A80000AF78600023FB757B68002B01D1012306
:1024B80091E27B681B6803F00103002B00F0878022
:1024C800964B9B6803F00C03042B0CD0934B9B6832
:1024D80003F00C03082B12D1904B5B6803F48003C4
:1024E800B3F5800F0BD18D4B1B6803F40033002B21
:1024F8006CD07B685B68002B68D101236BE27B683A
:102508005B68B3F5803F06D1844A844B1B6843F46B
:10251800803313602EE07B685B68002B0CD17F4A08
:102528007E4B1B6823F4803313607C4A7B4B1B680B
:1025380023F4802313601DE07B685B68B3F5A02F4C
:102548000CD1764A754B1B6843F480231360734A99
:10255800724B1B6843F4803313600BE06F4A6F4B78
:102568001B6823F4803313606C4A6C4B1B6823F49C
:10257800802313607B685B68002B13D0FFF70AF990
:10258800386108E0FFF706F902463B69D31A642B65
:1025980001D903231FE2614B1B6803F40033002BAE
:1025A800F0D014E0FFF7F6F8386108E0FFF7F2F82A
:1025B80002463B69D31A642B01D903230BE2574B1C
:1025C8001B6803F40033002BF0D100E000BF7B68E8
:1025D8001B6803F00203002B69D0504B9B6803F083
:1025E8000C03002B0BD04D4B9B6803F00C03082BFE
:1025F8001CD14A4B5B6803F48003002B16D1474B70
:102608001B6803F00203002B05D07B68DB68012BF5
:1026180001D00123DFE14149404B1B6823F0F80258
:102628007B681B69DB0013430B6040E07B68DB6859
:10263800002B23D0394A394B1B6843F00103136040
:10264800FFF7A8F8386108E0FFF7A4F802463B69ED
:10265800D31A022B01D90323BDE1304B1B6803F0C9
:102668000203002BF0D02D492C4B1B6823F0F802F5
:102678007B681B69DB0013430B6018E0274A274B74
:102688001B6823F001031360FFF784F8386108E042
:10269800FFF780F802463B69D31A022B01D90323BE
:1026A80099E11E4B1B6803F00203002BF0D17B68F5
:1026B8001B6803F00803002B38D07B685B69002B8C
:1026C80019D0164A154B5B6F43F001035367FFF7A8
:1026D80061F8386108E0FFF75DF802463B69D31AF4
:1026E800022B01D9032376E10C4B5B6F03F0020345
:1026F800002BF0D01AE0094A084B5B6F23F0010366
:102708005367FFF747F838610AE0FFF743F80246D6
:102718003B69D31A022B03D903235CE1003802403A
:10272800914B5B6F03F00203002BEED17B681B68B3
:1027380003F00403002B00F0A4808B4B1B6C03F008
:102748008053002B0DD1884A874B1B6C43F0805374
:102758001364854B1B6C03F08053BB60BB6801237B
:10276800FB75824B1B6803F48073002B18D17F4ADA
:102778007E4B1B6843F480731360FFF70BF83861D6
:1027880008E0FFF707F802463B69D31A642B01D922
:10279800032320E1754B1B6803F48073002BF0D0F2
:1027A8007B689B68012B06D16F4A6F4B1B6F43F008
:1027B800010313672DE07B689B68002B0CD16A4AE4
:1027C800694B1B6F23F001031367674A664B1B6F46
:1027D80023F0040313671CE07B689B68052B0CD16E
:1027E800614A614B1B6F43F0040313675E4A5E4BFB
:1027F8001B6F43F0010313670BE05B4A5A4B1B6FD7
:1028080023F001031367584A574B1B6F23F0040347
:1028180013677B689B68002B15D0FEF7BBFF3861F8
:102828000AE0FEF7B7FF02463B69D31A41F2883245
:10283800934201D90323CEE04B4B1B6F03F00203F5
:10284800002BEED014E0FEF7A5FF38610AE0FEF792
:10285800A1FF02463B69D31A41F28832934201D95B
:102868000323B8E0404B1B6F03F00203002BEED1AB
:10287800FB7D012B05D13C4A3B4B1B6C23F080535D
:1028880013647B689B69002B00F0A480364B9B681F
:1028980003F00C03082B6BD07B689B69022B49D192
:1028A800314A314B1B6823F080731360FEF772FFC7
:1028B800386108E0FEF76EFF02463B69D31A022B27
:1028C80001D9032387E0284B1B6803F00073002B12
:1028D800F0D125497B68DA697B681B6A1A437B68F3
:1028E8005B6A9B011A437B689B6A5B08013B1B047C
:1028F8001A437B68DB6A1B06134343F000534B60A3
:10290800194A194B1B6843F080731360FEF742FFA6
:10291800386108E0FEF73EFF02463B69D31A022BF6
:1029280001D9032357E0104B1B6803F00073002BF9
:10293800F0D04FE00C4A0C4B1B6823F080731360F7
:10294800FEF728FF386108E0FEF724FF02463B69DE
:10295800D31A022B01D903233DE0034B1B6803F074
:102968000073002BF0D135E00038024000700040C1
:102978001B4B5B68FB607B689B69012B28D0FB685D
:1029880003F480027B68DB699A4221D1FB6803F07B
:102998003F027B681B6A9A421AD1FA6847F6C073ED
:1029A80013407A68526A9201934211D1FB6803F48A
:1029B80040327B689B6A5B08013B1B049A4207D143
:1029C800FB6803F070627B68DB6A1B069A4201D0E1
:1029D800012300E0002318461837BD4680BD00BF1C
:1029E8000038024080B584B000AF786039600023B9
:1029F800FB607B68002B01D10123D0E06A4B1B6888
:102A080003F00F023B689A4210D26749664B1B6875
:102A180023F00F023B6813430B60634B1B6803F002
:102A28000F023B689A4201D00123B8E07B681B681B
:102A380003F00203002B20D07B681B6803F004031B
:102A4800002B05D0594A594B9B6843F4E0539360D7
:102A58007B681B6803F00803002B05D0534A534BCF
:102A68009B6843F4604393605049504B9B6823F044
:102A7800F0027B689B6813438B607B681B6803F0DC
:102A88000103002B40D07B685B68012B07D1474BC3
:102A98001B6803F40033002B15D101237FE07B680A
:102AA8005B68022B07D1414B1B6803F00073002BB6
:102AB80009D1012373E03D4B1B6803F00203002B8F
:102AC80001D101236BE03949384B9B6823F003029D
:102AD8007B685B6813438B60FEF75CFEF8600AE076
:102AE800FEF758FE0246FB68D31A41F28832934239
:102AF80001D9032353E02D4B9B6803F00C027B683C
:102B08005B689B009A42EBD1274B1B6803F00F02CE
:102B18003B689A4210D92449234B1B6823F00F02C3
:102B28003B6813430B60204B1B6803F00F023B68A4
:102B38009A4201D0012332E07B681B6803F004034A
:102B4800002B08D01949194B9B6823F4E0527B6885
:102B5800DB6813438B607B681B6803F00803002B5A
:102B680009D01249114B9B6823F460427B681B69AA
:102B7800DB0013438B6000F021F801460B4B9B6888
:102B88001B0903F00F030A4AD35C21FA03F3094A2D
:102B98001360094B1B681846FEF7B8FD002318465A
:102BA8001037BD4680BD00BF003C024000380240DF
:102BB8006854000884000020880000202DE9F04FA8
:102BC80087B000AF0022FA6000227A610022BA6062
:102BD80000223A61514A926802F00C02042A07D096
:102BE800082A08D0002A40F090804D4B3B618FE0C6
:102BF8004C4B3B618CE0494A526802F03F02FA6054
:102C0800464A526802F48002002A23D0434B5B688C
:102C18009B094FF0000440F2FF114FF0000203EA55
:102C2800010304EA02043F4A02FB04F1002202FB0A
:102C380003F20A443B49A3FB010153181946FB68F8
:102C48004FF000041A462346FDF7E4FA03460C4603
:102C58007B614CE0314A5268920911464FF00002FC
:102C680040F2FF154FF0000605EA010506EA0206E4
:102C7800294632464FEA421B4BEAD16B4FEA411ACA
:102C880051465A46AA46B34655465E464D1B62EB28
:102C9800060629463246940144EA91648B015B1A80
:102CA80064EB02044FEAC40949EA53794FEAC308BE
:102CB80043464C4655465E46ED1846EB04062B4601
:102CC8003446A2027A607A6842EA93527A609B029A
:102CD8003B6097E8180018462146FB684FF000044F
:102CE8001A462346FDF796FA03460C467B610B4BC2
:102CF8005B681B0C03F0030301335B00BB607A695C
:102D0800BB68B2FBF3F33B6102E0054B3B6100BFDC
:102D18003B6918461C37BD46BDE8F08F00380240B5
:102D28000024F40040787D0180B400AF034B1B6899
:102D38001846BD465DF8047B704700BF840000203C
:102D480080B500AFFFF7F0FF0146054B9B689B0A73
:102D580003F00703034AD35C21FA03F3184680BD46
:102D6800003802407854000880B500AFFFF7DCFF58
:102D78000146054B9B685B0B03F00703034AD35CD2
:102D880021FA03F3184680BD003802407854000841
:102D980080B588B000AF786000237B6100233B6179
:102DA8000023FB600023FB610023BB617B681B6879
:102DB80003F00103002B12D0694A694B9B6823F486
:102DC800000393606649664B9A687B685B6B1343A4
:102DD8008B607B685B6B002B01D10123FB617B68F7
:102DE8001B6803F40023002B17D05D495C4BD3F814
:102DF8008C3023F440127B68DB6B1343C1F88C30B2
:102E08007B68DB6BB3F5801F01D10123FB617B6815
:102E1800DB6B002B01D10123BB617B681B6803F4CA
:102E28008013002B17D04E494D4BD3F88C3023F428
:102E380040027B681B6C1343C1F88C307B681B6CA9
:102E4800B3F5800F01D10123FB617B681B6C002B5C
:102E580001D10123BB617B681B6803F08073002BE1
:102E680001D00123FB617B681B6803F02003002B62
:102E780000F08B803A4A3A4B1B6C43F08053136442
:102E8800374B1B6C03F08053BB60BB68354A354B2E
:102E98001B6843F480731360FEF77CFC786108E0DC
:102EA800FEF778FC02467B69D31A642B01D9032309
:102EB80055E32C4B1B6803F48073002BF0D0284B90
:102EC8001B6F03F440733B613B69002B35D07B6873
:102ED8001B6B03F440723B699A422ED0204B1B6F48
:102EE80023F440733B611E4A1D4B1B6F43F4803330
:102EF80013671B4A1A4B1B6F23F480331367184A56
:102F08003B691367164B1B6F03F00103012B14D1A8
:102F1800FEF740FC78610AE0FEF73CFC02467B695C
:102F2800D31A41F28832934201D9032317E30C4B99
:102F38001B6F03F00203002BEED07B681B6B03F4BE
:102F48004073B3F5407F11D10548054B9B6823F4C6
:102F5800F8127B68196B044B0B40134383600BE03A
:102F68000038024000700040FFFCFF0FB04AB04B31
:102F78009B6823F4F8139360AD49AD4B1A6F7B68D7
:102F88001B6BC3F30B0313430B677B681B6803F0CE
:102F98001003002B10D0A64AA54BD3F88C3023F091
:102FA8008073C2F88C30A249A14BD3F88C207B687F
:102FB8009B6B1343C1F88C307B681B6803F4804318
:102FC800002B0AD09A499A4BD3F8903023F4403218
:102FD8007B685B6E1343C1F890307B681B6803F411
:102FE8000043002B0AD09249914BD3F8903023F438
:102FF80040227B689B6E1343C1F890307B681B6846
:1030080003F48033002B0AD08949894BD3F89030D8
:1030180023F440127B68DB6E1343C1F890307B6861
:103028001B6803F40033002B0AD08149804BD3F886
:10303800903023F440027B681B6F1343C1F8903033
:103048007B681B6803F04003002B0AD07849784B53
:10305800D3F8903023F003027B685B6C1343C1F80C
:1030680090307B681B6803F08003002B0AD07049FE
:103078006F4BD3F8903023F00C027B689B6C1343A2
:10308800C1F890307B681B6803F48073002B0AD06A
:103098006749674BD3F8903023F030027B68DB6CCC
:1030A8001343C1F890307B681B6803F40073002B4E
:1030B8000AD05F495E4BD3F8903023F0C0027B689A
:1030C8001B6D1343C1F890307B681B6803F4806361
:1030D800002B0AD05649564BD3F8903023F440724F
:1030E8007B685B6D1343C1F890307B681B6803F401
:1030F8000063002B0AD04E494D4BD3F8903023F48F
:1031080040627B689B6D1343C1F890307B681B68F5
:1031180003F48053002B0AD04549454BD3F890302F
:1031280023F440527B68DB6D1343C1F890307B6811
:103138001B6803F40053002B0AD03D493C4BD3F8DD
:10314800903023F440427B681B6E1343C1F89030E3
:103158007B681B6803F48003002B0AD03449344B86
:10316800D3F8903023F080627B689B6F1343C1F8DB
:1031780090307B681B6803F40013002B11D02C4996
:103188002B4BD3F8903023F000627B68DB6F13433E
:10319800C1F890307B68DB6FB3F1006F01D1012378
:1031A800BB617B681B6803F00803002B01D0012377
:1031B800BB617B681B6803F48023002B0AD01C4981
:1031C8001B4BD3F8903023F040727B685B6F13433E
:1031D800C1F890307B681B6803F40003002B0BD008
:1031E8001349134BD3F8903023F080527B68D3F8FF
:1031F80080301343C1F89030FB69012B05D07B6800
:103208001B68B3F1007F40F0D880094A084B1B685F
:1032180023F080631360FEF7BDFA78610AE0FEF7D9
:10322800B9FA02467B69D31A642B03D9032396E1C2
:10323800003802406C4B1B6803F00063002BEED192
:103248007B681B6803F00103002B21D07B685B6B54
:10325800002B1DD1644BD3F884301B0C03F00303FF
:103268003B61614BD3F884301B0E03F00F03FB6006
:103278005D497B685B689A013B691B041A43FB68DC
:103288001B061A437B689B681B071343C1F88430ED
:103298007B681B6803F40023002B04D07B68DB6B7E
:1032A800B3F5801F0AD07B681B6803F48013002BDA
:1032B8002ED07B681B6CB3F5800F29D14A4BD3F80D
:1032C80084301B0C03F003033B61474BD3F8843075
:1032D8001B0F03F00703FB6043497B685B689A0197
:1032E8003B691B041A437B68DB681B061A43FB68AF
:1032F8001B071343C1F884303B493B4BD3F88C3050
:1033080023F01F027B685B6A013B1343C1F88C30D2
:103318007B681B6803F08073002B1DD0324BD3F8F9
:1033280084301B0E03F00F033B612F4BD3F884301E
:103338001B0F03F00703FB602B497B685B689A014E
:103348007B681B691B041A433B691B061A43FB680D
:103358001B071343C1F884307B681B6803F00073B4
:10336800002B11D020497B685B689A017B681B6938
:103378001B041A437B68DB681B061A437B689B683F
:103388001B071343C1F88430174A174B1B6843F0D7
:1033980080631360FEF7FEF9786108E0FEF7FAF93A
:1033A80002467B69D31A642B01D90323D7E00E4B5D
:1033B8001B6803F00063002BF0D0BB69012B40F0C1
:1033C800CD80094A084B1B6823F080531360FEF731
:1033D800E1F978610AE0FEF7DDF902467B69D31A64
:1033E800642B03D90323BAE0003802405E4B1B6804
:1033F80003F00053B3F1005FEDD07B681B6803F462
:103408000023002B03D07B68DB6B002B09D07B6883
:103418001B6803F48013002B2ED07B681B6C002BD9
:103428002AD1514BD3F888301B0C03F003033B61BE
:103438004D4BD3F888301B0F03F00703FB604A4954
:103448007B685B699A013B691B041A437B689B692B
:103458001B061A43FB681B071343C1F8883042490F
:10346800414BD3F88C3023F4F8527B689B6A013BBC
:103478001B021343C1F88C307B681B6803F40013EC
:10348800002B22D07B68DB6FB3F1006F1DD1364B68
:10349800D3F888301B0E03F00F033B61324BD3F88F
:1034A80088301B0F03F00703FB602F497B685B69BB
:1034B8009A017B681B6A1B041A433B691B061A4363
:1034C800FB681B071343C1F888307B681B6803F04F
:1034D8000803002B28D0244BD3F888301B0E03F0A8
:1034E8000F033B61204BD3F888301B0C03F0030318
:1034F800FB601D497B685B699A01FB681B041A43E2
:103508003B691B061A437B68DB691B071343C1F839
:1035180088301549144BD3F88C3023F440327B683B
:10352800DB6A1343C1F88C300F4A0F4B1B6843F01A
:1035380080531360FEF72EF9786108E0FEF72AF948
:1035480002467B69D31A642B01D9032307E0064B93
:103558001B6803F00053B3F1005FEFD10023184656
:103568002037BD4680BD00BF0038024080B485B01A
:1035780000AF78607B681B687A681268D26842F08E
:103588000102DA607B681B689A680C4B1340FB6089
:10359800FB68062B0BD0FB68B3F5803F07D07B6830
:1035A8001B687A681268126842F001021A600023E8
:1035B80018461437BD465DF8047B704707000100C4
:1035C80080B582B000AF78607B68002B01D1012301
:1035D8001DE07B6893F83D30DBB2002B06D17B6899
:1035E800002283F83C207868FDF73AFF7B680222C6
:1035F80083F83D207B681A687B68043319461046B7
:1036080000F0F4FA7B68012283F83D200023184675
:103618000837BD4680BD000080B584B000AF786033
:1036280039603B680C2B41D801A252F823F000BF47
:103638006D360008B5360008B5360008B5360008FE
:103648007F360008B5360008B5360008B5360008DC
:1036580091360008B5360008B5360008B5360008BA
:10366800A33600087B681B687A681268D26842F043
:103678000202DA601BE07B681B687A681268D2680D
:1036880042F00402DA6012E07B681B687A6812680C
:10369800D26842F00802DA6009E07B681B687A6841
:1036A8001268D26842F01002DA6000E000BF7B685E
:1036B8001B6801223968184600F096FD7B681B6874
:1036C800174A934204D07B681B68164A934201D17B
:1036D800012300E00023002B07D07B681B687A6871
:1036E8001268526C42F400425A647B681B689A68FC
:1036F8000D4B1340FB60FB68062B0BD0FB68B3F542
:10370800803F07D07B681B687A681268126842F0AD
:1037180001021A60002318461037BD4680BD00BF5D
:1037280000000140000401400700010080B582B09C
:1037380000AF78607B681B681B6903F00203022BEB
:1037480022D17B681B68DB6803F00203022B1BD1C4
:103758007B681B686FF002021A617B6801221A7786
:103768007B681B689B6903F00303002B03D0786810
:1037780000F01EFA05E0786800F010FA786800F0AA
:1037880021FA7B6800221A777B681B681B6903F0A3
:103798000403042B22D17B681B68DB6803F0040355
:1037A800042B1BD17B681B686FF004021A617B68CD
:1037B80002221A777B681B689B6903F44073002B0D
:1037C80003D0786800F0F4F905E0786800F0E6F9CD
:1037D800786800F0F7F97B6800221A777B681B6825
:1037E8001B6903F00803082B22D17B681B68DB6880
:1037F80003F00803082B1BD17B681B686FF00802D5
:103808001A617B6804221A777B681B68DB6903F0FE
:103818000303002B03D0786800F0CAF905E0786844
:1038280000F0BCF9786800F0CDF97B6800221A77BF
:103838007B681B681B6903F01003102B22D17B687F
:103848001B68DB6803F01003102B1BD17B681B6817
:103858006FF010021A617B6808221A777B681B6870
:10386800DB6903F44073002B03D0786800F0A0F9FB
:1038780005E0786800F092F9786800F0A3F97B68B1
:1038880000221A777B681B681B6903F00103012B70
:103898000ED17B681B68DB6803F00103012B07D19D
:1038A8007B681B686FF001021A617868FDF7A8F859
:1038B8007B681B681B6903F08003802B0ED17B6833
:1038C8001B68DB6803F08003802B07D17B681B68CB
:1038D8006FF080021A61786800F044FD7B681B680D
:1038E8001B6903F48073B3F5807F0ED17B681B6876
:1038F800DB6803F08003802B07D17B681B686FF4BB
:1039080080721A61786800F037FD7B681B681B6954
:1039180003F04003402B0ED17B681B68DB6803F083
:103928004003402B07D17B681B686FF040021A6187
:10393800786800F051F97B681B681B6903F0200365
:10394800202B0ED17B681B68DB6803F02003202B3B
:1039580007D17B681B686FF020021A61786800F055
:10396800F7FC00BF0837BD4680BD000080B584B0B5
:1039780000AFF860B9607A60FB6893F83C30012BBF
:1039880001D1022305E1FB68012283F83C20FB6892
:10399800022283F83D207B68142B00F2F08001A2FC
:1039A80052F823F0013A0008873B0008873B0008DB
:1039B800873B0008413A0008873B0008873B00081E
:1039C800873B0008833A0008873B0008873B0008CC
:1039D800873B0008C33A0008873B0008873B00087C
:1039E800873B0008053B0008873B0008873B000829
:1039F800873B0008453B0008FB681B68B968184608
:103A080000F094F9FB681B68FA681268926942F042
:103A180008029A61FB681B68FA681268926922F0CA
:103A280004029A61FB681B68FA6812689169BA68AF
:103A380012690A439A61A3E0FB681B68B9681846D3
:103A480000F0E6F9FB681B68FA681268926942F4AC
:103A580000629A61FB681B68FA681268926922F42E
:103A680080629A61FB681B68FA6812689169BA6893
:103A7800126912020A439A6182E0FB681B68B968FE
:103A8800184600F03DFAFB681B68FA681268D269AC
:103A980042F00802DA61FB681B68FA681268D269AA
:103AA80022F00402DA61FB681B68FA681268D169BF
:103AB800BA6812690A43DA6162E0FB681B68B96890
:103AC800184600F093FAFB681B68FA681268D26916
:103AD80042F40062DA61FB681B68FA681268D2690E
:103AE80022F48062DA61FB681B68FA681268D1699F
:103AF800BA68126912020A43DA6141E0FB681B687E
:103B0800B968184600F0CAFAFB681B68FA681268B8
:103B1800526D42F008025A65FB681B68FA68126821
:103B2800526D22F004025A65FB681B68FA68126835
:103B3800516DBA6812690A435A6521E0FB681B682F
:103B4800B968184600F0FCFAFB681B68FA68126846
:103B5800526D42F400625A65FB681B68FA68126885
:103B6800526D22F480625A65FB681B68FA68126815
:103B7800516DBA68126912020A435A6500E000BF23
:103B8800FB68012283F83D20FB68002283F83C2073
:103B9800002318461037BD4680BD00BF80B483B0EF
:103BA80000AF786000BF0C37BD465DF8047B7047F6
:103BB80080B483B000AF786000BF0C37BD465DF8B5
:103BC800047B704780B483B000AF786000BF0C37C7
:103BD800BD465DF8047B704780B483B000AF786061
:103BE80000BF0C37BD465DF8047B704780B485B0D4
:103BF80000AF786039607B681B68FB607B68404A6F
:103C0800934213D07B68B3F1804F0FD07B683D4A55
:103C180093420BD07B683C4A934207D07B683B4A6F
:103C2800934203D07B683A4A934208D1FB6823F059
:103C38007003FB603B685B68FA681343FB607B6852
:103C48002F4A93422BD07B68B3F1804F27D07B68F3
:103C58002C4A934223D07B682B4A93421FD07B681F
:103C68002A4A93421BD07B68294A934217D07B6823
:103C7800284A934213D07B68274A93420FD07B6827
:103C8800264A93420BD07B68254A934207D07B682B
:103C9800244A934203D07B68234A934208D1FB68A5
:103CA80023F44073FB603B68DB68FA681343FB60EE
:103CB800FB6823F080023B685B691343FB607B6809
:103CC800FA681A603B689A687B68DA623B681A6827
:103CD8007B689A627B680A4A934203D07B680C4AE5
:103CE800934203D13B681A697B681A637B68012297
:103CF8005A6100BF1437BD465DF8047B704700BFAA
:103D0800000001400004004000080040000C004092
:103D180000040140004001400044014000480140C7
:103D280000180040001C00400020004080B487B00C
:103D380000AF786039607B681B6A23F001027B68FA
:103D48001A627B681B6A7B617B685B683B617B6886
:103D58009B69FB60FA682B4B1340FB60FB6823F000
:103D68000303FB603B681B68FA681343FB607B69CD
:103D780023F002037B613B689B687A6913437B618C
:103D88007B68214A934203D07B68204A93420CD136
:103D98007B6923F008037B613B68DB687A6913431E
:103DA8007B617B6923F004037B617B68164A93423D
:103DB80003D07B68154A934211D13B6923F4807381
:103DC8003B613B6923F400733B613B685B693A697B
:103DD80013433B613B689B693A6913433B617B68CA
:103DE8003A695A607B68FA689A613B685A687B68E6
:103DF8005A637B687A691A6200BF1C37BD465DF852
:103E0800047B70478FFFFEFF000001400004014063
:103E180080B487B000AF786039607B681B6A23F094
:103E280010027B681A627B681B6A7B617B685B682F
:103E38003B617B689B69FB60FA682E4B1340FB6013
:103E4800FB6823F44073FB603B681B681B02FA683D
:103E58001343FB607B6923F020037B613B689B680D
:103E68001B017A6913437B617B68234A934203D021
:103E78007B68224A93420DD17B6923F080037B61E2
:103E88003B68DB681B017A6913437B617B6923F01C
:103E980040037B617B68184A934203D07B68174ACA
:103EA800934213D13B6923F480633B613B6923F45C
:103EB80000633B613B685B699B003A6913433B6164
:103EC8003B689B699B003A6913433B617B683A698D
:103ED8005A607B68FA689A613B685A687B689A639B
:103EE8007B687A691A6200BF1C37BD465DF8047B9F
:103EF800704700BFFF8FFFFE000001400004014033
:103F080080B487B000AF786039607B681B6A23F49F
:103F180080727B681A627B681B6A7B617B685B685E
:103F28003B617B68DB69FB60FA682D4B1340FB60E3
:103F3800FB6823F00303FB603B681B68FA681343C4
:103F4800FB607B6923F400737B613B689B681B0201
:103F58007A6913437B617B68224A934203D07B686A
:103F6800214A93420DD17B6923F400637B613B684E
:103F7800DB681B027A6913437B617B6923F48063E6
:103F88007B617B68174A934203D07B68164A934249
:103F980013D13B6923F480533B613B6923F40053FD
:103FA8003B613B685B691B013A6913433B613B68B2
:103FB8009B691B013A6913433B617B683A695A6004
:103FC8007B68FA68DA613B685A687B68DA637B6801
:103FD8007A691A6200BF1C37BD465DF8047B7047DA
:103FE8008FFFFEFF000001400004014080B487B04D
:103FF80000AF786039607B681B6A23F480527B6865
:104008001A627B681B6A3B617B685B687B617B68C3
:10401800DB69FB60FA681E4B1340FB60FB6823F406
:104028004073FB603B681B681B02FA681343FB6024
:104038003B6923F400533B613B689B681B033A6967
:1040480013433B617B68134A934203D07B68124A4F
:10405800934209D17B6923F480437B613B685B69A8
:104068009B017A6913437B617B687A695A607B6834
:10407800FA68DA613B685A687B681A647B683A694F
:104088001A6200BF1C37BD465DF8047B704700BF4D
:10409800FF8FFFFE000001400004014080B487B09C
:1040A80000AF786039607B681B6A23F480327B68D4
:1040B8001A627B681B6A3B617B685B687B617B6813
:1040C8005B6DFB60FA681B4B1340FB603B681B6829
:1040D800FA681343FB603B6923F400333B613B6898
:1040E8009B681B043A6913433B617B68124A9342FD
:1040F80003D07B68114A934209D17B6923F480334A
:104108007B613B685B691B027A6913437B617B684F
:104118007A695A607B68FA685A653B685A687B68AE
:104128009A657B683A691A6200BF1C37BD465DF81C
:10413800047B70478FFFFEFF000001400004014030
:1041480080B487B000AF786039607B681B6A23F45D
:1041580080127B681A627B681B6A3B617B685B68BC
:104168007B617B685B6DFB60FA681C4B1340FB60EE
:104178003B681B681B02FA681343FB603B6923F426
:1041880000133B613B689B681B053A6913433B611D
:104198007B68134A934203D07B68124A934209D141
:1041A8007B6923F480237B613B685B699B027A69A6
:1041B80013437B617B687A695A607B68FA685A6541
:1041C8003B685A687B68DA657B683A691A6200BF9F
:1041D8001C37BD465DF8047B704700BFFF8FFFFEAC
:1041E800000001400004014080B487B000AFF860CF
:1041F800B9607A60BB6803F01F03012202FA03F377
:104208007B61FB681A6A7B69DB431A40FB681A62A8
:10421800FB681A6ABB6803F01F03796801FA03F3A5
:104228001A43FB681A6200BF1C37BD465DF8047B61
:104238007047000080B485B000AF786039607B6853
:1042480093F83C30012B01D102236DE07B680122F9
:1042580083F83C207B68022283F83D207B681B683A
:104268005B68FB607B681B689B68BB607B681B683E
:10427800304A934204D07B681B682F4A934208D186
:10428800FB6823F47003FB603B685B68FA681343C0
:10429800FB60FB6823F07003FB603B681B68FA68EF
:1042A8001343FB607B681B68FA685A607B681B686D
:1042B800204A934222D07B681B68B3F1804F1DD0FF
:1042C8007B681B681D4A934218D07B681B681C4A90
:1042D800934213D07B681B681A4A93420ED07B68BE
:1042E8001B68154A934209D07B681B68164A93429B
:1042F80004D07B681B68154A93420CD1BB6823F035
:104308008003BB603B689B68BA681343BB607B68EB
:104318001B68BA689A607B68012283F83D207B6835
:10432800002283F83C20002318461437BD465DF868
:10433800047B704700000140000401400004004075
:1043480000080040000C00400040014000180040F8
:1043580080B483B000AF786000BF0C37BD465DF80D
:10436800047B704780B483B000AF786000BF0C371F
:10437800BD465DF8047B704780B483B000AF7860B9
:1043880000BF0C37BD465DF8047B704780B582B02E
:1043980000AF78607B68002B01D1012340E07B6887
:1043A8005B6F002B06D17B68002283F87020786849
:1043B800FDF7F4F87B6824225A677B681B687A68E3
:1043C8001268126822F001021A60786800F0A4FAF4
:1043D8000346012B01D1012322E07B685B6A002B95
:1043E80002D0786800F042FD7B681B687A68126822
:1043F800526822F490425A607B681B687A68126897
:10440800926822F02A029A607B681B687A681268B0
:10441800126842F001021A60786800F0C9FD03468C
:1044280018460837BD4680BD80B58AB002AFF8602F
:10443800B9603B601346FB80FB685B6F202B7ED125
:10444800BB68002B02D0FB88002B01D1012377E049
:10445800FB6893F87030012B01D1022370E0FB68F0
:10446800012283F87020FB680022DA67FB682122AA
:104478005A67FDF78FF97861FB68FA88A3F850202E
:10448800FB68FA88A3F85220FB689B68B3F5805F45
:1044980008D1FB681B69002B04D10023FB61BB68B2
:1044A800BB6103E0BB68FB610023BB61FB680022C2
:1044B80083F870202BE03B6800937B690022802101
:1044C800F86800F0A4FD0346002B01D0032337E071
:1044D800FB69002B0AD1FB681B68BA691288C2F312
:1044E80008029A62BB690233BB6107E0FB681B687C
:1044F800FA6912789A62FB690133FB61FB68B3F8C9
:1045080052309BB2013B9AB2FB68A3F85220FB6879
:10451800B3F852309BB2002BCDD13B6800937B6936
:1045280000224021F86800F072FD0346002B01D0FC
:10453800032305E0FB6820225A67002300E00223DA
:1045480018462037BD4680BD80B485B000AFF860FE
:10455800B9601346FB80FB689B6F202B40F08A8074
:10456800BB68002B02D0FB88002B01D1012382E01D
:10457800FB6893F87030012B01D102237BE0FB68C4
:10458800012283F87020FB68BA685A65FB68FA88CC
:10459800A3F85820FB68FA88A3F85A20FB68002281
:1045A8001A66FB689B68B3F5805F0ED1FB681B69D0
:1045B800002B05D1FB6840F2FF12A3F85C202DE028
:1045C800FB68FF22A3F85C2028E0FB689B68002BAF
:1045D8000DD1FB681B69002B04D1FB68FF22A3F8EF
:1045E8005C201BE0FB687F22A3F85C2016E0FB68D8
:1045F8009B68B3F1805F0DD1FB681B69002B04D168
:10460800FB687F22A3F85C2008E0FB683F22A3F840
:104618005C2003E0FB680022A3F85C20FB68002212
:10462800DA67FB6822229A67FB681B68FA681268D7
:10463800926842F001029A60FB689B68B3F5805F5C
:1046480007D1FB681B69002B03D1FB680D4A1A666A
:1046580002E0FB680C4A1A66FB68002283F87020A7
:10466800FB681B68FA681268126842F490721A6054
:10467800002300E0022318461437BD465DF8047B8A
:10468800704700BF51520008AB51000880B588B090
:1046980000AF78607B681B68DB69FB617B681B681F
:1046A8001B68BB617B681B689B687B61FA6940F685
:1046B8000F0313403B613B69002B13D1FB6903F0E7
:1046C8002003002B0ED0BB6903F02003002B09D078
:1046D8007B681B6E002B00F000817B681B6E78687E
:1046E8009847FAE03B69002B00F0D5807B6903F01E
:1046F8000103002B05D1BB6903F49073002B00F074
:10470800CA80FB6903F00103002B0ED0BB6903F4D8
:104718008073002B09D07B681B6801221A627B68B2
:10472800DB6F43F001027B68DA67FB6903F0020381
:10473800002B0ED07B6903F00103002B09D07B68A6
:104748001B6802221A627B68DB6F43F004027B68F5
:10475800DA67FB6903F00403002B0ED07B6903F0D2
:104768000103002B09D07B681B6804221A627B684E
:10477800DB6F43F002027B68DA67FB6903F008032A
:10478800002B13D0BB6903F02003002B04D17B69F5
:1047980003F00103002B09D07B681B6808221A620A
:1047A8007B68DB6F43F008027B68DA67FB6903F418
:1047B8000063002B0FD0BB6903F08063002B0AD085
:1047C8007B681B684FF400621A627B68DB6F43F0FA
:1047D80020027B68DA677B68DB6F002B7FD0FB6980
:1047E80003F02003002B0CD0BB6903F02003002B3F
:1047F80007D07B681B6E002B03D07B681B6E786824
:1048080098477B68DB6FFB607B681B689B6803F0DD
:104818004003402B04D0FB6803F02803002B31D061
:10482800786800F06FFC7B681B689B6803F04003A6
:10483800402B23D17B681B687A681268926822F043
:1048480040029A607B68DB6E002B13D07B68DB6EBE
:10485800264A1A657B68DB6E1846FDF720FC03467E
:10486800002B16D07B68DB6E1B6D7A68D26E104603
:1048780098470EE0786800F045F80AE0786800F09C
:1048880041F806E0786800F03DF87B680022DA67B6
:1048980025E000BF23E0FB6903F08003002B0DD067
:1048A800BB6903F08003002B08D07B685B6E002B8C
:1048B80017D07B685B6E7868984712E0FB6903F055
:1048C8004003002B0ED0BB6903F04003002B09D036
:1048D800786800F04DFC00BF04E000BF02E000BFB4
:1048E80000E000BF2037BD4680BD00BF4D51000825
:1048F80080B483B000AF786000BF0C37BD465DF868
:10490800047B704780B483B000AF786000BF0C3779
:10491800BD465DF8047B704780B588B000AF78600D
:104928000023BB610023FB757B689A687B681B6961
:104938001A437B685B691A437B68DB6913433B61F5
:104948007B681A687B681B681968B34B0B40396928
:104958000B4313607B681B687A681268526822F4FC
:1049680040517A68D2680A435A607B689B693B6108
:104978007B681B6A3A6913433B617B681B687A68EA
:104988001268926822F430613A690A439A607B6837
:104998001B68A24A934221D1A14BD3F8903003F06F
:1049A8000303032B16D801A252F823F0C5490008C7
:1049B800D1490008CB490008D74900080123FB77F3
:1049C80050E10223FB774DE10423FB774AE10823FA
:1049D800FB7747E11023FB7700BF43E17B681B6847
:1049E800904A934234D18E4BD3F8903003F00C03A5
:1049F8000C2B29D801A252F823F000BF394A00082D
:104A0800514A0008514A0008514A0008454A00081E
:104A1800514A0008514A0008514A00083F4A000814
:104A2800514A0008514A0008514A00084B4A0008F8
:104A38000023FB7716E10223FB7713E10423FB77BE
:104A480010E10823FB770DE11023FB7700BF09E194
:104A58007B681B68744A934220D1714BD3F890301D
:104A680003F03003102B0FD0102B02D8002B05D0E9
:104A780010E0202B05D0302B09D00BE00023FB776A
:104A8800F0E00223FB77EDE00423FB77EAE008235C
:104A9800FB77E7E01023FB7700BFE3E07B681B6848
:104AA800624A934220D15E4BD3F8903003F0C003A2
:104AB800402B0FD0402B02D8002B05D010E0802BC4
:104AC80005D0C02B09D00BE00023FB77CAE00223F6
:104AD800FB77C7E00423FB77C4E00823FB77C1E03A
:104AE8001023FB7700BFBDE07B681B68504A9342E8
:104AF80024D14B4BD3F8903003F44073B3F5807F47
:104B080012D0B3F5807F02D8002B07D012E0B3F59E
:104B1800007F06D0B3F5407F09D00BE00023FB7778
:104B2800A0E00223FB779DE00423FB779AE00823AB
:104B3800FB7797E01023FB7700BF93E07B681B6847
:104B48003C4A934224D1364BD3F8903003F4406367
:104B5800B3F5806F12D0B3F5806F02D8002B07D061
:104B680012E0B3F5006F06D0B3F5406F09D00BE043
:104B78000123FB7776E00223FB7773E00423FB77BE
:104B880070E00823FB776DE01023FB7700BF69E036
:104B98007B681B68284A934224D1214BD3F8903074
:104BA80003F44053B3F5805F12D0B3F5805F02D8A9
:104BB800002B07D012E0B3F5005F06D0B3F5405FD5
:104BC80009D00BE00023FB774CE00223FB7749E098
:104BD8000423FB7746E00823FB7743E01023FB77A9
:104BE80000BF3FE07B681B68144A934238D10C4BE6
:104BF800D3F8903003F44043B3F5804F26D0B3F593
:104C0800804F02D8002B1BD026E0B3F5004F1AD0F6
:104C1800B3F5404F1DD01FE0F369FFEF00100140CE
:104C2800003802400044004000480040004C00406A
:104C3800005000400014014000780040007C004013
:104C48000023FB770EE00223FB770BE00423FB77BE
:104C580008E00823FB7705E01023FB7700BF01E09D
:104C68001023FB777B68DB69B3F5004F40F0808049
:104C7800FB7F082B5CD801A252F823F0A94C00084E
:104C8800C94C0008E94C0008394D0008014D0008DE
:104C9800394D0008394D0008394D0008214D0008EC
:104CA800FEF74EF8F860FB685A007B685B685B08A3
:104CB8001A447B685B68B2FBF3F39BB2BB613AE0D2
:104CC800FEF752F8F860FB685A007B685B685B087F
:104CD8001A447B685B68B2FBF3F39BB2BB612AE0C2
:104CE8007B685B685A085F4B13447A685268B3FB69
:104CF800F2F39BB2BB611EE0FDF760FFF860FB6852
:104D08005A007B685B685B081A447B685B68B2FB87
:104D1800F3F39BB2BB610EE07B685B685B0803F54D
:104D280080327B685B68B2FBF3F39BB2BB6102E045
:104D38000123FB7500BFBB690F2B16D9BB69B3F5FF
:104D4800803F12D2BB699BB223F00F037B81BB6902
:104D58005B089BB203F007039AB27B8913437B81FC
:104D68007B681B687A89DA6070E00123FB756DE067
:104D7800FB7F082B59D801A252F823F0A94D00084F
:104D8800C74D0008E54D0008334E0008FD4D0008EA
:104D9800334E0008334E0008334E00081B4E0008FF
:104DA800FDF7CEFFF8607B685B685A08FB681A4419
:104DB8007B685B68B2FBF3F39BB2BB6138E0FDF73D
:104DC800D3FFF8607B685B685A08FB681A447B6805
:104DD8005B68B2FBF3F39BB2BB6129E07B685B685D
:104DE8005A08214B13447A685268B3FBF2F39BB21A
:104DF800BB611DE0FDF7E2FEF8607B685B685A085E
:104E0800FB681A447B685B68B2FBF3F39BB2BB6137
:104E18000EE07B685B685B0803F500427B685B68B3
:104E2800B2FBF3F39BB2BB6102E00123FB7500BF49
:104E3800BB690F2B08D9BB69B3F5803F04D27B68E7
:104E48001B68BA69DA6001E00123FB757B68002200
:104E58001A667B6800225A66FB7D18462037BD46D5
:104E680080BD00BF0048E8010024F40080B483B08E
:104E780000AF78607B685B6A03F00103002B0AD0FF
:104E88007B681B687A681268526822F400317A6875
:104E9800926A0A435A607B685B6A03F00203002B3C
:104EA8000AD07B681B687A681268526822F48031DD
:104EB8007A68D26A0A435A607B685B6A03F0040323
:104EC800002B0AD07B681B687A681268526822F443
:104ED80080217A68126B0A435A607B685B6A03F028
:104EE8000803002B0AD07B681B687A68126852682E
:104EF80022F400417A68526B0A435A607B685B6A05
:104F080003F01003002B0AD07B681B687A681268CC
:104F1800926822F480517A68926B0A439A607B689F
:104F28005B6A03F02003002B0AD07B681B687A6851
:104F38001268926822F400517A68D26B0A439A6028
:104F48007B685B6A03F04003002B1AD07B681B6800
:104F58007A681268526822F480117A68126C0A43DF
:104F68005A607B681B6CB3F5801F0AD17B681B688D
:104F78007A681268526822F4C0017A68526C0A434F
:104F88005A607B685B6A03F08003002B0AD07B6859
:104F98001B687A681268526822F400217A68926C59
:104FA8000A435A6000BF0C37BD465DF8047B704762
:104FB80080B586B002AF78607B680022DA67FCF7BC
:104FC800E9FBF8607B681B681B6803F00803082B83
:104FD8000ED16FF07E430093FB6800224FF400115E
:104FE800786800F014F80346002B01D003230AE088
:104FF8007B6820225A677B6820229A677B68002298
:1050080083F87020002318461037BD4680BD80B550
:1050180084B000AFF860B9603B601346FB715DE097
:10502800BB69B3F1FF3F59D0FCF7B4FB02463B68BC
:10503800D21ABB699A4202D8BB69002B1BD1FB6804
:105048001B68FA681268126822F4D0721A60FB684A
:105058001B68FA681268926822F001029A60FB687D
:1050680020225A67FB6820229A67FB68002283F88F
:105078007020032342E0FB681B681B6803F00403ED
:10508800002B2BD0FB681B68DB6903F40063B3F5C6
:10509800006F23D1FB681B684FF400621A62FB683B
:1050A8001B68FA681268126822F4D0721A60FB68EA
:1050B8001B68FA681268926822F001029A60FB681D
:1050C80020225A67FB6820229A67FB682022DA6749
:1050D800FB68002283F8702003230FE0FB681B683D
:1050E800DA69BB681A40BB689A420CBF01230023E7
:1050F800DBB21A46FB799A4292D000231846103741
:10510800BD4680BD80B483B000AF78607B681B6803
:105118007A681268126822F490721A607B681B68B9
:105128007A681268926822F001029A607B682022ED
:105138009A677B6800221A6600BF0C37BD465DF887
:10514800047B704780B584B000AF78607B689B6B48
:10515800FB60FB680022A3F85A20FB680022A3F832
:105168005220F868FFF7CEFB00BF1037BD4680BD60
:1051780080B582B000AF78607B681B687A68126877
:10518800126822F040021A607B6820225A677B6806
:1051980000225A667868FFF7ABFB00BF0837BD46A8
:1051A80080BD80B584B000AF78607B68B3F85C30B0
:1051B800FB817B689B6F222B3AD17B681B685B6AFB
:1051C800BB817B685B6DBA89D1B2FA89D2B20A40D9
:1051D800D2B21A707B685B6D5A1C7B685A657B6813
:1051E800B3F85A309BB2013B9AB27B68A3F85A20B5
:1051F8007B68B3F85A309BB2002B21D17B681B68BF
:105208007A681268126822F490721A607B681B68C8
:105218007A681268926822F001029A607B682022FC
:105228009A677B6800221A667868FBF793FC07E0A8
:105238007B681B687A681268926942F008029A6172
:1052480000BF1037BD4680BD80B584B000AF786020
:105258007B68B3F85C30FB817B689B6F222B3AD16B
:105268007B681B685B6ABB817B685B6DBB60BA89C6
:10527800FB8913409AB2BB681A807B685B6D9A1CE5
:105288007B685A657B68B3F85A309BB2013B9AB287
:105298007B68A3F85A207B68B3F85A309BB2002B7E
:1052A80021D17B681B687A681268126822F49072B0
:1052B8001A607B681B687A681268926822F001029B
:1052C8009A607B6820229A677B6800221A66786851
:1052D800FBF740FC07E07B681B687A6812689269F4
:1052E80042F008029A6100BF1037BD4680BD000039
:1052F800DFF834D0002103E00C4B5B5843500431F5
:105308000B480C4B42189A42F6D30B4A02E0002392
:1053180042F8043B094B9A42F9D3FCF7D3F900F061
:1053280011F8FBF76FFC7047000005209054000847
:10533800000000209000002090000020A40200201F
:10534800FEE7000070B50D4E0D4CA41BA4100025FF
:10535800A54209D10B4E0C4C00F028F8A41BA41050
:105368000025A54205D170BD56F82530984701356E
:10537800EEE756F8253098470135F2E788540008DB
:1053880088540008885400088C54000802440346D6
:10539800934200D1704703F8011BF9E7034611F85F
:1053A800012B03F8012B002AF9D17047F8B500BF8B
:1053B800F8BC08BC9E467047F8B500BFF8BC08BCEE
:0453C8009E46704746
:1053CC004F6E2020202020202000000038000000FC
:1053DC004F4646202020200031000000436F6E6EA7
:1053EC00656374696E6720200000000032000000C5
:1053FC004E6F726D616C2020202000003300000085
:10540C0035252020202020003400000035302520B8
:10541C002020202000000000350000003938252015
:10542C0020202020000000003600000044616E6740
:10543C00657220202020000037000000415F4F469D
:10544C0046000000445F4F4646000000210000006B
:10545C00450E0D0B161513262523464300000000A0
:10546C000000000001020304060708090000000008
:04547C000102030422
:08548000CCADFF7F010000002C
:04548800ED0100082A
:04548C00C90100084A
:1054900050524F4752414D20416374697665204F09
:1054A0004646209620415F4F4646200A0D20507206
:1054B0006F6772616D204465616374697665204F22
:1054C0004646209620445F4F46462000010C0000CF
:1054D000004000200080004000400080002000408C
:1054E00000080002002000000014024000100240EA
:1054F000001402400018024000180240001402404C
:10550000001002400014024000100240001002404F
:10551000001402400024F40010000000010000000C
:04000005080052F9A4
:00000001FF
